:020000040000FA
:10000000F0242020D5000000D9000000DB00000013
:1000100000000000000000000000000000000000E0
:10002000000000000000000000000000750F00004C
:100030000000000000000000310F0000C5120000A9
:10004000E3000000E3000000E3000000E300000024
:10005000E3000000E3000000E3000000E300000014
:1000600000000000E3000000E300000000000000CA
:1000700000000000E3000000E3000000F1120000B7
:10008000E3000000E3000000E3000000E3000000E4
:10009000E3000000E300000000000000000000009A
:1000A000E3000000E300000000000000000000008A
:1000B000E300000000000000E3000000E300000097
:1000C0000348854600F04CFA00480047E915000057
:1000D000F024202003480047FEE7FEE7FEE7FEE7A6
:1000E000FEE7FEE7C100000003460B439B0703D079
:1000F00009E008C9121F08C0042AFAD203E00B78ED
:100100000370401C491C521EF9D27047D2B201E064
:100110000270401C491EFBD270470022F6E710B562
:1001200013460A4604461946FFF7F0FF204610BD65
:1001300070B50446002903D000202022012310E0DE
:10014000002801D00020C043C046C0460DE025462F
:10015000D5408D4205D30D469540641B1D46954004
:1001600040191546521E002DF1DC214670BDF0B538
:100170001FB40646002082B005464024019100903D
:100180001BE0019922460F46304600F011FA049A0E
:10019000059B801A994110D310461946224600F05B
:1001A000F7F9361A8F410197224601200021009F5E
:1001B00000F0EEF938184D4100902046641E0028EA
:1001C000DFDC019B00982946324607B0F0BD0000F5
:1001D000F0B507460846584087B0C00F0490480065
:1001E0000E46590040084908BC1A884105D23846D5
:1001F00031461E4617460B4602465800400810433B
:100200004CD0300D039040055900400D490D05902C
:10021000401A0290402872DA18030121000B0905E8
:100220000843019004980092002805D00199524299
:100230000020884100920190029840210A1A0199F9
:10024000009800F0A5F905460C466B4607CB00F078
:10025000C0F9C0197141039A0E0D0023D7175640FB
:100260001A467A40164344D0049A002A2DD0029AA6
:10027000012A039A15DC1205C01A914101263605A0
:10028000001C7141D20F059ED20700930192029685
:100290002A46234600F0BDF907B0F0BD3846314686
:1002A000FAE71605224A0F46B218C01AB7410121D3
:1002B0000905001C4F4100187F411146181879416B
:1002C000E20F10436D19644113E0E2076D08154316
:1002D0006408C2071443039A01261205C01A91410B
:1002E0003605001C7141CE07400830434908C0184C
:1002F00051412A46234600F07FF9CDE7FFE70498F5
:1003000001224000C117121A00238B410498314684
:10031000C417381AA141EEE730B40124E407634062
:1003200030BC55E730B40124E407614030BC4FE7EE
:100330000000E0FFF0B51FB488B00B9909980024C5
:1003400048400999C00F490049080991C0070B9915
:100350000090490049080B9109990898A64608435E
:100360001CD00B990A98084318D009980124400022
:10037000420D4800410D099824050003000B20435D
:1003800009900B980003000B20430B9050181C4958
:100390004018002201901446104605E00020014656
:1003A0000DB0F0BD032801DA034600E003239C46AC
:1003B000C11A0AAE0AE05F0008ADED5B4F00F75BC3
:1003C0007D430027AA187C41491C5B1E6145F2DD74
:1003D000410004AB5A522104120C0A43240C401C65
:1003E0000828DFDB01980290009970460191009087
:1003F000059B049A0799069800F00BF9D0E70000D6
:100400000DFCFFFFF0B50C465C4085B0E40FE4073F
:1004100003944C000026640859009446490802469B
:100420000296224321D062460A431ED06200570D35
:100430004A000E032303550D012402462C492405CE
:10044000781B1B0B360B4018234326436146009054
:100450001C46501AB44103D30098401C009002E09F
:10046000921800985B41002803DA0020014605B08D
:10047000F0BD0020012109050746864611E06446CB
:100480001D46141BB54106D36546521BB341744645
:1004900007430C43A646CD07400849082843921855
:1004A0005B4105460D43EAD11046184313D0604620
:1004B000194650407140084306D06046101AB341B7
:1004C00006D20122002306E000220123DB0702E01E
:1004D0000122D2435310009874460105381C614133
:1004E000029C039D0019694100F086F8BFE70000F7
:1004F000FD0300004A0009030123090B1B051943F2
:100500000A4B10B5520D9A4202DA0020014610BD86
:10051000064B34339A4203DC9A1A00F049F810BDB6
:10052000034BD21800F034F810BD0000FF030000A8
:10053000CDFBFFFF10B5002904DB0124E407404296
:100540008C412146002B04DB1C460123DB07524271
:10055000A341994200D1904210BD0000000000006C
:100560001CB5094800900948019005460126009CE9
:1005700005E0E36807CC33430C3C98471034AC42A9
:10058000F7D3FFF7A1FD00005042000070420000C9
:1005900010B5202A04DB0146203A9140002010BD0E
:1005A000914020239C1A0346E3401943904010BD1C
:1005B00010B5202A04DB0846203AD040002110BDA7
:1005C0000B46D340D0402024A21A9140084319463C
:1005D00010BD10B5202A06DBCB170846203A104183
:1005E000C1170B4306E00B461341D0402024A21A4A
:1005F00091400843194610BD10B5002B08DA0024BD
:10060000401C614192185B411A4301D140084000EF
:1006100010BDF0B51FB482B005460C0003D00846EB
:1006200003F028F902E003F025F92030024600909B
:1006300021462846FFF7ACFF049B059A04460F4667
:1006400018431143084314D0184610431BD0009898
:1006500040210A1A18460599FFF7AAFF05460E46DB
:10066000009A05990498FFF793FF084305D00120ED
:1006700004E02046394607B0F0BD0020C11705430D
:100680000E432C43374300990E986305401A7905B1
:10069000E40A00220C43FD0A0A3002D5002001467C
:1006A000E9E70105101969410C9C0D9D001969418C
:1006B000FFF7A2FFDFE7811E091F00BFFCD27047D2
:1006C00084B0039002910192039800680090009812
:1006D00001998843009000980299019A11400843BB
:1006E0000399086004B0704782B001900091009BAC
:1006F0000199034A88581843885002B07047C04691
:100700004810000082B00190009100980199952254
:100710005201885002B0704782B001900091009859
:10072000019995225201885002B0704782B0019021
:1007300000910098019995225201885002B07047AB
:1007400082B001900091009B0199034A8858184398
:10075000885002B07047C0462810000082B0019057
:10076000009100980199024A885002B07047C04633
:10077000D012000081B0009000990120C202CB4845
:10078000885001B07047C04610B584B0069C0390F5
:10079000029101920093029801990843009908433D
:1007A000069908430349084303998900244A88505D
:1007B00004B010BD8100040081B000900098810059
:1007C0001F4A8120885001B07047C04610B584B0E0
:1007D000069C0390029101920093029801990843AC
:1007E0000099084306990843812108430399890029
:1007F000134A885004B010BD81B000900098810069
:100800000F4A0020885001B07047C04682B0019066
:10081000009100980349084301998900084A8850CB
:1008200002B070478000040082B0019000910098EF
:100830008021084301998900014A885002B070471D
:100840000480424082B00190009101982721C901A3
:1008500040580099084002B07047000081B00090F5
:100860000099024A0248885001B07047040800000D
:10087000030000B182B00190009100980199074AED
:10088000885002B07047C04682B001900091009835
:100890000199024A885002B07047C0469012000089
:1008A00082B001900091009B01999D2042018858DF
:1008B0001843885002B07047F0B584B0012422027A
:1008C000344B19680392914319606E490D686D04A9
:1008D000FCD5457E25409E69A64374199C61202461
:1008E000045D03252C40DE69AE433419DC611F4CE6
:1008F000256805262660466A37681F6276685E624C
:1009000007262E402660C4697F252D02DE69AE438E
:100910006406640C3419DC610768456882680092DB
:10092000C66802690192426902929A69104C1440A9
:100930003A07120B2D03ADB2AA183243009D2D07C2
:100940002D0D1543019A1543029A1543007E284345
:10095000084A0240101998611868039A10431860F9
:1009600008688005FCD504B0F0BDC04600134040C7
:100970008D00F0FF72FF0F000649086801229043C6
:10098000086070470349086801221202904308601A
:100990007047C04608010B4039490868012212031C
:1009A000104308607047C04681B001466846017038
:1009B00000780249086001B07047C04608030B4048
:1009C00080B582B0014601A8018001880F20020293
:1009D0002B48FFF775FE02B080BDC046F0B5124B44
:1009E0001D46083D2E680124A6432E6003263603CB
:1009F00030401F68B743381818601868FF26B043A6
:100A0000C9B2401818602868204328601868210778
:100A1000002A06D0084318601A480168C905FCD5A9
:100A2000F0BD88431860F0BD10010B4080B582B066
:100A3000014601A80170017802480322FFF740FE39
:100A400002B080BD00010B4080B582B0014601A814
:100A5000017001780A483022FFF732FE02B080BDF3
:100A600007498860074802689202FCD501221204F7
:100A70000B6813430B600168C906FCD57047C0467C
:100A800004010B4004020B4081B000900099F74A2A
:100A90000120885001B0704781B00090009901207A
:100AA000C202D548885001B07047C04601000026F8
:100AB00081B0009000980321C902405801B07047EE
:100AC000F0B5BA4A82183B4BC31808794E793A4DB3
:100AD000764C002E23D0202804D00526F6010028CD
:100AE00003D003E0354E002800D18826576F2F40F1
:100AF00037435767976F2F4037439767566B2640AA
:100B00005663966B264096630026566596658F263B
:100B1000F6435F6837405F609F6837409F608E791B
:100B2000096820280BD0002819D1491E5160D76EC2
:100B30002F4088210F43D7661746703719E0491EAA
:100B40005160D16E29401D4F3943D166116F294044
:100B50003943116701214907194D174609E0490832
:100B60005160D76E2F400521C9010F43D766174644
:100B700070373C682C400C433C60D16A4B4C2140A0
:100B8000D162116B214011630021D16411658F2165
:100B9000C943D46F0C40D4671C680C401C600643EA
:100BA000BD2030401168074B0B40C018801C1060FE
:100BB000F0BDC0468418000024493E000104000036
:100BC000FFFFFFCF4000FFCFB0B54A686C4BC2506B
:100BD000764A80180A78222A58D8930001A4E3584C
:100BE0009F46C046830C00008D0C0000830C000063
:100BF0008D0C00008D0C00008D0C00008D0C000091
:100C00008D0C00008D0C00008D0C00008D0C000080
:100C10008D0C00008D0C00008D0C00008D0C000070
:100C20008D0C0000710C00008D0C0000710C000098
:100C30008D0C00008D0C00008D0C00008D0C000050
:100C40008D0C00008D0C00008D0C00008D0C000040
:100C50008D0C00008D0C00008D0C00008D0C000030
:100C60008D0C0000710C00008D0C0000710C000058
:100C700003231B0704689C4301235B07E3180360FD
:100C800004E003231B0704689C4304600B69C360F2
:100C9000CB68054C1C40C36A044D1D402B19C36230
:100CA000097A11430160B0BD777702008888FDFFA3
:100CB00081B000900099774A7748885001B070471A
:100CC00082B001900091009801991122120288507F
:100CD00002B0704710B507239B041940920080189A
:100CE000024A84589C436118815010BD301800009E
:100CF00010B5029CA400001911431943014A815008
:100D000010BDC0465018000092008018014A815062
:100D10007047C0461018000010B501221203831856
:100D20000C789C604B7883508978014A815010BDC3
:100D30000C11000010B586B001930B4601460198D6
:100D4000059104A90B8003AB1A8002AA10800598B4
:100D5000164C001909881B88194312881143024A4E
:100D6000FFF7AEFC06B010BD80FF000082B001901E
:100D7000009100980199024A885002B07047C0461D
:100D80000818000082B00190009100980199032298
:100D9000D202885002B0704781B000900099034A97
:100DA000885801231843885001B070470418000088
:100DB00081B0009000991120020288580123184345
:100DC000885001B07047000082B001900091009BF4
:100DD0000199034A88581843885002B07047C046AA
:100DE0002810000081B0009000990120C202024842
:100DF000885001B07047C0460100002681B00090C5
:100E00000098812149014058C0B201B070470000EC
:100E1000B0B51122120283580124A34383500B88DA
:100E20008C781C438B882343094C1C408358094D04
:100E30001D40631983508B79CC791C43097A214377
:100E40007E231940801842689A4351184160B0BD12
:100E500018670000E798FDFF81B0009000980349F3
:100E600040580121084001B07047C04608110000F9
:100E700081B00090009802494058C0B201B070475C
:100E80002411000081B000900099024A0248885065
:100E900001B0704704080000030000B180B584B0C1
:100EA00003900291019203980B49401802990B4A52
:100EB000FFF706FC03980A49401801993F22FFF703
:100EC000FFFB0399074A8818895801221140FFF750
:100ED000F7FB04B080BDC04610110000FFFF00000A
:100EE000141100000411000010B501221203831830
:100EF0000C789C604978815010BD80B582B001901B
:100F00000091019811210902401800990322D2038F
:100F1000FFF7D6FB02B080BD82B001906846017039
:100F20000078019989225201885002B07047000070
:100F3000EFF309800E4B1A6820381060F0C0444669
:100F40004D4656465F46F0C008B572B601F048FD02
:100F500062B60CBC116808681030F0C8A046A946FB
:100F6000B246BB4680F309882038F0C81847C0460F
:100F7000741C20207047000080B58EB00920FFF758
:100F80003BFC0A20FFF738FC0E2008210291FFF7F6
:100F90004BFCCA480C900421FFF7E0FB02990F209C
:100FA000FFF742FC02990C98FFF7D8FB14200221AE
:100FB0000391FFF739FC03991520FFF727FC002167
:100FC00005910091012004904204C304069330204F
:100FD000FFF7DAFB0498059B0093020431201946C1
:100FE000FFF7F4FB059A069B009227201146FFF7B6
:100FF000CBFB1920FFF7E0FB1E20FFF7DDFB2520D0
:10100000FFF7DAFB2620FFF7D7FB2220FFF7D4FB00
:101010002320FFF7D1FB059A069B00923A20114648
:10102000FFF7B2FB059A069B009236201146FFF7A8
:10103000ABFB059A069B009233201146FFF7A4FBF9
:10104000059A069B00922F201146FFF79DFB2A2050
:10105000FFF7B2FB1F20FFF7AFFB05200890FFF75B
:10106000ABFB059A069B00921C201146FFF78CFBF8
:101070009148099017490791FFF744FB0799099890
:10108000FFF76CFB089909988904FFF709FC099898
:10109000032149060A91FFF727FB09980A99FFF7F0
:1010A0004FFB0C980C490B91FFF72CFB0B990C98FC
:1010B000FFF754FB0C980949FFF7F2FB0C9811213C
:1010C00009050D91FFF710FB0C980D99FFF738FB00
:1010D0000EB080BD0060038000C242000005010028
:1010E00080B584B01E4976480390FFF715FE03983B
:1010F0001C49FFF7E5FC03980023019319461A46A3
:10110000FFF718FE019B0398009319461A46FFF754
:10111000EFFD019A03981146FFF7DCFD019A039851
:101120001146FFF7F1FD019B039801210291009107
:1011300019461A46FFF7DCFD0199029A0398FFF75A
:10114000C9FD0199029A0398FFF7DEFD0398FFF7A6
:101150009BFC03980321FFF7B3FD04B080BDC0469C
:101160007C4100008041000080B582B000200190E9
:10117000FFF71AFC012000904002FFF721FC0198C4
:10118000FFF754FCFFF7F8FBFFF7FCFB009A032086
:1011900000030A21FFF722FC0848FFF78DFB10200F
:1011A000FFF752FCFFF7F8FB0198FFF759FC009896
:1011B000019900F0DFF802B080BDC0468841000010
:1011C00080B582B00649C2480190FFF7A5FD01989D
:1011D0000449FFF7F9FC0198FFF756FC02B080BD07
:1011E000B0410000B441000080B582B00F494A48C8
:1011F0000190FFF779FE01980D49FFF709FE01986C
:101200000021FFF77AFE019815212D22FFF746FEF7
:10121000019801218902FFF7D7FD0F20032100F07B
:10122000A9F80198FFF7C4FD02B080BDC8410000D5
:10123000CA41000080B500F015F8FFF79DFEFFF7EA
:1012400093FFFFF74DFFFFF7BBFFFFF7CDFF03490C
:10125000B822002088540249885480BDEC04202024
:10126000A805202080B586B013480190FFF7F6FA54
:1012700012480290FFF7F2FA11480390FFF718FDA9
:1012800093480490FFF714FDD6480590FFF7FAFD48
:101290000198FFF76FFA0298FFF76CFA0398FFF7CF
:1012A000FBFB0498FFF7F8FB0598FFF79BFD102068
:1012B000FFF701FA06B080BD00000A4000200A4096
:1012C0000020864080B582B001F00CF9019002F058
:1012D0005BF8002805D0FFE70120000703490860FC
:1012E000FFE7019801F053F902B080BD04ED00E082
:1012F00010B5BC48FFF782FD0B280CD1FFE7B948B9
:10130000FFF7B6FD614980240A59531C0B518854DC
:1013100000F0A8F8FFE710BD0080104081B0014642
:101320006846017000214056002809D4FFE768464E
:1013300001781F2001400120884002490860FFE732
:1013400001B0704780E200E081B00146684601705C
:1013500000214056002809D4FFE7684601781F2085
:1013600001400120884002490860FFE701B0704752
:1013700000E100E070B582B0024601A80270009161
:1013800000214056002816D4FFE7002401A9085781
:101390000322D3431840174A805809578C07E50E9B
:1013A000FF24AC40A043009CA401E4B2AC40204325
:1013B000194088501AE001A908780F242040083805
:1013C0000322D34318400A4A8058002549578D0705
:1013D000EE0EFF25B540A843009DAD01EDB2B5402E
:1013E00028432140083919408850FFE702B070BDFA
:1013F0001CED00E000E400E082B001466846018098
:101400000021405E0E49884205DBFFE77D20C000D9
:1014100001A908800EE000216846405E0949884223
:1014200004DCFFE701A90848088003E0009801A94F
:101430000880FFE7002101A8405E02B07047C04667
:10144000E903000017FCFFFF18FC000080B582B024
:101450000F200190FFF762FF0198FFF775FF02B0C0
:1014600080BD000081B00948802140587F2806DBFC
:10147000FFE70649802200208850009002E001200A
:101480000090FFE7009801B07047C0460800202098
:1014900080B584B003A908800398410002A8009099
:1014A000018001880A480190FFF760FC00990198CB
:1014B0000988FFF767FC0198FFF76EFCFFE7044817
:1014C000FFF7F6FA002801D0FFE7F8E704B080BD87
:1014D0000000864080B5002000F074FF80BD80B51C
:1014E00084B003900398002801D1FFE72DE0039911
:1014F0000020087202A90870FFE702A800780728F8
:1015000023D8FFE702A80190007800F05BFF0120DC
:10151000FFF7BEFF00F04CFF0199039A0B78D054FF
:1015200003980978405C002809D0FFE702A80078FA
:10153000012282400399087A10430872FFE7FFE70F
:101540000298401C02A90870D7E704B080BD0000D3
:1015500080B586B00590FFF7BDFF01F00DFF01904B
:10156000FFE702A80090FFF7BAFF01F083F80099A7
:101570007B480922FEF7B8FD01F086F801A8142186
:1015800001F076FEEDE7C04680B584B007480290D2
:1015900007480190022000900648074901221202E4
:1015A000002301F01BFE04B080BDC0468C04202047
:1015B0008C00202051150000FC41000080B582B055
:1015C00001900091FFE70748FFF746FC002801D093
:1015D000FFE7F8E701A801780248FFF79DFC0198B2
:1015E00002B080BD0080104080B582B00020019024
:1015F000FFF720FE00F05AF8FFF7C6FF00F0B4F83E
:1016000001F08AF9FFE7FEE780B582B00020019083
:1016100000F01EF80199084600F002F802B080BD03
:1016200080B586B001910246019805A90A8004AAF6
:101630000392108000200290095E00F0E7FE0299FC
:101640000398415E012000F0E1FE06B080BD00007D
:1016500080B582B0014601A801700078C00700285B
:1016600006D0FFE7012081030548FFF70DF905E0EB
:10167000012081030248FFF759F8FFE702B080BD5F
:1016800000200A4080B582B00190FFF7BDFF7D20A9
:1016900081000846FFF7C4FF0120FFF7D9FFFFE7ED
:1016A0007D20C00001F0C8F8FAE7000080B584B0E2
:1016B0000748029007480190022000900648074919
:1016C00001221202002301F089FD04B080BDC04652
:1016D000700A2020700620208516000008420000B5
:1016E000F0B58DB00C90FFF7B1FEFFE700F0C2FF40
:1016F0001B480690017A09AA079211720279417972
:1017000009028A1881790B04C1790906C918891858
:101710000A91027841780902891882781204C07807
:10172000000680184018099000F0AEFF0798C179B4
:101730008279437904790894C47885784678077863
:10174000007A0590089804970396029501940090FA
:10175000044802F07FF87D20800001F06DF8C5E7B5
:10176000640620201242000080B584B00648029032
:101770000648019001220092054806499202002382
:1017800001F02CFD04B080BDD01A2020D00A20200A
:10179000E11600003542000080B584B0039002914C
:1017A00023480068009059480068001D00F09EFE24
:1017B000002801D1FFE700E0FFE70398401C002864
:1017C0000BD1FFE70298002807D0FFE74F480068D9
:1017D000011D1B4800F031FF28E0009803994018D4
:1017E0000190019849490968486001980099884228
:1017F00008D2FFE71148006844490968091D00F054
:10180000E6FE12E00B48006840490968091D00F037
:10181000DEFE019808490968884204D2FFE7019872
:101820000549086000E0FFE7FFE7FFE704B080BD7F
:10183000DC2220207C1C202084222020841C2020CC
:10184000B422202080B582B0019000F013FF6049DF
:101850000868401C08602D48006800280DD1FFE78B
:1018600001982A4908605A480068012803D1FFE717
:1018700000F036FA00E0FFE714E025480068002891
:101880000ED1FFE721480068C06A0199C96A884201
:1018900004D8FFE701981D49086000E0FFE700E079
:1018A000FFE7FFE71B480168491C016000680199D8
:1018B00008640198C06A18490968884205D9FFE799
:1018C0000198C06A14490860FFE70199C86A1422A8
:1018D000424312488018091D00F0AFFE00F0D4FE0C
:1018E0000B48006800280DD0FFE708480068C06A70
:1018F0000199C96A884203D2FFE700F05BFF00E06C
:10190000FFE700E0FFE702B080BDC046741C202066
:10191000A8222020601D2020641D20208C1C202057
:1019200080B584B000F0A6FE11480068002819D1E7
:10193000FFE71048029000F02DFE0F48039000F0E2
:1019400029FE029903988A4A11600C490860002018
:1019500000900B4A0B4B14200C2101F0EDF80449C8
:10196000086000E0FFE700F08FFE04B080BDC046D5
:10197000E0222020282220203C222020881C202019
:10198000301B2020201C202080B582B0FFE70F48AC
:101990000068002818D0FFE700F06CFEEA48C06835
:1019A000C06801900198001D00F0A0FD084908687A
:1019B000401E086005490868401E086000F064FE8B
:1019C000019800F093F8E2E702B080BD581D202096
:1019D000541D202080B582B0019000910198006CC8
:1019E000002817D0FFE701990A6CC8688018C86002
:1019F0000199C8688968884204D3FFE7019908689B
:101A0000C86000E0FFE70098019AD168126CFEF709
:101A10006BFBFFE702B080BD80B586B005900491F6
:101A20000392002002900598806B01900598006C4D
:101A3000002810D1FFE705980068002809D1FFE7CA
:101A40000598806801F040FD0290059900208860AB
:101A500000E0FFE743E00398002817D1FFE7059A6D
:101A600050680499126CFEF73FFB05990A6C4868B0
:101A700080184860059948688968884204D3FFE760
:101A800005990868486000E0FFE727E0059AD068FC
:101A90000499126CFEF728FB05990A6CC868801A35
:101AA000C8600599C8680968884206D2FFE70599A9
:101AB00088680A6C801AC86000E0FFE70398022873
:101AC0000AD1FFE70198002804D0FFE70198401EE3
:101AD000019000E0FFE700E0FFE7FFE7FFE7019884
:101AE000401C05998863029806B080BD80B582B01D
:101AF000019001985D21405C002808D1FFE7019822
:101B0000006B00F0D7FD019800F0D4FD14E00198BF
:101B10005D21405C012804D1FFE7019800F0CAFD77
:101B200009E001985D21405C022803D0FFE772B60E
:101B3000FFE7FEE7FFE7FFE702B080BD82B001905C
:101B4000D448006800684142484101990860019802
:101B50000068002806D1FFE7CE480068C06800682A
:101B6000009002E000200090FFE7009802B070476C
:101B7000781C202080B582B00190FFE7FFF704FFBA
:101B8000FCE710B584B0069C039002910192684670
:101B900003700298002803D1FFE70698006003E075
:101BA000019806990860FFE703980699C8630298B0
:101BB000069908640698012101F01EF8009806991C
:101BC0004C22885404B010BD10B588B00D9C0C9CFC
:101BD0000B9C0A9C07900691059204930C98006B4D
:101BE00005998900A522FEF791FA0C98016B0598DA
:101BF00080004018001F039003980721884303903A
:101C000003A800784007002803D0FFE772B6FFE77B
:101C1000FEE70698002820D0FFE700200290FFE7AB
:101C200002980B2814D8FFE70698029A805C0C995A
:101C300089183422885406980299405C002801D102
:101C4000FFE705E0FFE7FFE70298401C0290E7E7A7
:101C50000C993F220020885404E00C993422002083
:101C60008854FFE70A980A2803D3FFE709200A905F
:101C700000E0FFE70A980C99C8620A980C998864FA
:101C80000C9900200190C8640C98001D00F098FC8D
:101C90000C98183000F094FC01980C9909610A9A8C
:101CA0000A21891A0C9A91610C9949620C9948652C
:101CB00008650C9988650C995C22885403980799EB
:101CC000049A00F04FFB0C9908600B98002804D090
:101CD000FFE70C980B99086000E0FFE708B010BD23
:101CE00080B584B000200390FFE7039809280CD842
:101CF000FFE70398142141431748401800F04AFCBD
:101D0000FFE70398401C0390EFE70C48019000F0B8
:101D100041FC0B48029000F03DFC0A4800F03AFC00
:101D2000094800F037FC094800F034FC019902989A
:101D3000074A11600749086004B080BD5422202082
:101D40006822202094222020C8222020B422202093
:101D50007C1C2020841C20208C1C202083B002901E
:101D60002B480190FFE7019800680299884205D24C
:101D7000FFE7FFE7019800680190F4E70198009001
:101D800000980199496840180299884209D1FFE7F3
:101D9000029842680199486880184860019802904A
:101DA00000E0FFE702980090009802994968401807
:101DB0000199096888421AD1FFE70198006815491E
:101DC000096888420DD0FFE70198006842680299CF
:101DD00048688018486001980068006802990860A7
:101DE00004E00C48006802990860FFE704E00198ED
:101DF000006802990860FFE701980299884204D0C0
:101E0000FFE702980199086000E0FFE703B0704720
:101E1000AC222020801C202080B586B00590049143
:101E20000392029300200190049805994860059858
:101E3000006104980399884213D8FFE70398029938
:101E4000401A05998969884203D3FFE70120019070
:101E500006E0BA4800680599091D00F0B8FBFFE7E5
:101E600014E003980299884208D2FFE70498029987
:101E7000884203D3FFE70120019006E0F64800689E
:101E80000599091D00F0A3FBFFE7FFE7019806B0E5
:101E900080BDC046781C202080B582B0019000F043
:101EA000E9FB0198806B002803D1FFE70120009037
:101EB00002E000200090FFE700F0E6FB009802B08F
:101EC00080BD80B582B0019000F0D4FB0198806B9A
:101ED0000199C96B884203D1FFE70120009002E01D
:101EE00000200090FFE700F0CFFB009802B080BD1B
:101EF00080B586B005900491D7480068C068C06876
:101F000002900298001D00F0F1FA02982821405C2E
:101F1000400700281CD5FFE70298059B81695918E6
:101F2000049AFFF779FF002810D0FFE70298059A7E
:101F300000230093194601F045FC03900398002804
:101F400003D1FFE772B6FFE7FEE700E0FFE706E038
:101F500002992822885CFE2318408854FFE70298E3
:101F6000016A884706B080BD80B58AB0FFE7744833
:101F7000006807A9002201F008F8002800D199E0C4
:101F80000798002800D594E00998069006984069C3
:101F9000002805D0FFE70698001D00F0A7FA00E032
:101FA000FFE705A800F0E6F80390079802900928DB
:101FB00000D97CE00298810001A040588746C046C5
:101FC000E91F0000E91F0000E91F00004920000090
:101FD0005720000089200000E91F0000E91F0000D1
:101FE000492000005720000006992822885C012320
:101FF000184388540698089B81695918039AFFF77B
:102000000BFF00281ED0FFE70698016A8847069854
:102010002821405C4007002812D5FFE70698089960
:1020200082698A1800230093194601F0CBFB0490C3
:102030000498002803D1FFE772B6FFE7FEE700E04F
:10204000FFE700E0FFE733E006992822885CFE23E3
:10205000184088542CE006992822885C01231843F4
:10206000885408980699886106988069002803D1E9
:10207000FFE772B6FFE7FEE70698039B81695918F0
:102080001A46FFF7C9FE13E006982821405C800736
:10209000002804D4FFE7069800F00CFB06E0069940
:1020A0002822885CFE2318408854FFE700E0FFE701
:1020B000FFE75CE70AB080BD80B584B00390029171
:1020C00000F088FC684600F055F801900098002860
:1020D0002ED1FFE7029800280CD1FFE70398019961
:1020E000884207D8FFE701F097FA03980199FFF7B4
:1020F000FFFE1CE00298002807D0FFE75748006861
:102100000068414248410290FFE70D48006803998A
:10211000019A891A029A00F059FB01F07DFA002811
:1021200003D1FFE700F046FB00E0FFE7FFE702E036
:1021300001F072FAFFE704B080BDC046881C202081
:10214000E0222020094800680068002805D1FFE748
:1021500007490020C043086006E004480068C068E2
:10216000006803490860FFE77047C0467C1C2020D8
:102170008422202080B582B0019001F0FDF800900B
:1021800000980A490968884206D2FFE700F010F873
:1021900001990120086003E0019900200860FFE731
:1021A000009802490860009802B080BD701C202091
:1021B00080B586B0FFE7284800680068002840D056
:1021C000FFE725480168C968096805910068C0688B
:1021D000C06802900298001D00F088F90298016A18
:1021E000884702982821405C4007002827D5FFE750
:1021F00005980299896940180490049805998842C5
:102200000CD9FFE7049802994860029800611248CF
:1022100000680299091D00F0DAF90FE00298059AAA
:1022200000230093194601F0CDFA0190019800288F
:1022300003D1FFE772B6FFE7FEE7FFE700E0FFE745
:10224000B9E7054A106803900449086810600398CC
:10225000086006B080BDC046781C2020881C202065
:1022600081B00020009009480068401C002803D07D
:10227000FFE772B6FFE7FEE772B6FFE700980028B7
:1022800001D1FFE7FAE701B07047C0460400202003
:1022900080B584B00390FFE701A8FFF74FFC0290E0
:1022A00002980199FFF708FFFFF75EFEF4E780B59B
:1022B00084B0039000F0DEF903984521405C02A948
:1022C0000870FFE7002102A84056012817DBFFE74E
:1022D0000398406A00280CD0FFE70398243001F0EF
:1022E0004FF9002803D0FFE700F0DAFA00E0FFE73B
:1022F00000E004E00298401E02A90870E2E703999A
:102300004522FF20885400F0BFF900F0B3F903988C
:102310004421405C01A90870FFE7002101A8405654
:10232000012817DBFFE703980069002810D0FFE7BA
:102330000398103001F024F9002803D0FFE700F0E3
:10234000AFFA00E0FFE70198401E01A9087000E025
:1023500000E0E2E703994422FF20885400F094F95A
:1023600004B080BD83B00290019100920298001FDA
:10237000029002990120000608600298001F029056
:102380000198029908600298001F0290029907487C
:102390000860029814380290009802990860029828
:1023A00020380290029803B07047C04661220000B6
:1023B00080B5012001031348FEF744FA411E88410D
:1023C00080BDC04680B584B0014603A80170027884
:1023D00001200290024041040A48019000F076FB7F
:1023E00001980299039A9207D20FC90300F06EFB7D
:1023F000029803994907CA0FC107034800F066FB1A
:1024000004B080BD00200A4000000A4080B586B0BC
:10241000059004A80180059914224A43244989188B
:10242000039100210091405EFEF7E6FF009902460D
:1024300002A80280405E01280EDBFFE7039948688E
:102440008968FEF721FA0399C8680969FEF76EF9F1
:10245000029801A9088023E0002102A8405E00281C
:102460000FD5FFE7039948688968FEF75FF903997C
:10247000C8680969FEF708FA0298404201A9088075
:102480000DE0039948688968FEF750F90399C86818
:102490000969FEF74BF901A900200880FFE7FFE773
:1024A000039801A9098800F005F806B080BDC04670
:1024B000D441000080B584B0039002A80180028856
:1024C0007D2188015043C900FDF732FE019001993A
:1024D000039802780248FEF717FC04B080BDC0469E
:1024E00000208640EFF3108072B6704782B00190F2
:1024F000019800690090019988684968886001998D
:10250000486889684860009840680199884205D108
:10251000FFE7019880680099486000E0FFE70199B3
:102520000020086100990868401E08600098006853
:1025300002B0704783B00290019100920299054861
:10254000086001990448086000998020086003B081
:102550007047C046681F2020681D202083B002906D
:1025600001910092029905480860019904480860A9
:1025700000998020086003B07047C046C821202021
:10258000C81F202082B001900091FFE7FEE780F392
:102590001088704781B00090009908460830486064
:1025A000009A0020C1439160009A11460831D16021
:1025B000009A1146083111610099086001B0704716
:1025C00081B0009000990020086101B0704784B08C
:1025D000039002910298006800900098401C002827
:1025E00004D1FFE703980069019010E003980830D8
:1025F0000190FFE70198406800680099884205D87B
:10260000FFE7FFE7019840680190F3E7FFE70198D3
:102610004068029948600298416888600198029970
:1026200088600298019948600398029908610399AB
:102630000868401C086004B0704783B002900191A4
:10264000029840680090009801994860009880685E
:1026500001998860019800998968486001980099FB
:10266000886002980199086102990868401C086016
:1026700003B0704772B60E490868401C0860BFF38B
:102680004F8FBFF36F8F704709480068002803D150
:10269000FFE772B6FFE7FEE705480168491E0160E3
:1026A0000068002802D1FFE762B6FFE77047C04626
:1026B0000400202080B584B0039003980290039812
:1026C00000283FD0FFE70298083802900298019056
:1026D000019840681C490968084203D1FFE772B6B7
:1026E000FFE7FEE701980068002803D0FFE772B615
:1026F000FFE7FEE7019840681349096808421FD0C8
:10270000FFE701980068002818D1FFE70E4802682B
:10271000019948689043486000F05CF9019842686C
:102720000A490868801808600198FFF717FB0849F4
:102730000868401C086000F06FFF00E0FFE700E061
:10274000FFE7FFE704B080BD502220207C2220203C
:102750008C222020054900200860054A1060054AA7
:1027600005481060072008607047C04610E000E090
:1027700018E000E014E000E07F38010000000000F5
:102780000B4A13681868203080F30988022080F310
:102790001488BFF36F8F3FBCAE4608BC04BC62B662
:1027A0001847C046C046C046C046C046C046C046A0
:1027B000741C20200120000703490860BFF34F8FDD
:1027C000BFF36F8F7047C04604ED00E080B584B062
:1027D00003900291019203980090FFF74BFF00983D
:1027E00044214056401C002805D1FFE700994422AF
:1027F00000208854FFE7009845214056401C0028DF
:1028000005D1FFE70099452200208854FFE7FFF734
:102810003BFF0098806B002807D1FFE70098243029
:102820000299019A00F058F800E0FFE70098FFF7DE
:102830003EFD04B080BD000080B582B00190002054
:1028400000900198002812D0FFE79A4800680028FD
:1028500003D0FFE772B6FFE7FEE700F0BBF8019890
:102860000021FEF799FF00F0D7FE009000E0FFE79F
:102870000098002803D1FFE7FFF79CFF00E0FFE787
:1028800002B080BD81B000900448006800990860E3
:102890004E4800680099486001B0704788222020A7
:1028A000854901200860704780B582B00190009191
:1028B0000198002803D1FFE772B6FFE7FEE7019811
:1028C0007E4909681831FFF782FE00980121FEF762
:1028D00063FF02B080BDC04680B584B00390029112
:1028E00001920398002803D1FFE772B6FFE7FEE7E5
:1028F0000398724909681831FFF79FFE0198002874
:1029000004D0FFE70020C0430290FFE7029801993E
:10291000FEF742FF04B080BD80B588B00020039070
:102920000690059006A805A904AAFFF703FE039BDD
:10293000049A059806990291019000931E481F4938
:1029400000F04CFC01461E4801600068002803D0DE
:10295000FFE70120079002E000200790FFE70798BB
:10296000012804D1FFE700F0F1FE079000E0FFE747
:102970000798012812D1FFE772B6124A0020C1431E
:102980001160114A012111601049086000F0B4F88B
:10299000002801D0FFE700E0FFE708E00798401CAF
:1029A000002803D1FFE772B6FFE7FEE7FFE708481C
:1029B000006808B080BDC046751B00003F420000A3
:1029C0008022202084222020A8222020DC222020F7
:1029D0004C42000037490868401C08607047C046F8
:1029E00080B584B033480068002804D0FFE732493E
:1029F000012008605BE03049002008602F48006833
:102A0000006B03902E49029103980068884212D10E
:102A1000FFE7039840682A4988420CD1FFE70398F2
:102A200080682749884206D1FFE70398C068244997
:102A3000884207D0FFE72149086809683431FFF769
:102A4000A1FDFFE71F4800680190FFE701981421EE
:102A500041431D48405800280BD1FFE7019800284A
:102A600003D1FFE772B6FFE7FEE70198401E019031
:102A7000ECE7019814214143134840180090009955
:102A8000486840684860009948680831884205D124
:102A9000FFE70099486840684860FFE70098406891
:102AA000C06806490860019806490860FFE704B05D
:102AB00080BDC0465C1D2020E8222020741C202000
:102AC000A5A5A5A5641D20208C1C202080B584B060
:102AD0000390029101A802700078002805D0FFE75A
:102AE00003980299FDF7C6FE04E003980299FDF7EA
:102AF00013FEFFE704B080BD80B582B00C490868C2
:102B0000FF22130418430860086812061043086087
:102B1000FFF720FE0749002001900860FFF730FE14
:102B2000FFF75EFFFFF79CFB019802B080BDC04637
:102B300020ED00E00400202010B58AB004460C9877
:102B4000099408910792069305A90870099800282E
:102B500003D1FFE772B6FFE7FEE70698002803D12E
:102B6000FFE772B6FFE7FEE7079900200029029011
:102B700005D0FFE70898414248410290FFE70298DC
:102B8000C007002803D0FFE772B6FFE7FEE707990A
:102B900000200029019005D1FFE70898411E8841D7
:102BA0000190FFE70198C007002803D0FFE772B645
:102BB000FFE7FEE7502003900398502803D0FFE77B
:102BC00072B6FFE7FEE70398069804900498002881
:102BD0000ED0FFE7049946220120885409980899ED
:102BE000079A05AB1B78049C0094FEF7CAFF00E02F
:102BF000FFE704980AB010BD80B584B0039002913D
:102C0000039801900198002803D1FFE772B6FFE70F
:102C1000FEE7FFF72FFD01990868CB6B0A6C5A435A
:102C200080188860019900208863019908684860CD
:102C300001990868CA6B531E0A6C5A438018C86011
:102C400001994422FF208854019945228854029812
:102C5000002813D1FFE70198006900280CD0FFE796
:102C60000198103000F08CFC002803D0FFE7FFF73C
:102C7000A1FD00E0FFE700E0FFE708E00198103069
:102C8000FFF788FC01982430FFF784FCFFE7FFF78B
:102C9000FBFC012004B080BD80B58EB00C900B9180
:102CA0000A920993002008900C9804900498002838
:102CB00003D1FFE772B6FFE7FEE70B99002000297A
:102CC000039006D1FFE70498006C411E88410390F1
:102CD000FFE70398C007002803D0FFE772B6FFE7BD
:102CE000FEE7099900200229029007D1FFE7049826
:102CF000C06B401E411E88410290FFE70298C0074A
:102D0000002803D0FFE772B6FFE7FEE700F01AFBEA
:102D1000014600200029019005D1FFE70A98411ED5
:102D200088410190FFE70198C007002803D0FFE722
:102D300072B6FFE7FEE7FFE7FFF79CFC0498806BA5
:102D40000499C96B884204D3FFE70998022825D16A
:102D5000FFE704980B99099AFEF75EFE0790049826
:102D6000406A00280CD0FFE70498243000F008FCEB
:102D7000002803D0FFE7FFF71DFD00E0FFE708E0B4
:102D80000798002803D0FFE7FFF714FD00E0FFE7F6
:102D9000FFE7FFF779FC01200D9063E00A98002817
:102DA00005D1FFE7FFF770FC00200D905AE008986E
:102DB000002806D1FFE705A8FFF764FD0120089071
:102DC00000E0FFE7FFE7FFE7FFF75EFCFFF702FE2B
:102DD000FFF750FC049844214056401C002805D1C0
:102DE000FFE70499442200208854FFE70498452116
:102DF0004056401C002805D1FFE7049945220020D9
:102E00008854FFE7FFF740FC05A80AA900F090F9F5
:102E100000281ED1FFE70498FFF753F8002811D0CF
:102E2000FFE7049810300A99FFF73EFD0498FFF77A
:102E30003EFA00F0F1FB002803D1FFE7FFF7BAFCF0
:102E4000FFE705E00498FFF732FA00F0E5FBFFE743
:102E500007E00498FFF72BFA00F0DEFB00200D904E
:102E600000E069E70D980EB080BD80B58CB00B9086
:102E70000A91099208930B9805900598002803D1B0
:102E8000FFE772B6FFE7FEE70A99002000290290EB
:102E900006D1FFE70598006C411E88410290FFE7CC
:102EA0000298C007002803D0FFE772B6FFE7FEE7ED
:102EB000089900200229019007D1FFE70598C06B0F
:102EC000401E411E88410190FFE70198C00700287D
:102ED00003D0FFE772B6FFE7FEE7FFF703FB0690BC
:102EE0000598806B0599C96B884204D3FFE7089861
:102EF000022841D1FFE705984521405C04A90091D3
:102F000008700598806B039005980A99089AFEF757
:102F100083FD009800214056401C00281AD1FFE78D
:102F20000598406A002813D0FFE70598243000F088
:102F300027FB00280AD0FFE70998002804D0FFE704
:102F400009990120086000E0FFE700E0FFE700E0EA
:102F5000FFE70EE0002104A840567F2803D1FFE7D9
:102F600072B6FFE7FEE70498401C05994522885495
:102F7000FFE70120079002E000200790FFE7069896
:102F8000FFF705FB07980CB080BD80B58CB00A90A8
:102F900009910892002007900A980490049800284C
:102FA00003D1FFE772B6FFE7FEE709990020002989
:102FB000029006D1FFE70498006C411E8841029000
:102FC000FFE70298C007002803D0FFE772B6FFE7CB
:102FD000FEE700F0B7F9014600200029019005D175
:102FE000FFE70898411E88410190FFE70198C0075C
:102FF000002803D0FFE772B6FFE7FEE7FFE7FFF721
:1030000039FB0498806B0390039800281FD0FFE7DA
:1030100004980999FEF7DEFC0398401E0499886322
:103020000498006900280CD0FFE70498103000F0E5
:10303000A7FA002803D0FFE7FFF7BCFB00E0FFE79B
:1030400000E0FFE7FFF720FB01200B906CE0089801
:10305000002805D1FFE7FFF717FB00200B9063E086
:103060000798002806D1FFE705A8FFF70BFC012011
:10307000079000E0FFE7FFE7FFE7FFF705FBFFF73B
:10308000A9FCFFF7F7FA049844214056401C002899
:1030900005D1FFE70499442200208854FFE70498F3
:1030A00045214056401C002805D1FFE704994522E0
:1030B00000208854FFE7FFF7E7FA05A808A900F009
:1030C00037F800281FD1FFE70498FEF7E5FE002837
:1030D00012D0FFE7049824300899FFF7E5FB049825
:1030E000FFF7E5F800F098FA002803D1FFE7FFF7B3
:1030F00061FB00E0FFE705E00498FFF7D8F800F077
:103100008BFAFFE70FE00498FFF7D1F800F084FA9C
:103110000498FEF7C1FE002803D0FFE700200B90C3
:1031200002E0FFE7FFE76AE70B980CB080BD000004
:1031300080B586B0059004910598002803D1FFE77B
:1031400072B6FFE7FEE70498002803D1FFE772B6E6
:10315000FFE7FEE7FFF78EFAD64800680290029874
:1031600005994968401A019004980068401C00289D
:1031700003D1FFE7002003902BE0D14800680599B8
:10318000096888420CD0FFE702980599496888428F
:1031900006D3FFE70120039004990020086017E0A0
:1031A00001980499096888420BD2FFE7019A0499B3
:1031B0000868801A08600598FFF764FB00200390F8
:1031C00005E004990020086001200390FFE7FFE775
:1031D000FFE7FFF759FA039806B080BD70B58CB0D1
:1031E000129C119C109C0B900A91099208931198C3
:1031F000002803D1FFE772B6FFE7FEE71298002828
:1032000003D1FFE772B6FFE7FEE76020059005985F
:10321000602803D0FFE772B6FFE7FEE70598129833
:1032200000281FD0FFE7119800281BD0FFE7129855
:10323000079011980799086307995D220220885426
:103240000B980A99099A089B109C079D00260396E3
:10325000029506AD01950094FEF7B6FC0798FEF7BF
:10326000F1FA02E000200690FFE706980CB070BD6E
:1032700080B586B005900491002001900598002843
:1032800003D1FFE772B6FFE7FEE70498002803D1F9
:10329000FFE772B6FFE7FEE7DE480068002803D0CC
:1032A000FFE772B6FFE7FEE7FFF794FB814800688F
:1032B00000900598006804994018039000980599BB
:1032C0000968884210D2FFE7039805990968884287
:1032D00008D2FFE703980099884203D9FFE701204D
:1032E000019000E0FFE70FE0039805990968884224
:1032F00005D3FFE703980099884203D9FFE701202F
:10330000019000E0FFE7FFE7039805990860019846
:10331000002807D0FFE703980099401A0021FEF724
:103320003BFA00E0FFE700F077F9029002980028EE
:1033300003D1FFE7FFF73EFA00E0FFE7019806B090
:1033400080BDC04681B00B480068002803D1FFE76C
:10335000012000900BE0AF480068002803D1FFE790
:103360000220009002E000200090FFE7FFE70098B5
:1033700001B07047A822202081B04E48006800901C
:10338000009801B07047C04680B586B00020039019
:10339000E6480068002800D083E046490868401CE1
:1033A0000290029808600298002818D1FFE742486E
:1033B00000680068002803D0FFE772B6FFE7FEE769
:1033C0003D4A106801903D49086810600198086006
:1033D0003B490868401C0860FEF7B4FE00E0FFE7C8
:1033E000029838490968884251D3FFE7FFE732481D
:1033F00000680068002805D1FFE732490020C0437B
:10340000086043E02C480068C068C06805900598D3
:103410004068049002980499884204D2FFE7049817
:103420002849086032E0FFE70598001DFFF75EF8C5
:103430000598806A002805D0FFE705981830FFF747
:1034400055F800E0FFE70598C06ABD490968884261
:1034500005D9FFE70598C06AB9490860FFE70599F3
:10346000C86A14224243B7488018091DFFF7E5F8DF
:103470000598C06AB4490968C96A884203D3FFE75E
:103480000120039000E0FFE7FFE7B0E7FFE7AB486C
:103490000068002803D0FFE70120039000E0FFE769
:1034A00004E0A5490868401C0860FFE7039806B0DF
:1034B00080BDC046DC2220207C1C2020841C2020D3
:1034C000882220208422202080B584B00390039895
:1034D000029000200190039800284DD0FFE7029849
:1034E00099490968884203D0FFE772B6FFE7FEE713
:1034F0000298C06C002803D1FFE772B6FFE7FEE731
:103500000299C86C401EC8640299C86A896C8842D6
:1035100030D0FFE70298C06C002829D1FFE702985D
:10352000001DFEF7E3FF002801D1FFE700E0FFE701
:103530000299886CC8620299CA6A0A20801A886156
:103540000298C06A7E490968884205D9FFE7029857
:10355000C06A7B490860FFE70299C86A14224243A7
:1035600078488018091DFFF768F80120019000E0F5
:10357000FFE700E0FFE700E0FFE7019804B080BD4F
:1035800080B584B003900398C068C0680290029828
:10359000002803D1FFE772B6FFE7FEE70298183074
:1035A000FEF7A4FF6148006800281AD1FFE70298DF
:1035B000001DFEF79BFF0298C06A614909688842B6
:1035C00005D9FFE70298C06A5D490860FFE70299E4
:1035D000C86A142242435B488018091DFFF72DF882
:1035E00005E0029918315348FFF727F8FFE70298E2
:1035F000C06A55490968C96A884205D9FFE70120B0
:1036000001904E49086002E000200190FFE7019818
:1036100004B080BD5C1D202080B584B000200390E4
:10362000029042480068002803D1FFE772B6FFE726
:10363000FEE7FFF71FF83D480168491E016000687A
:1036400000286DD1FFE73A480068002867D0FFE7FF
:10365000FFE73848006800282FD0FFE73548C068EA
:10366000C068039003981830FEF740FF0398001DD0
:10367000FEF73CFF0398C06A31490968884205D9C2
:10368000FFE70398C06A2E490860FFE70399C86AFC
:10369000142242432B488018091DFEF7CEFF0398E1
:1036A000C06A29490968C96A884204D3FFE72349E7
:1036B0000120086000E0FFE7CBE70398002803D073
:1036C000FFE7FEF73FFDFFE71B4800680190019808
:1036D000002817D0FFE7FFE7FFF756FE002804D0C9
:1036E000FFE716490120086000E0FFE70198401E4F
:1036F0000190FFE701980028EED1FFE70E49002076
:10370000086000E0FFE70D480068002805D0FFE7EB
:1037100001200290FFF74EF800E0FFE7FFE700E02E
:10372000FFE7FEF7B1FF029804B080BD5C1D2020CA
:10373000541D20209422202090222020E8222020A6
:10374000641D20208C1C2020741C202080B588B093
:1037500000200790FEF7E4F83D480068002820D0DC
:10376000FFE7002003900690059006A805A904AA8B
:10377000FEF7F4FE039B049A0598069902910190C6
:10378000052000900C480D49FFF728FD01460C4824
:1037900001600068002803D0FFE701200790FFE7E1
:1037A00000E0FFE70798002803D1FFE772B6FFE7C4
:1037B000FEE7079808B080BD912200004442000057
:1037C000E422202010B588B00A9C0790069105924B
:1037D0000493002003900798002803D1FFE772B6F6
:1037E000FFE7FEE71A48006800282CD0FFE706989C
:1037F000009005980190079802900698052818DC1B
:10380000FFE7FFF79FFD022809D1FFE71048006896
:103810000A9A69460023FFF73FFA039008E00C4834
:103820000068694600231A46FFF736FA0390FFE75F
:1038300008E007480068049A69460023FFF715FB73
:103840000390FFE700E0FFE7039808B010BDC04613
:10385000E02220200FB410B503A9044B044A0298BB
:1038600000F0F0F810BC08BC04B01847BD1500000B
:10387000000020202021020C01D010211046020A55
:1038800001D010460839020901D01046091F8208EC
:1038900001D01046891E420801D0881E7047081AC0
:1038A000704700000000000002E008C8121F08C1B5
:1038B000002AFAD1704700007047000000000000A5
:1038C000002001E001C1121F002AFBD17047000057
:1038D000F0B51FB486B00998089A030D0021024381
:1038E00014D05148514A1818504305141198012812
:1038F00010981AD0281A401C00264D4F4D490096AA
:1039000001910490002812DA444211E01198012438
:1039100049A3012801D11098C1430698119A8460E7
:103920000360C26041600BB0F0BD4042E4E7044672
:10393000210500203F4A001C51410391029012E0F2
:10394000E00707D032463B4601990098FCF7F2FCAD
:103950000191009032463B4610461946FCF7EAFCBE
:1039600006460F466410002CEAD10498039B0028F9
:10397000029A0999089806DAFCF7DCFC019B009A88
:10398000FCF7D8FC05E0FCF73DFD019B009AFCF735
:1039900039FD04460E460022284BFCF7CBFD03D828
:1039A0000020C043014607E00022254B2046314657
:1039B000FCF70EFCFCF79EFD102409E0002C0ADB4E
:1039C0000A220023FCF7D3FB079B30321A55641EF2
:1039D00002460A43F2D11122641C079B121B1C19D8
:1039E000119B012B03D0012308430ED10AE00843A9
:1039F00004D0112010900020119077E71098151A2C
:103A00006D1E0BE01098824202DD00236D1C03E066
:103A1000824201DA00236D1E002BEED00698119928
:103A20008260C16030C07EE701FCFFFF104D0000E6
:103A3000000014400000F03F300000000000F043A0
:103A40000000E03FFFB597B00646002518E22528A4
:103A500077D100242746FD49049400E00443761CF6
:103A600032780120203A90400842F7D130782A2855
:103A70000ED00222307801463039092916D804992F
:103A80000A235943303940181443761C0490F1E757
:103A9000189802C804911890002904DA0120400304
:103AA00004434842049002200443761C30782E28B8
:103AB00014D1042004437078761C2A2809D1189860
:103AC000761C80C8189009E00A214F43303FC7197F
:103AD000761C3078014630390929F5D930786C28C0
:103AE00010D006DC4C281AD068280ED06A2817D1CE
:103AF00004E0742813D07A2812D110E00120400588
:103B000004430CE00121090501E0032109050C43F0
:103B10007178814203D1012000052418761C761C9F
:103B20003078119066280BD013DC58287DD009DC42
:103B300000287BD04528F6D04628F4D047281AD153
:103B4000A5E118E0632835D0642870D0652812D12B
:103B50009DE170286CD008DC6728F1D069287BD003
:103B60006E280DD06F2806D1BAE073282ED07528A4
:103B700071D0782859D01A9A199990476D1C7EE116
:103B80006002400F022809D003280DD0042818989D
:103B900001680DD00D60001D189070E11898EA17AB
:103BA00001680D604A60F6E7189801680D80F2E739
:103BB0000D70F0E718986A4601781172001D189090
:103BC0000020507202A80090012005E0189802C859
:103BD000189000200091C04361070DD5002101E03D
:103BE0000199491C0191B94212DA8142F8DB009A2D
:103BF000515C0029F4D10BE0002101E00199491C3E
:103C000001918142FADB019A0099895C0029F5D182
:103C1000019904981A9B471A21463846199A00F0D0
:103C200097FA0199401945180BE04FE02CE113E099
:103C30004EE0009800990078491C00911A9A199951
:103C400090470198401E0190401CF2D12146384611
:103C50001A9B199A10E137E00A2000210090019187
:103C60006002410F022907D0189A01CA1892C217A0
:103C70009446032908D00AE01898C01DC108C9005D
:103C800005C91891944607E000B2C217944604296A
:103C900002D140B2C1178C4600226146944506DA33
:103CA0000A460021404291418C462D2102E0210527
:103CB00004D52B216A461173012103E0E10701D0ED
:103CC0002021F7E7029155E00A200AE0102008E0E1
:103CD000102000900021042004430191082703E0F4
:103CE00008200021019100906002410F022907D0B5
:103CF000189A01CA189200229446032908D008E0B5
:103D00001898C01DC108C90005C91891944603E060
:103D100080B2042900D1C0B200210291210729D527
:103D20001199702906D0009A1021019B4A401A432C
:103D300005D00EE040216A461173012108E061467A
:103D4000014306D030216A46117311995173022143
:103D50000291009A0821019B4A401A430AD1614608
:103D6000014301D1610705D530216A461173012154
:103D70007F1E02911199582904D035A10E910DA9E9
:103D80000D910DE037A1F9E76146019B009AFCF720
:103D9000EEF90E9B8C469B5C0D9A521E0D92137091
:103DA00061460143F0D10D9805A9081A2030019011
:103DB000600703D501200004844300E00127019837
:103DC000874201DD381A00E0002001990090411877
:103DD000029809180498401A0490E00306D421467A
:103DE0001A9B199A049800F0B3F94519002706E0C8
:103DF00003A81A9AC05D199990476D1C7F1C029800
:103E00008742F5DBE0030CD521461A9B199A0498EA
:103E100000F09EF9451904E01A9A3020199990474C
:103E20006D1C0099481E00900029F5DC08E00D98F3
:103E30000D990078491C0D911A9A199990476D1C9B
:103E40000199481E01900029F1DC63E10928010075
:103E50003031323334353637383961626364656600
:103E600000000000303132333435363738394142C2
:103E7000434445460000000000F05AF94519761CFD
:103E80003078002800D0E2E528461BB0F0BD60077E
:103E900000D406271898C01DC108C90048680A68E0
:103EA0000831C30FDB071891190001D09CA108E06D
:103EB000210501D59BA104E0E10701D09AA100E012
:103EC0009AA1430011985B08109165280CD006DC7C
:103ED000452809D046281DD0472841D141E0662811
:103EE00018D067283CD13CE00021112F01DB1120C4
:103EF00000E0781C0191009008A911A8FFF7E8FCE8
:103F0000139905910021119A15927F1C129801971F
:103F1000009150E00120C00703900120019008A902
:103F2000009711A8FFF7D4FC139A14990592002268
:103F3000119B009212981593059A0192002901D0C5
:103F4000104602E0791C40180190381A01D50198FA
:103F500004E04042401E0090781C0190C01B02907B
:103F600043E0012F00DA01270021112F01DD11208C
:103F700000E038460191009008A911A8FFF7A8FCBD
:103F800013990591119A00211298159200910197A9
:103F900021070CD40599B94201DB019900E0019198
:103FA000012904DD159A491E515C302906D0B8421A
:103FB00001DA011D05DA0121029115E00199491E7E
:103FC000EDE7002805DC0099411800910199091AD4
:103FD00003E0019A411C914200DD01910099401AD1
:103FE000401C02900120C0070390200706D40299CC
:103FF0000198814202DB0020C04302900020694604
:10400000C87707AF012103980337C907884224D036
:10401000022011902B201290039800280CDA4042C5
:1040200003902D20129007E00A210398FCF780F8F6
:1040300030317F1E039039701199481E119000296C
:10404000F2DC03980028EFD1791E129808703078BE
:10405000202108404530BF1E387006A8C01BC01D77
:10406000039010980078002800D001200199411891
:104070000298C0170918039809180498401A401E9E
:104080000490E00306D421461A9B199A049800F084
:104090005FF8451910980078002803D01A9A1999EA
:1040A00090476D1CE00324D521461A9B199A049869
:1040B00000F04EF845191CE00098002807DB009935
:1040C0000598884203DD1598405C199901E019991B
:1040D00030201A9A904700986D1C401C009002985E
:1040E000401E0290002804D11A9A2E201999904758
:1040F0006D1C0199481E01900029DDDC05E038782F
:104100001A9A7F1C199990476D1C0399481E0390B9
:104110000029F4DC21461A9B199A0498ACE60000A9
:104120002D0000002B000000200000000000000017
:10413000F8B5044600251E461746880404D405E059
:1041400039462020B0476D1C641EF9D52846F8BDBD
:10415000FFB50446002581B01E46C80301D53027AF
:1041600000E02027880404D505E038460399B047CD
:104170006D1C641EF9D5284605B0F0BD080000008E
:10418000401F0000200001000100000000000000AE
:10419000000000000000000000000000100000000F
:1041A0000001000003000000000000003400C441D2
:1041B0000407F900000000000100000000000000FA
:1041C00000000000000000000800000018000000CF
:1041D000003000000000000000000A400020000045
:1041E00000000A40004000000100000000000A40FA
:1041F0000000010000000A400000020045696768F5
:104200007449525461736B004D6F746F72546173D3
:104210006B0049523A20257525752575257525753C
:1042200025752575257520206D61736B3D307825CA
:104230003032580A005072696E745461736B0049D1
:10424000444C4500546D7220537663000900000011
:10425000704200000000202008000000A838000084
:104260007842000008002020E8240000C038000048
:0842700000000000AAAAAAAA9E
:04000005000000C136
:00000001FF
