:020000040000FA
:10000000E8342020D5000000D9000000DB0000000B
:1000100000000000000000000000000000000000E0
:10002000000000000000000000000000A51B000010
:100030000000000000000000611B0000911F000094
:10004000E30000008D180000E3000000E300000062
:10005000E3000000E3000000E3000000E300000014
:1000600000000000E3000000E300000000000000CA
:1000700000000000E3000000E3000000BD1F0000DE
:10008000E3000000E3000000E3000000E3000000E4
:10009000E3000000E300000000000000000000009A
:1000A000E3000000E300000000000000000000008A
:1000B000E300000000000000E3000000E300000097
:1000C0000348854600F0D4FC00480047BD430000CB
:1000D000E834202003480047FEE7FEE7FEE7FEE79E
:1000E000FEE7FEE7C1000000F8B500242546002920
:1000F00004DA0E46012400214042B141002B04DA0B
:100100001E46002352420125B34100F003FB8C46FA
:1001100017461E46AC4203D0002540428D41AC46F6
:10012000002C02D0002657429E4161463A46334693
:1001300001B0F0BD30B5434351435C18010C130CC2
:100140000D465D432C1980B292B20546554351438A
:100150000A0C09044D1962415843010C000440196E
:10016000514130BD03460B439B0703D009E008C94A
:10017000121F08C0042AFAD203E00B780370401C57
:10018000491C521EF9D27047D2B201E00270401CE5
:10019000491EFBD270470022F6E710B513460A4607
:1001A00004461946FFF7F0FF204610BD30B504465F
:1001B0000020034600E05B1C934203D2E05CCD5C70
:1001C000401BF8D030BDF8B502464A40D40F42007B
:1001D0004B0052085B089A4202D20246084611467A
:1001E0004A0023D0C30D4A00DDB2120EAD1A202DF5
:1001F00035DA49020126490AF6058A19002C00D091
:10020000524220214F1B1146B9402A411018C20DFD
:100210009A4221D0002C17D0012D08DCDA05801A73
:10022000D20F8019D207DBB200F0CFFAF8BDDA05A1
:10023000801A012340001B06C01880185A428018FB
:10024000CA0F1043490007E04908C2071143DA0505
:10025000801A80194008801800F0AFFAF8BD6100DC
:100260000122511A001BF7E70122D2075140AAE7E9
:100270000122D2075040A6E7024670B54A40D30F8C
:10028000DB0740002DD04A002AD0010E140E0002D8
:1002900012020919400A520A8418E501044654431F
:1002A000000A120A2E045043A4194219200CC54317
:1002B000AA18120C0125AD03521C521912047F39E1
:1002C000240400D0521C104301D44000491EC2B285
:1002D0000C06C0092018401C4008802A02D003E008
:1002E000002070BD40084000002900DA00201843BB
:1002F00070BD70B502464A40D50F40004A00ED0778
:1003000040085208002814D0002A12D0C40DD30D82
:1003100041020120C0055202490A520AE41A091892
:1003200012187D34914201D3641C00E04900002C76
:1003300001DA002070BD0023914201D3891A0343E2
:10034000400849000028F7D100290AD0914202D183
:100350000121C90705E0914201D2012101E00121FB
:10036000C943E005C018401900F027FA70BD00002D
:10037000F0B507460846584087B0C00F04904800C3
:100380000E46590040084908BC1A884105D2384633
:1003900031461E4617460B46024658004008104399
:1003A0004CD0300D039040055900400D490D05908B
:1003B000401A0290402872DA18030121000B090547
:1003C0000843019004980092002805D001995242F8
:1003D0000020884100920190029840210A1A019958
:1003E000009800F0C7F905460C466B4607CB00F0B5
:1003F000D1F9C0197141039A0E0D0023D717564049
:100400001A467A40164344D0049A002A2DD0029A04
:10041000012A039A15DC1205C01A914101263605FE
:10042000001C7141D20F059ED207009301920296E3
:100430002A46234600F01BFA07B0F0BD3846314685
:10044000FAE71605224A0F46B218C01AB741012131
:100450000905001C4F4100187F41114618187941C9
:10046000E20F10436D19644113E0E2076D08154374
:100470006408C2071443039A01261205C01A914169
:100480003605001C7141CE07400830434908C018AA
:1004900051412A46234600F0DDF9CDE7FFE70498F5
:1004A00001224000C117121A00238B4104983146E3
:1004B000C417381AA141EEE730B40124E4076340C1
:1004C00030BC55E730B40124E407614030BC4FE74D
:1004D0000000E0FFF0B51FB488B00B990998002424
:1004E00048400999C00F490049080991C0070B9974
:1004F0000090490049080B9109990898A6460843BD
:100500001CD00B990A98084318D009980124400080
:10051000420D4800410D099824050003000B2043BB
:1005200009900B980003000B20430B9050181C49B6
:100530004018002201901446104605E000200146B4
:100540000DB0F0BD032801DA034600E003239C460A
:10055000C11A0AAE0AE05F0008ADED5B4F00F75B21
:100560007D430027AA187C41491C5B1E6145F2DDD2
:10057000410004AB5A522104120C0A43240C401CC3
:100580000828DFDB019802900099704601910090E5
:10059000059B049A0799069800F069F9D0E70000D6
:1005A0000DFCFFFF0122D207002800DB101A0029F2
:1005B00000DB511A814201D80120704700207047AA
:1005C0000122D207002800DB101A002900DB511A93
:1005D000814201D201207047002070470122D207DA
:1005E000002800DB101A002900DB511A814201D3D8
:1005F00001207047002070470122D207002800DB4D
:10060000101A002900DB511A814201D901207047DC
:10061000002070470122D207002800DB101A0029B1
:1006200000DB511A814201D1012070470020704740
:10063000C217C10F504010B54018CA0796230021B9
:1006400000F0C3F810BD10B500229623114600F04B
:10065000BCF810BDC20F410040020123400ADB0577
:10066000D207090EC0187F2901DA002070479629A9
:1006700003DC9623591AC84001E096398840002AC5
:10068000F4D04042704770B50446002903D00020E2
:100690002022012310E0002801D00020C043C046E2
:1006A000C0460DE02546D5408D4205D30D46954008
:1006B000641B1D46954040191546521E002DF1DC65
:1006C000214670BD70B5002504462E46002911D084
:1006D000002C01DA01254442002901DA01264942B1
:1006E0002046FFF7D0FFB54200D04042002D00D099
:1006F000494270BD002C02DA0121C90702E0002C3A
:1007000000DD03490846C046C046214670BD0000D2
:10071000FFFFFF7FF0B51FB40646002082B00546FC
:100720004024019100901BE0019922460F4630467B
:1007300000F0B6F9049A059B801A994110D310462F
:100740001946224600F016F8361A8F4101972246C4
:1007500001200021009F00F00DF838184D41009055
:100760002046641E0028DFDC019B009829463246A3
:1007700007B0F0BD10B5202A04DB0146203A9140B5
:10078000002010BD914020239C1A0346E3401943EA
:10079000904010BD10B5202A06DBCB170846203A42
:1007A0001041C1170B4306E00B461341D0402024F3
:1007B000A21A91400843194610BD002904DA401CD2
:1007C000490001D140084000704770B40024050C76
:1007D00005D11024000402D1002921D01124050ED6
:1007E00001D100020834050F01D10001241D850F3D
:1007F00001D18000A41C002801DB4000641C0029FA
:1008000008D020252E1B0D46F540A14000D0012127
:100810002943084301061B1B000ADB1D02D50020EB
:1008200070BC7047DB05181880180029F8DA401CE6
:100830004900F5D170BC400840007047420005D027
:100840004200120E52428A4201DB00207047C90565
:100850000818704710B5002B08DA0024401C6141CD
:1008600092185B411A4301D14008400010BDF0B519
:100870001FB482B005460C0003D0084608F014F9F6
:1008800002E008F011F92030024600902146284687
:10089000FFF770FF049B059A04460F461843114367
:1008A000084314D0184610431BD0009840210A1A60
:1008B0001846059900F0F4F805460E46009A059989
:1008C0000498FFF757FF084305D0012004E02046B5
:1008D000394607B0F0BD0020C11705430E432C4335
:1008E000374300990E986305401A7905E40A0022FF
:1008F0000C43FD0A0A3002D500200146E9E7010554
:10090000101969410C9C0D9D00196941FFF7A2FF68
:10091000DFE70000F0B50C465C4085B0E40FE4076B
:1009200003944C0000266408590094464908024686
:100930000296224321D062460A431ED06200570D20
:100940004A000E032303550D012402462C492405B9
:10095000781B1B0B360B401823432643614600903F
:100960001C46501AB44103D30098401C009002E08A
:10097000921800985B41002803DA0020014605B078
:10098000F0BD0020012109050746864611E06446B6
:100990001D46141BB54106D36546521BB341744630
:1009A00007430C43A646CD07400849082843921840
:1009B0005B4105460D43EAD11046184313D060460B
:1009C000194650407140084306D06046101AB341A2
:1009D00006D20122002306E000220123DB0702E009
:1009E0000122D2435310009874460105381C61411E
:1009F000029C039D00196941FFF72CFFBFE700002F
:100A0000FD0300004A0009030123090B1B051943DC
:100A10000A4B10B5520D9A4202DA0020014610BD71
:100A2000064B34339A4203DC9A1A00F039F810BDB1
:100A3000034BD218FFF79EFE10BD0000FF0300001D
:100A4000CDFBFFFF10B5002904DB0124E407404281
:100A50008C412146002B04DB1C460123DB0752425C
:100A6000A341994200D1904210BD00000000000057
:100A70001CB5094800900948019005460126009CD4
:100A800005E0E36807CC33430C3C98471034AC4294
:100A9000F7D3FFF719FB000020A5000040A50000D8
:100AA00010B5202A04DB0846203AD040002110BDB2
:100AB0000B46D340D0402024A21A91400843194647
:100AC00010BD70B5002801DC002070BD410040025F
:100AD0000126400AF605090E8019CA0701D1400017
:100AE000491E4D10002211463F353346CB409B181E
:100AF000D418844201D8001B1A464000491C17290B
:100B0000F3DD5100814202D20021C94300E00021FF
:100B1000E8058018FFF751FE70BD811E091F00BF58
:100B2000FCD2704784B00390029101920398006850
:100B30000090009801998843009000980299019ACA
:100B4000114008430399086004B0704784B00390D3
:100B500002910192039800680090009801998843DF
:100B6000009000980299019A114008430399086087
:100B700004B0704782B001900091009B0199D64A61
:100B800088581843885002B07047C04682B0019020
:100B90000091009B0199D04A88581843885002B0B0
:100BA0007047C04682B0019000910098019995224B
:100BB0005201885002B0704782B0019000910098B5
:100BC000019995225201885002B0704782B001907D
:100BD00000910098019995225201885002B0704707
:100BE00082B001900091009801999522520188509D
:100BF00002B0704782B0019000910098019995224F
:100C00005201885002B0704781B000900098810076
:100C10006E4A885801235B061843885001B070471C
:100C200081B0009000988100684A885801235B06D3
:100C30001843885001B0704782B001900091009B2A
:100C40000199034A88581843885002B07047C0463B
:100C50002810000082B00190009100980199074A85
:100C6000885002B07047C04682B001900091009851
:100C70000199024A885002B07047C046D012000065
:100C800081B0009000990120C202AF48885001B0A5
:100C90007047C04682B001900091019802494058C7
:100CA0000099084002B070473810000010B584B0B9
:100CB000069C0390029101920093029801990843C7
:100CC00000990843069908430E490843039989008F
:100CD0003E4A885004B010BD10B584B0069C039005
:100CE00002910192009302980199084300990843E8
:100CF000069908430349084303998900334A8850F9
:100D000004B010BD8100040081B000900098810003
:100D10002E4A8120885001B07047C04681B00090B3
:100D200000988100294A8120885001B07047C04650
:100D300082B00190009100981D49084301998900F3
:100D4000224A885002B0704710B584B0079C069CB8
:100D5000039002910192009302980199084300992F
:100D60000843069908430799084311490843039922
:100D70008900164A885004B010BDC04610B584B032
:100D8000079C069C0390029101920093029801999E
:100D90000843009908430699084307990843044902
:100DA000084303998900094A885004B010BDC04621
:100DB0008000040082B001900091009880210843D7
:100DC00001998900014A885002B07047048042406E
:100DD00082B00190009101982721C90140580099E3
:100DE000084002B0704782B001900091019827211D
:100DF000C90140580099084002B0704782B0019084
:100E0000009101982721C90140580099084002B07B
:100E10007047000081B0009000998D4A8D4888503D
:100E200001B0704782B001900091009B0199034A84
:100E300088581843885002B07047C046901300008D
:100E400082B00190009100980199114A885002B037
:100E50007047C04682B001900091009801990C4AF9
:100E6000885002B07047C04682B00190009100984F
:100E70000199074A885002B07047C04682B001907D
:100E8000009100980199024A885002B07047C0460C
:100E90009012000082B001900091009B01999D206A
:100EA000420188581843885002B0704782B00190C0
:100EB000009100980199024A885002B07047C046DC
:100EC000B012000082B00190009100980199024A8E
:100ED000885002B07047C0464810000081B00090B2
:100EE000009909204202885801231B0218438850A8
:100EF00001B0704781B000900099084A88580123DA
:100F00001843885001B0704781B000900099034A9F
:100F1000885804231843885001B0704728120000F5
:100F200081B0009000990120C2020748885001B0AA
:100F30007047C04681B0009000990120C20202486B
:100F4000885001B07047C0460100002610B5002A45
:100F50000FD091235B01C3180020DC692405240F06
:100F600005D00C5C1C60401C8242F6D1104680B259
:100F700010BD002080B210BD604A83580121C90312
:100F80000B438350801842681207FCD102688A43E1
:100F900002607047594A835880210B438350801860
:100FA0000F221202436813400122D2029342F7D16A
:100FB00002688A430260704781B00090009802493D
:100FC000405801B07047C0461812000082B001902E
:100FD00000910198024940580099084002B07047BA
:100FE0003010000082B0019001980449405802215D
:100FF000084000906846007802B070473412000044
:1010000081B000900098044940580F2108404142A7
:10101000484101B07047C0463C12000081B00090CA
:10102000009802494058C0B201B070471C1200003D
:1010300081B000900099064A0648885001B0704778
:1010400081B000900099024A0248885001B0704770
:1010500004080000030000B181B000900099404AEC
:101060000020885001B0704780B584B001910146DE
:101070000198039102A9088003980922520280185E
:10108000098803225202FFF74DFD04B080BD70B500
:101090000A780C231A400124240305196E689E4324
:1010A000B2186A60497807221140035993435918CE
:1010B000015170BD80B584B0019101460198039142
:1010C00002A9088003980D4A801809880722120295
:1010D000FFF728FD04B080BD80B584B001910146C2
:1010E0000198039102A908700398044A80180978AE
:1010F0000722FFF717FD04B080BDC046381200007C
:1011000082B001906846017000780199014A8850C8
:1011100002B070472412000010B586B0019202465A
:1011200001980592049103AA107002A80380059803
:10113000094940180499490012781143074AFFF7FA
:1011400005FD05980649401802990904C91D054A7C
:10115000FFF7FCFC06B010BD10120000FF070000F6
:10116000141200000700FF0FF0B584B00124220222
:10117000344B19680392914319605C490D686D0402
:10118000FCD5457E25409E69A64374199C612024A8
:10119000045D03252C40DE69AE433419DC611F4C2D
:1011A000256805262660466A37681F6276685E6293
:1011B00007262E402660C4697F252D02DE69AE43D6
:1011C0006406640C3419DC61076845688268009223
:1011D000C66802690192426902929A69104C1440F1
:1011E0003A07120B2D03ADB2AA183243009D2D070A
:1011F0002D0D1543019A1543029A1543007E28438D
:10120000084A0240101998611868039A1043186040
:1012100008688005FCD504B0F0BDC046001340400E
:101220008D00F0FF72FF0F0006490868012290430D
:101230000860704703490868012212029043086061
:101240007047C04608010B40274908680122120375
:10125000104308607047C046244800687047C04685
:1012600081B001466846017000780249086001B00B
:101270007047C04608030B4080B582B0014601A804
:10128000018001880F2002021748FFF74BFC02B0D3
:1012900080BDC04680B582B0014601A801700178CA
:1012A00002480322FFF73EFC02B080BD00010B4064
:1012B00080B582B0014601A8017001780A48302249
:1012C000FFF730FC02B080BD07498860074802681C
:1012D0009202FCD5012212040B6813430B600168D3
:1012E000C906FCD57047C04604010B4004020B4000
:1012F00081B000900099F64A0120885001B07047F3
:1013000081B0009000990120C202D448885001B0F9
:101310007047C04681B0009000980321C902405830
:1013200001B07047F0B5BA4A82183B4BC318087930
:101330004E793A4D764C002E23D0202804D0052635
:10134000F601002803D003E0354E002800D188269E
:10135000576F2F4037435767976F2F403743976733
:10136000566B26405663966B26409663002656655C
:1013700096658F26F6435F6837405F609F68374009
:101380009F608E79096820280BD0002819D1491E4A
:101390005160D76E2F4088210F43D76617467037AC
:1013A00019E0491E5160D16E29401D4F3943D16665
:1013B000116F29403943116701214907194D17461B
:1013C00009E049085160D76E2F400521C9010F433C
:1013D000D766174670373C682C400C433C60D16A96
:1013E0004B4C2140D162116B214011630021D1642B
:1013F00011658F21C943D46F0C40D4671C680C4021
:101400001C600643BD2030401168074B0B40C018DC
:10141000801C1060F0BDC0468418000024493E00C6
:1014200001040000FFFFFFCF4000FFCFB0B54A68C6
:101430006C4BC250764A80180A78222A58D89300FA
:1014400001A4E3589F46C046E7140000F1140000D1
:10145000E7140000F1140000F1140000F114000082
:10146000F1140000F1140000F1140000F114000068
:10147000F1140000F1140000F1140000F114000058
:10148000F1140000F1140000D5140000F114000064
:10149000D5140000F1140000F1140000F114000054
:1014A000F1140000F1140000F1140000F114000028
:1014B000F1140000F1140000F1140000F114000018
:1014C000F1140000F1140000D5140000F114000024
:1014D000D514000003231B0704689C4301235B070A
:1014E000E318036004E003231B0704689C430460C3
:1014F0000B69C360CB68054C1C40C36A044D1D409A
:101500002B19C362097A11430160B0BD77770200DD
:101510008888FDFF81B000900099774A774888500D
:1015200001B0704782B0019000910098019911229A
:101530001202885002B0704710B507239B0419406F
:1015400092008018024A84589C436118815010BD53
:101550003018000010B5029CA40000191143194373
:10156000014A815010BDC0465018000092008018FA
:10157000014A81507047C0461018000010B5012282
:10158000120383180C789C604B7883508978014A49
:10159000815010BD0C11000010B586B001930B46B0
:1015A00001460198059104A90B8003AB1A8002AA99
:1015B00010800598164C001909881B881943128859
:1015C0001143024AFFF7AEFA06B010BD80FF0000DB
:1015D00082B00190009100980199024A885002B0AF
:1015E0007047C0460818000082B001900091009832
:1015F00001990322D202885002B0704781B0009056
:101600000099034A885801231843885001B0704755
:101610000418000081B0009000991120020288583F
:1016200001231843885001B07047000082B0019038
:101630000091009B0199034A88581843885002B0D2
:101640007047C0462810000081B00090009901202A
:10165000C2020248885001B07047C046010000260F
:1016600081B000900098812149014058C0B201B07A
:1016700070470000B0B51122120283580124A34321
:1016800083500B888C781C438B882343094C1C4067
:101690008358094D1D40631983508B79CC791C43C5
:1016A000097A21437E231940801842689A435118D1
:1016B0004160B0BD18670000E798FDFF81B0009061
:1016C0000098034940580121084001B07047C046C6
:1016D0000811000081B00090009802494058C0B243
:1016E00001B070472411000081B000900099024AB7
:1016F0000248885001B0704704080000030000B1A0
:1017000080B584B003900291019203980B49401870
:1017100002990B4AFFF706FA03980A494018019903
:101720003F22FFF7FFF90399074A881889580122D9
:101730001140FFF7F7F904B080BDC046101100005A
:10174000FFFF0000141100000411000010B5012279
:10175000120383180C789C604978815010BD80B5C5
:1017600082B001900091019811210902401800995E
:101770000322D203FFF7D6F902B080BD82B00190F8
:10178000684601700078019989225201885002B0A0
:101790007047000080B582B06B460020187068204A
:1017A0007521012202F01AF9002805D1FFE76846E9
:1017B0000078682804D0FFE70020C04301905FE074
:1017C00003F054FA002804D0FFE70020C043019042
:1017D00056E0782004F02CFA002804D0FFE700201F
:1017E000C04301904CE0782003F0AAF8002804D010
:1017F000FFE70020C043019042E0C82004F0A2F9B6
:10180000002804D0FFE70020C043019038E000F03A
:10181000D5FF002804D0FFE70020C04301902FE04F
:10182000194802F035F901F03DFA002804D0FFE72D
:101830000020C043019023E0FF20743000F02EFE12
:10184000002804D0FFE70020C043019018E0C82022
:1018500001F040F9002804D0FFE70020C0430190C8
:101860000EE005F0B1FB012003F0F8FF002804D0E2
:10187000FFE70020C043019002E000200190FFE755
:10188000019802B080BDC0460800202080B582B01B
:1018900015488021FFF7FEF9019001A800780006A5
:1018A00000281ED5FFE7002000900F488021FFF799
:1018B0006DF90E480068002812D0FFE70B48006859
:1018C00000216A4605F096FFFFE70098002805D042
:1018D000FFE70120000706490860FFE7FFE7FFE791
:1018E000FFE702B080BDC04600000A40641220201D
:1018F00004ED00E010B584B014460A46014603A882
:10190000017002A90A7001AA147000930078097886
:101910001278009B02F0B4FE411E884104B010BD55
:1019200010B588B00C46014606A8017005A90C70D8
:1019300004AC227003AA137000780978012202AB6C
:1019400002F09EFE002804D0FFE707A901200870DE
:1019500025E003A80078002809D0FFE702A8007856
:1019600004A90A78012191400843019008E002A8E7
:10197000007804A90A780121914088430190FFE78B
:10198000019802AB187006A8007805A90978012211
:1019900002F014FF411E884107A90870FFE707A85D
:1019A000007808B010BDB0B588B014460D460146A9
:1019B0000C9A06A8017005A90D7004AD2C7003AC3B
:1019C000237002AB1A7000780978012201AB02F093
:1019D00057FE002830D1FFE704A80578691CFF23D3
:1019E0001A468A4003A90C78641BE41DE3401A439D
:1019F0006B461A700A780821891A029A8A4002A94D
:101A00000A7002780720821A0878D040087000997E
:101A10000198084001AB18700299019808431870AA
:101A200006A8007805A90978012202F0C7FE411E28
:101A3000884107A9087003E007A901200870FFE7A3
:101A400007A8007808B0B0BD80B582B0054B0193FF
:101A5000682075210122FFF74DFF0198007802B040
:101A600080BDC0464900202080B582B0FFF7ECFF62
:101A7000682804D0FFE70020C043019015E0022051
:101A800000F016F8032000F031F80020009000F07C
:101A90001EF8009800F053F8009800F043F8009802
:101AA00000F033F800980190FFE7019802B080BD84
:101AB00080B582B0014601A80170007800906820CE
:101AC0006B2102220323FFF76EFF02B080BD80B5B9
:101AD00082B0014601A801700078009068201C21A6
:101AE00004220223FFF75FFF02B080BD80B582B001
:101AF000014601A801700078009068201B21042293
:101B00000223FFF750FF02B080BD80B582B00146CE
:101B100001A801700378682037210122FFF700FF38
:101B200002B080BD80B582B0014601A80170037883
:101B300068206A210522FFF7F3FE02B080BD80B560
:101B400082B0014601A80170037868206B2106224B
:101B5000FFF7E6FE02B080BD0000000000000000BC
:101B6000EFF309800E4B1A6820381060F0C044462D
:101B70004D4656465F46F0C008B572B605F062FFA6
:101B800062B60CBC116808681030F0C8A046A946BF
:101B9000B246BB4680F309882038F0C81847C046D3
:101BA0006C2C20207047000080B58EB00E200821DC
:101BB0000291FFF7FFF8F2480D900421FFF74AF871
:101BC00002990F200B90FFF7F5F802990D98FFF797
:101BD00041F800230693019301200C90C004079064
:101BE00000900321039118461A46FFF7ADF80399B8
:101BF000069B079A0C98019300921A46FFF7A4F8E7
:101C00000698FFF701F80C98FEF7FEFF142002215A
:101C10000491FFF7CFF804991520FFF789F806998A
:101C2000079B0C980091420405923020FFF73EF884
:101C3000069A079B009227201146FFF737F81920D4
:101C4000FFF762F81E20FFF75FF8059A0699079BD9
:101C500000910D20FFF72AF82520FFF755F82620E0
:101C6000FFF752F82220FFF74FF82320FFF74CF838
:101C7000069A079B00923A201146FFF717F8069A3A
:101C8000079B009236201146FFF710F8069A079B33
:101C9000009233201146FFF709F8069A079B00923D
:101CA0002F201146FFF702F81F20FFF72DF8202004
:101CB000FFF72AF82A20FFF727F8069A079B0092D9
:101CC0002B201146FEF7F2FF1B2041030891AB4881
:101CD0000990FEF767FF08990998FEF7BBFF09987E
:101CE0000C99C903FFF79EF8099880210A91FEF725
:101CF00041FF09980A99FEF79FFF0B990D988903F8
:101D0000FEF750FF0C990D984902FFF799F80D98CE
:101D10000449FEF79FFF0C990D988902FFF7BAF866
:101D20000EB080BD00C2030080B582B01249974852
:101D30000190FFF7ACF9019803214902FFF794F9EC
:101D40000198FFF7CBF80198FFF786F90198092170
:101D5000FFF7D6F9019800210091FFF7BDF900992E
:101D60000198FFF7A7F90198FFF7CEF80198FFF760
:101D7000C1F802B080BDC046DEA3000080B584B0CB
:101D80001E4980480390FFF7F9FB03981C49FFF7B1
:101D9000C9FA03980023019319461A46FFF7FCFB82
:101DA000019B0398009319461A46FFF7D3FB019A4B
:101DB00003981146FFF7C0FB019A03981146FFF7FD
:101DC000D5FB019B039801210291009119461A4607
:101DD000FFF7C0FB0199029A0398FFF7ADFB019949
:101DE000029A0398FFF7C2FB0398FFF781FA039862
:101DF0000321FFF797FB04B080BDC046E0A30000BD
:101E0000E4A3000080B5FFE7FFF726FA0349084086
:101E1000884201D0FFE7F7E780BDC046000A2000F6
:101E200080B582B000200090FFF71AFA01200190DF
:101E30004002FFF721FA0098FFF72CFAFFF7F4F9B8
:101E4000FFF7F8F90848FFF78FF91020FFF730FA8D
:101E5000FFF7FAF90098FFF737FA0198022100F02E
:101E60001DF902B080BDC046ECA3000080B582B071
:101E7000064945480190FFF781FB01980449FFF7A7
:101E8000D5FA0198FFF734FA02B080BD14A400001F
:101E900018A4000080B582B00F4952480190FFF7A6
:101EA00055FC01980D49FFF7E5FB01980021FFF76C
:101EB00056FC019815212D22FFF722FC01980121E3
:101EC0008902FFF7B3FB0F20032100F0E7F8019828
:101ED000FFF7A0FB02B080BD2CA400002EA40000E0
:101EE00080B500F019F8FFF75FFEFFF799FFFFF7E5
:101EF00045FFFFF7BBFFFFF717FFFFF7CBFFFFF72C
:101F000081FF0349B822002088540249885480BDCB
:101F10004C0520200806202080B586B01748009088
:101F2000FEF778FFC4480190FEF774FF1548029051
:101F3000FFF7F0FA14480390FFF7ECFA1348049007
:101F4000FFF776F827480590FFF7CEFB0098FEF7DD
:101F500097FE0198FEF794FE0298FFF7D1F90398D7
:101F6000FFF7CEF90498FEF7DBFF0598FFF76CFB4F
:101F70001020FEF7D2FD06B080BDC04600000A402A
:101F800000200A40002086400000864000000F40EC
:101F900080B582B005F0FEF9019006F007FB00283D
:101FA00005D0FFE70120000703490860FFE701981B
:101FB00005F0A5FA02B080BD04ED00E010B50948B7
:101FC000FFF74EFB0B280CD1FFE70648FFF782FB1B
:101FD000ED4980240A59531C0B51885400F0C0F974
:101FE000FFE710BD0080104081B0014668460170D7
:101FF00000214056002809D4FFE7684601781F20D9
:1020000001400120884002490860FFE701B07047A5
:1020100080E200E081B00146684601700021405630
:1020200000280DD4FFE7684601781F2001400120F9
:10203000884004490860BFF34F8FBFF36F8FFFE7FD
:1020400001B0704780E100E081B001466846017050
:1020500000214056002809D4FFE7684601781F2078
:102060000140012088400C490860FFE701B070473B
:1020700081B001466846017000214056002809D40D
:10208000FFE7684601781F2001400120884002498F
:102090000860FFE701B0704700E100E070B582B072
:1020A000024601A80270009100214056002816D473
:1020B000FFE7002401A908570322D3431840174A19
:1020C000805809578C07E50EFF24AC40A043009CC4
:1020D000A401E4B2AC402043194088501AE001A9A1
:1020E00008780F24204008380322D34318400A4AB6
:1020F0008058002549578D07EE0EFF25B540A843AF
:10210000009DAD01EDB2B54028432140083919408A
:102110008850FFE702B070BD1CED00E000E400E075
:1021200080B58AB00990089100200090069003A81D
:1021300001F0F4F800980790FFE70798022856DCB2
:10214000FFE7099807998A00805808998958401A2A
:10215000C1174840401AFEF76BFA8F21C905FEF7F8
:10216000C8F802900798810003A840580021FEF7A4
:1021700051FA00281ED1FFE7029807998A0003A9A7
:102180008958FEF7B6F81C49FEF71DF80190019832
:102190000121C90788431749496AFEF703FA002855
:1021A00007D1FFE707980121814006980843069070
:1021B000FFE717E002980F49C969FEF701FA002806
:1021C00008D1FFE702980B49096AFEF7EBF90028EE
:1021D00007D1FFE707980121814006980843069040
:1021E000FFE7FFE7FFE70798401C0790A5E7069881
:1021F0000AB080BDF4A40000000080BF80B50F4984
:102200000120087041020C48FEF7D6FC80BDC04694
:1022100080B582B001204102019107480090FEF78D
:1022200045FE00980199FEF7D3FD4142484103491C
:10223000087002B080BDC04600200A40480020203F
:1022400080B584B002900191009202980099FEF747
:10225000A9F9002803D1FFE7009803900CE0029849
:102260000199FEF7BBF9002803D1FFE7019803901D
:1022700002E002980390FFE7039804B080BD0000DD
:1022800082B0009000981F49884205DBFFE77D205F
:10229000C00001A908800CE000981B49884204DCBA
:1022A000FFE701A91948088003E0009801A9088008
:1022B000FFE7002101A8405E02B0704782B00146EE
:1022C000684601800021405E0E49884205DBFFE739
:1022D0007D20C00001A908800EE000216846405E14
:1022E0000949884204DCFFE701A90848088003E0A7
:1022F000009801A90880FFE7002101A8405E02B014
:102300007047C046E903000017FCFFFF18FC0000FF
:1023100080B582B00B48FEF74FFE014601208907C9
:102320000029019009D4FFE70920C1010548FEF703
:102330004DFE411E88410190FFE7019801210840B0
:1023400002B080BD00000F4080B582B00F20019028
:10235000FFF74AFE0198FFF777FE02B080BD00004C
:1023600081B00948802140587F2806DBFFE70649F5
:10237000802200208850009002E001200090FFE7BA
:10238000009801B07047C0465800202080B586B044
:1023900005900598C078C021084003A908700598E9
:1023A000C0783F21084004A9087005984078C0070C
:1023B000002819D0FFE704A80178C90802AA117003
:1023C000007807210840401C01A90870D048006827
:1023D000002808D0FFE7CE48026802A8007801A9CB
:1023E00009789047FFE7FFE7059840780007002845
:1023F0000DD5FFE7C6484068002807D0FFE7C4486E
:10240000416803A8007880098847FFE7FFE70020BC
:1024100006B080BD80B582B001900198002815D02B
:10242000FFE701990A480090FFF7D2F80098019958
:10243000FFF7DAF80098FFF7E1F8FFE70448FEF746
:1024400069FF002801D0FFE7F8E7FFE702B080BD91
:102450000000864080B582B0014601A80170007876
:1024600000280AD0FFE7694620200870282048701D
:10247000302088703820C87002E006480090FFE7DE
:10248000054804216A4603F06BFC02F0DBFE02B053
:1024900080BDC046A3A3A3A39E0A000080B58AB056
:1024A00009A90591088006AA049202201070CA208A
:1024B0005070E32090700920D0706820042103F050
:1024C0004FFC049A0598A32111700088400600284B
:1024D00008D5FFE706A9C0204870C8208870C22030
:1024E000C87005E006A9A32048708870C870FFE78F
:1024F00009A80088C005800F002808D0FFE706A9BA
:10250000C4200871CC204871C620887105E006A956
:10251000A320087148718871FFE706AAA320D07133
:102520001072507275480A2103F01AFC09A800883D
:102530008007002804D0FFE706A92020087003E0E8
:1025400006A9D8200870FFE76D48012106AA03F00C
:1025500007FC09A800888006002804D5FFE70120B1
:1025600000F0D8F803E0002000F0D4F8FFE709A855
:102570000088C005800F002820D0FFE709A8008848
:10258000C00500280AD5FFE706A9B22008708B20F5
:102590004870B62088709B20C87009E006A9B0205A
:1025A000087080204870B42088709020C870FFE7C1
:1025B0005448042106AA03F0D3FBFFE709A80088CA
:1025C000C007002826D0FFE706AAF82010708B204D
:1025D00000010121039103F0C3FB07200290FA21BF
:1025E00000F0C6FC029800F06DFC039800F09DFC22
:1025F000642000F0D9FD7D20800000F0EDFD424810
:10260000C82100F00BFC282000F02AFC0A2000F072
:1026100040FC08E006AAD82010708B2000010121A0
:1026200003F09EFBFFE709A800888007002804D577
:10263000FFE706A9D920087003E006A9D820087092
:10264000FFE73248012106AA03F08AFB09A80088A7
:102650004007002804D5FFE7012000F08BF803E0D5
:10266000002000F087F8FFE709A80088C0060028CE
:1026700004D5FFE70120FFF7EDFE03E00020FFF7A0
:10268000E9FEFFE7099808210843CE4901914881F6
:1026900002F0D8FD01990020887309A8008840063F
:1026A000002805D5FFE7C749887B801D8873FFE7B1
:1026B00009A80088C005800F002805D0FFE7C149A0
:1026C000887B801D8873FFE709A8008814210842D1
:1026D00005D0FFE7FE49887B10308873FFE709A823
:1026E00000888007002805D0FFE7F949887B001D96
:1026F0008873FFE700200AB080BDC046A70A00002B
:10270000B60A0000A20A000009E3CA023D07000061
:10271000DC00202080B588B0014606A80170007852
:1027200000280ED0FFE703AA5D2010720F48049026
:102730000F4803909720C000092103F011FB079078
:102740000DE06A46C72010720648019006480090C6
:102750009720C000092103F003FB0790FFE70798CB
:1027600008B080BDB088C3C5B8AAAAAAB4980D3570
:10277000B8AAB38D80B582B0014601A80170007877
:1027800000280AD0FFE76946C0200870C2204870C0
:10279000C4208870C620C87002E006480090FFE799
:1027A000054804216A4603F0DBFA02F04BFD02B053
:1027B00080BDC0468B8B8B8B980A000080B5044986
:1027C000012082020348C82302F04AFB80BDC046B4
:1027D000E8970000F60B000010B594B0179C169C0B
:1027E0001290119110920F9306A90020087016996B
:1027F0000880DD48807B179A07A902F04BFC00286F
:1028000004D0FFE70020C0431390D7E0D6484089AA
:10281000142108426CD0FFE70798000607A9009131
:102820004A78120480188A7812028018CA788018B0
:10283000109A1060089800064A79120480188A7964
:1028400012028018CA798018109A50600998000600
:102850004A7A120480188A7A12028018CA7A80187A
:10286000109A90600A9800064A7B120480188A7BAE
:1028700012028018C97B40181099C8600698103061
:1028800006A9087010980221405E02901098062157
:10289000405E039010980A21405E049010980E212B
:1028A000405E0590029840430399494340180499BB
:1028B00049434018059949434018019001980F2158
:1028C0000906884205DBFFE701983F49884208DB9B
:1028D000FFE702F0B7FC169900200880C043139070
:1028E0006CE0169908880122120210430880FFE765
:1028F000EA4840894006002823D5FFE706A9087862
:1029000007AA1318105C00025B78C018119B18808E
:102910000878831898780002DB78C018119B5880DB
:10292000087882181079000252798018119A9080E4
:102930000698801D087016990888082210430880A0
:10294000FFE7D6484089C005800F002823D0FFE765
:1029500006A9087807AA1318105C00025B78C01853
:10296000129B18800878831898780002DB78C018CA
:10297000129B5880087882181079000252798018CA
:10298000129A90800698801D087016990888702207
:1029900010430880FFE7C14840898007002807D01E
:1029A000FFE706A8017807A84018FFF7EFFCFFE74C
:1029B0000F9803F02BFA00201390FFE7139814B040
:1029C00010BDC046DC0020200100001180B58CB095
:1029D0000B9001A8009002F047F800980088C0030F
:1029E0000021039102900B99AC4802899207120FC3
:1029F0008958089100894007002804D5FFE7089806
:102A000040420890FFE70B99A448028952080C2322
:102A10001A408958099100898006002804D5FFE7EB
:102A2000099840420990FFE70B99FB480289120977
:102A30000C231A4089580A910089C005002804D542
:102A4000FFE70A9840420A90FFE70898C117029AE8
:102A5000039BFDF76FFB8900800F401808900998D1
:102A6000C117029A039BFDF765FB8900800F401890
:102A700009900A98C117029A039BFDF75BFB890036
:102A8000800F40180A9008A8C17805AA11704188E3
:102A900051700899090A91700899D170C179117122
:102AA000C18851710999090A91710999D171C17A45
:102AB0001172408950720A98000A90720A98D07276
:102AC000A52080000C2103F04BF90CB080BDC0465E
:102AD000DC00202080B588B0014606A801801D4991
:102AE00005911D4904911D4903910088C92804DB03
:102AF000FFE70020C043079029E006A80188C8200E
:102B0000FDF7C1FD411E02A8018040786A461070A1
:102B1000029850701248022103F022F9002804D0D4
:102B2000FFE70020C043079011E00E480C2103AAE4
:102B300003F016F9002804D0FFE70020C0430790F7
:102B400005E00698B449888100200790FFE70798C0
:102B500008B080BDBBAFDFDFAAF1DFDFFEF2ABC4A0
:102B600016020000C10A0000DC00202080B588B0F9
:102B700006900699A84802899207120F8958039176
:102B800000894007002804D5FFE7039840420390DE
:102B9000FFE70699A048028952080C231A40895879
:102BA000049100898006002804D5FFE7049840427C
:102BB0000490FFE706999848028912090C231A40ED
:102BC000895805910089C005002804D5FFE70598BC
:102BD00040420590FFE70398C117314A0092002355
:102BE0000193FDF7A7FA009A019B8900800F401816
:102BF00003900498C117FDF79DFA009A019B890084
:102C0000800F401804900598C117FDF793FA8900CA
:102C1000800F4018059003A8C17802AA117040885F
:102C200050700398000A90700398D0703D20000106
:102C3000042103F095F8002804D0FFE70020C043EA
:102C4000079028E003A8C17902AA1170C0885070CB
:102C50000498000A90700498D070F5208000042138
:102C600003F07EF8002804D0FFE70020C04307905F
:102C700011E003A8C17A02AA11704089507005982A
:102C8000000A90700598D0707B20C000042103F0EA
:102C900067F80790FFE7079808B080BDDC002020A8
:102CA00009E3CA02B0B588B006AB188003AC6C204B
:102CB000A0705248208002A82C21817050490180C8
:102CC00001AA762191704F4911806A466621917060
:102CD0004D4911801A8803210A40A55C05AA157088
:102CE000069DED06AD0F655D5570069D2D06AD0F79
:102CF000645D94701B880B40C45C04AB1C70069C24
:102D0000E406A40F045D5C70069C2406A40F005D1D
:102D100098703E4803F024F8002804D0FFE7002014
:102D2000C043079066E03A48032104AA03F018F86C
:102D3000002804D0FFE70020C04307905AE0019824
:102D400005A9088001A8807888706846807804A961
:102D500088700098088006A80088400700280AD5D7
:102D6000FFE705980121084305AA1070049808435D
:102D700004A90870FFE706A80088800600280AD585
:102D8000FFE705A9487801221043487004A9487854
:102D900010434870FFE706A80088C00500280AD540
:102DA000FFE705A9887801221043887004A9887874
:102DB00010438870FFE711208001032105AA02F06B
:102DC000CFFF002804D0FFE70020C043079011E0A8
:102DD0001048032104AA02F0C3FF002804D0FFE733
:102DE0000020C043079005E006980B4908810020A9
:102DF0000790FFE7079808B0B0BDC0464CCD000073
:102E00000CC90000365600002646000026040000CB
:102E10002A04000031040000DC00202080B586B0C8
:102E2000059004A80190018005987D21C900FDF757
:102E300049FC0146019800884843029002A8C178E5
:102E400003AA1170408850700298000A907002988E
:102E5000D07057208000042102F082FF06B080BDB0
:102E600080B584B0014603A8019001800088052147
:102E7000FDF709FC014601980180407802AA107014
:102E800003985070AD204000022102F069FF04B0A9
:102E900080BD80B584B0014603A801900180008800
:102EA0000521FDF7F0FB014601980180407802AA58
:102EB0001070039850702B20C000022102F050FFC8
:102EC00004B080BD80B582B0014601A801706A4699
:102ED000002111700078C007002806D0FFE7009895
:102EE0003021084369460870FFE701A80078800791
:102EF000002806D5FFE700980C21084369460870B2
:102F0000FFE701A800784007002806D5FFE70098F2
:102F10000321084369460870FFE72920C00001210A
:102F20006A4602F01DFF02B080BD80B582B0014646
:102F300001A801700078002804DCFFE701A9012046
:102F4000087009E001A80078052804DBFFE701A963
:102F500004200870FFE7FFE70198401E6A461070E2
:102F6000FF205030012102F0FBFE02B080BD0000C6
:102F700080B58AB0024608A8027007AA11800078BE
:102F80004007002806D0FFE707A80088804988424C
:102F900004DBFFE70020C0430990F5E007A80088A4
:102FA000FDF751FB7B49FDF7A4F9049005A80090BB
:102FB00001F022FD00980078801E01900E286BD849
:102FC0000198810001A040588746C04609300000A2
:102FD000993000002D300000993000009930000039
:102FE0009930000051300000993000009930000005
:102FF00099300000993000009930000099300000AD
:10300000993000007530000004988D21C905FDF746
:1030100033F9FDF71FFB03A9088004986149FDF708
:103020002BF9FDF717FB02A9088039E0049823214A
:103030004906FDF721F9FDF70DFB03A90880049867
:103040005749FDF719F9FDF705FB02A9088027E0AC
:1030500004988B21C905FDF70FF9FDF7FBFA03A9C9
:10306000088004984D49FDF707F9FDF7F3FA02A926
:10307000088015E0049845210906FDF7FDF8FDF7E5
:10308000E9FA03A9088004984349FDF7F5F8FDF72C
:10309000E1FA02A9088003E00020C043099073E030
:1030A00003A8407806A908700398487002A84078E1
:1030B00088700298C87008A80078C00700281CD043
:1030C000FFE775208000022106AA02F049FE0028D1
:1030D00004D0FFE70020C043099055E006A8821CF9
:1030E00049208000022102F03BFE002804D0FFE7C7
:1030F0000020C043099047E0FFE708A80078800758
:1031000000281CD5FFE73B20C000022106AA02F0E0
:1031100027FE002804D0FFE70020C043099033E0D9
:1031200006A8821C2520C000022102F019FE0028FA
:1031300004D0FFE70020C043099025E0FFE708A87E
:103140000078400700281CD5FFE777208000022187
:1031500006AA02F005FE002804D0FFE70020C043C5
:10316000099011E006A8821C4B208000022102F089
:10317000F7FD002804D0FFE70020C043099003E0DA
:10318000FFE700200990FFE709980AB080BDC0461C
:1031900041060000000048430000C04400004045D4
:1031A0000000C0450000404680B584B0014603A839
:1031B000018000880521FDF766FA014602A801801A
:1031C000407801AA107002985070EF204000022150
:1031D00002F0C6FD04B080BD80B584B0014603A8EE
:1031E000018000880521FDF74EFA014602A8018002
:1031F000407801AA107002985070ED204000022122
:1032000002F0AEFD04B080BD80B5002003F020FFC9
:1032100080BD80B584B003900398002801D1FFE7FA
:103220002DE003990020087202A90870FFE702A8A8
:103230000078072823D8FFE702A80190007803F060
:1032400007FF3220FFF7E6F803F01CFE0199039A0E
:103250000B78D05403980978405C002809D0FFE728
:1032600002A80078012282400399087A104308726C
:10327000FFE7FFE70298401C02A90870D7E704B0F7
:1032800080BD000080B586B00590FFF7BDFF05F05A
:1032900083F90190FFE702A80090FFF7BAFF0099B9
:1032A00005480922FCF75EFF00F0C4FD01A80521D6
:1032B00005F03AF8EFE7C046C406202080B584B098
:1032C00007480290074801900220009006480749ED
:1032D00001221202002304F0DDFF04B080BDC046CD
:1032E000EC042020EC0020208532000094A4000093
:1032F00080B582B001900091FFE70748FEF7DEF944
:10330000002801D0FFE7F8E701A801780248FEF79E
:1033100035FA019802B080BD00801040B0B588B089
:1033200006903648406800780D21042205AB01F074
:10333000A7F9002803D0FFE7072007905BE005AA64
:103340001078E0231840C008D178302421400909C2
:10335000401804A9087050781840C008D4780C258B
:103360002C40A4080019487090781840C008D27802
:1033700003231A408018887003A900200870FFE713
:1033800003A80078022833DCFFE703A8017804A82B
:10339000405C002807D1FFE7069903A80078820067
:1033A000002088501FE0069903A800788200144886
:1033B0008850FFE703A8027804A9885C401E88545F
:1033C000000600280ED0FFE70698029003A90978AE
:1033D0008900019140580B49FCF74EFF019A029970
:1033E0008850E7E7FFE70398401C03A90870C7E788
:1033F00000200790FFE7079808B0B0BD1400202018
:103400007B14AE3E1D5A843F70B598B0169015914E
:1034100014A8027011AB0120187000205870D9490F
:10342000486800780968897C022201F0C7F9002801
:1034300004D0FFE70020C04317902FE2C82001F01E
:10344000CFF811AB00201870CE49486800780968A1
:10345000C97B012201F0B2F9002804D0FFE7002067
:10346000C04317901AE2C74948680078096849794B
:10347000012211AB01F0A2F9002804D0FFE70020DF
:10348000C04317900AE2BF49486800780968897C00
:10349000012211AB01F092F9002804D0FFE70020CF
:1034A000C0431790FAE1B749486800780968C97DB8
:1034B000012211AB01F082F9002804D0FFE70020BF
:1034C000C0431790EAE1F74948680078096809792C
:1034D000012211AB01F072F9002804D0FFE70020AF
:1034E000C0431790DAE111AB0C201870ED49486821
:1034F000007809680979012201F060F9002804D0F8
:10350000FFE70020C0431790C8E10F2001F068F8E2
:10351000E449886A407A11AB1870486800780968F5
:103520008978012201F04AF9002804D0FFE7002041
:10353000C0431790B2E1DB49886A007A11AB18707A
:103540004868007809684978012201F037F90028B5
:1035500004D0FFE70020C04317909FE114A8007833
:10356000002808D0FFE7CF48806A807AE02108432E
:1035700011A9087005E0CB48806A807A11A908700B
:10358000FFE7C8494868007809688979012211ABCA
:1035900001F014F9002804D0FFE70020C043179081
:1035A0007CE114A80078002808D0FFE7BD48806AB5
:1035B000C07AE021084311A9087003E011A918207E
:1035C0000870FFE7B749486800780968C97901229F
:1035D00011AB01F0F3F8002804D0FFE70020C0434E
:1035E00017905BE114A80078002804D0FFE7C820FA
:1035F00000F0F6FFFFE711AB40201870F249486871
:10360000007809680979012201F0D8F8002804D06F
:10361000FFE70020C043179040E111AB78201870FD
:10362000E9494868007809684979012201F0C6F83B
:10363000002804D0FFE70020C04317902EE132207D
:1036400000F0CEFF11AB00201870DF494868007809
:1036500009684979012201F0B1F8002804D0FFE798
:103660000020C043179019E1D749486800780968DD
:10367000897A022211AB01F003F8002804D0FFE799
:103680000020C043179009E11198000211A9497860
:1036900041180EA8018000880C21FCF7F4FF10A946
:1036A000087016990020886016994860169908607D
:1036B0001599886015994860159908600FA90870D8
:1036C000FFE70FA8007810A9097888425CDAFFE7C5
:1036D000BD49486800780968C97A0C2211AB00F02E
:1036E000CFFF002804D0FFE70020C0431790D5E0AB
:1036F0001198000211AD0995697841180CA8018054
:10370000A9780902EA7889184180129909026A7930
:10371000891881800023C45E159A11680919116007
:103720000222865E159C6168891961600421465EEB
:10373000159CA0688019A060A8790002EC79041992
:103740000AA80480139C24026E7AA4194480AC7ADF
:103750002402ED7A64198480C55E169C23685B1987
:103760002360845E169B5A6812195A60425E16994D
:10377000886880188860FFE70F98401C0FA90870C0
:103780009FE7C04614002020169800900068C117DB
:10379000020C090489180004832202920023079373
:1037A000FCF7A2FC079B10AA06921278FCF79CFC7F
:1037B0000099029A079B0860169801904068C1170B
:1037C000040C090409190004FCF78EFC069A079BF7
:1037D0001278FCF789FC0199029A079B48601698B9
:1037E00003908068C117040C090409190004FCF750
:1037F0007BFC069A079B1278FCF776FC0399069AE5
:10380000079B8860159804900068C117040C090490
:10381000091900046405C00A0019C9121278FCF7DE
:1038200063FC0499069A079B086015980590406808
:10383000C117040C0904091900046405C00A001921
:10384000C9121278FCF750FC0599069A079B48604C
:10385000159808908068C117040C09040919000420
:103860006405C00A0019C9121278FCF73DFC0899DA
:10387000886015988068012806DBFFE7159988683D
:10388000094A8018886006E01599886801221204A8
:1038900080188860FFE700201790FFE7179818B09E
:1038A00070BDC046140020200000FFFF80B58AB024
:1038B00008900791002005904348406800780D214A
:1038C000032204AB00F0DCFE002803D0FFE7072052
:1038D000099075E004A908781F2210400870487804
:1038E0001040487088781040887000200690FFE7EC
:1038F0000698022861DCFFE7089806998A0080583C
:1039000007998958401AC1174840401AFCF790FEA1
:103910008F21C905FCF7EDFC0290069904A8405CD4
:1039200000282DD0FFE72A480390FFE7069A04A954
:10393000885C401E88540006002806D0FFE70398E4
:103940002549FCF799FC0390F0E702980399FCF7EE
:10395000D0FC2049FCF737FC019001980121C907F0
:1039600088431A498969FCF71DFE002807D1FFE743
:10397000069801218140059808430590FFE717E06C
:10398000029812490969FCF71BFE002808D1FFE7DD
:1039900002980E494969FCF705FE002807D1FFE7A8
:1039A000069801218140059808430590FFE7FFE74D
:1039B000FFE70698401C06909AE705980990FFE7F4
:1039C00009980AB080BDC04614002020F4A400006D
:1039D0000000C841000080BF54E3853F10B584B0AB
:1039E00014460A46014603A8017002A90A7001AAFA
:1039F00014700093007809781278009B00F040FE64
:103A000004B010BD80B584B00120FEF703FB1F4851
:103A10008021FDF7BBF8642000F0E2FD00F016FE07
:103A2000002807D0FFE7032003F00AFC0020C04372
:103A3000039028E0FEF718F8002807D0FFE70320DE
:103A400003F0FEFB0020C04303901CE0FDF7A2FE44
:103A5000002807D0FFE7042003F0F2FB0020C0435A
:103A6000039010E00121019100220292104603F020
:103A700095FC06488021FDF789F80198FEF7F8FAD1
:103A800002980390FFE7039804B080BD00000A404D
:103A900080B584B00390039800F019F802A9019151
:103AA00008800398C01C00F012F80199C200029827
:103AB000104308800398801D00F009F80146019822
:103AC0008A01029911430180008804B080BD82B050
:103AD0000190019800214056012804DBFFE7694668
:103AE000002008803AE0019800214056002804D5C3
:103AF000FFE76946042008802FE001980121405625
:103B0000012804DBFFE769460120088024E00198D2
:103B100001214056002804D5FFE7694605200880AA
:103B200019E0019802214056012804DBFFE76946AD
:103B3000022008800EE0019802214056002804D59A
:103B4000FFE769460620088003E0694607200880F1
:103B5000FFE7FFE7FFE7FFE7FFE7FFE768460088CB
:103B600002B0704780B582B0019004F015FD00905E
:103B7000FEF744FBFFE77D208100684604F0D4FB9C
:103B8000FEF746FBF7E7000080B584B006480290D8
:103B90000648019001200090054806498022002334
:103BA00004F078FB04B080BDD0082020D00620208F
:103BB000653B0000E9A4000081B000900098002857
:103BC00001D1FFE724E000991248086000991248EB
:103BD000486000990020886000991048C8600099EA
:103BE0000F48086100990F48486100990E488861A4
:103BF0000099AF204000888300992320C000C8832B
:103C000000990A4808840099222201208854FFE77D
:103C100001B0704700002F440AD7A33C00007AC4CB
:103C200000007A44000096C400009644ECFF0000B7
:103C300010B58CB00B900A910B98002801D1FFE7CA
:103C400022E00A98002809D0FFE70A9901A81CC9B8
:103C50001CC01CC91CC01CC91CC003E001A8FFF784
:103C6000ABFFFFE70B985021FCF795FA0B9801A9E1
:103C70001CC91CC01CC91CC01CC91CC00B9908460F
:103C8000243002F030F9FFE70CB010BD80B582B0EF
:103C900001900198002801D1FFE708E001994C222A
:103CA000002088520198243002F03EF9FFE702B06C
:103CB00080BD000080B5B0B02F902EA90020087004
:103CC0002AA9088029A90880069005901EA80390BB
:103CD000FFF772FF039907A8FFF7AAFFFFE700208D
:103CE000C243012103F05AFB43480290017A2BAAF8
:103CF00011720279417909028A1881790B04C1791C
:103D00000906C91889182C91027841780902891886
:103D100082781204C0780006801840182B9004F0B6
:103D20003BFC04902EA80078C007002813D0FFE7C2
:103D300004980599401A0699884208D2FFE70022A4
:103D40002AA8805E29A9895E00F024FCC7E72EA975
:103D500000200870FFE707A82BA91BAA00F07EF837
:103D6000002809D1FFE728A90020088027A908809A
:103D700007A8FFF78BFF36E01BA8807A032809D13C
:103D8000FFE728A90020088027A9088007A8FFF7D7
:103D90007DFF27E01BA8019028A927AA00F053FB6C
:103DA0000198008900281CD0FFE71BA802897D200C
:103DB000C10008465043FCF766FC069006980028B0
:103DC00003D1FFE701200690FFE7049805902898AB
:103DD0002AA90880279829A908802EA901200870FF
:103DE000FFE7FFE7FFE7002228A8805E27A9895E9A
:103DF00000F0D0FB73E7C046C406202080B584B035
:103E0000084802900848019003200090074808499C
:103E100001221202002304F03DFA0F49086004B0A9
:103E200080BDC046340D202034092020B53C000060
:103E3000AAA4000080B582B007480068002809D015
:103E4000FFE705480068002200920223114604F0B3
:103E5000D5FAFFE702B080BD3009202080B590B0D0
:103E60000E900D910C920E98002808D0FFE70D9847
:103E7000002804D0FFE70C98002804D1FFE70FA921
:103E8000002008708BE20E980D9900F0ADFA014603
:103E900002A801700178012211400BAA1170029949
:103EA0008907C90F0AAA117002994907C90F09AAFF
:103EB000117002990907C90F08AA11700299C90661
:103EC000C90F07AA117002998906C90F06AA1170B5
:103ED00002994906C90F05AA11700178C90904AAF7
:103EE000117002990C9A11700C9A002191720E9A1D
:103EF000928B0C9BDA800C9A11810E994C22895A74
:103F000003AA11800078002804D1FFE70C99032050
:103F100088721BE208A80078002813D0FFE707A8E2
:103F2000007800280ED0FFE70BA80078002809D100
:103F3000FFE704A80078002804D1FFE703A90020C8
:103F4000088002E20BA80078002805D1FFE70AA844
:103F50000078002819D0FFE708A80078002805D1CC
:103F6000FFE707A8007800280FD0FFE703A9FA4869
:103F700008800C99012088720E98008C0C99C880DA
:103F80000C994B2080000881DEE105A8007800280C
:103F900005D1FFE704A80078002819D0FFE708A89A
:103FA0000078002805D1FFE707A8007800280FD087
:103FB000FFE703A9142008800C99022088720E984C
:103FC000008C0C99C8800C994B2080000881BAE1C4
:103FD0000BA80078002827D1FFE70AA8007800285E
:103FE00022D1FFE709A8007800281DD1FFE708A823
:103FF0000078002818D0FFE707A80078002813D120
:10400000FFE706A8007800280ED1FFE705A8007892
:10401000002809D1FFE704A80078002804D1FFE7B1
:1040200003A9E14808808DE10BA80078002827D17A
:10403000FFE70AA80078002822D1FFE709A8007846
:1040400000281DD0FFE708A80078002818D0FFE757
:1040500007A80078002813D1FFE706A800780028F9
:104060000ED1FFE705A80078002809D1FFE704A8D2
:104070000078002804D1FFE703A9CC48088060E15C
:104080000BA80078002827D1FFE70AA800780028AD
:1040900022D1FFE709A8007800281DD0FFE708A873
:1040A0000078002818D1FFE707A80078002813D16E
:1040B000FFE706A8007800280ED1FFE705A80078E2
:1040C000002809D1FFE704A80078002804D1FFE701
:1040D00003A9B748088033E10BA80078002827D14E
:1040E000FFE70AA80078002822D0FFE709A8007897
:1040F00000281DD1FFE708A80078002818D1FFE7A5
:1041000007A80078002813D1FFE706A80078002848
:104110000ED1FFE705A80078002809D1FFE704A821
:104120000078002804D1FFE703A9A248088006E12F
:104130000BA8007800282BD0FFE70AA800780028F9
:1041400026D1FFE709A80078002821D1FFE708A8B9
:10415000007800281CD1FFE707A80078002817D1B5
:10416000FFE706A80078002812D1FFE705A800782D
:1041700000280DD1FFE704A80078002808D1FFE748
:1041800003A98D4808800E98C08B0C99C880D5E093
:104190000BA80078002827D1FFE70AA8007800289C
:1041A00022D1FFE709A8007800281DD1FFE708A861
:1041B0000078002818D1FFE707A80078002813D05E
:1041C000FFE706A8007800280ED0FFE705A80078D2
:1041D000002809D1FFE704A80078002804D1FFE7F0
:1041E00003A903200880A8E00BA80078002827D1A5
:1041F000FFE70AA80078002822D1FFE709A8007885
:1042000000281DD1FFE708A80078002818D1FFE793
:1042100007A80078002813D1FFE706A80078002837
:104220000ED0FFE705A80078002809D1FFE704A811
:104230000078002804D1FFE703A9052008807BE06F
:104240000BA80078002827D1FFE70AA800780028EB
:1042500022D1FFE709A8007800281DD1FFE708A8B0
:104260000078002818D1FFE707A80078002813D1AC
:10427000FFE706A8007800280ED0FFE705A8007821
:10428000002809D0FFE704A80078002804D1FFE740
:1042900003A9082008804EE00BA8007800282BD145
:1042A000FFE70AA80078002826D1FFE709A80078D0
:1042B000002821D1FFE708A8007800281CD1FFE7DB
:1042C00007A80078002817D1FFE706A80078002883
:1042D00012D1FFE705A8007800280DD1FFE704A858
:1042E0000078002808D0FFE703A90C2008800E986A
:1042F000C08B0C99C8801DE008A80078002809D060
:10430000FFE707A80078002804D1FFE703A92648A3
:1043100008800EE008A80078002809D1FFE707A868
:104320000078002804D0FFE703A901200880FFE7F8
:10433000FFE7FFE7FFE7FFE7FFE7FFE7FFE7FFE74D
:10434000FFE7FFE7FFE7FFE7FFE7FFE70C98807A6B
:10435000032808D002E0C046ECFF000003980E9945
:104360004C228852FFE703980C9948800E9824301D
:104370000190002103A8405EFCF75AF9014601981C
:104380000C9A927AD21E531E9A4101F047FDFCF717
:1043900061F90C9988800FA901200870FFE70FA828
:1043A000007810B080BDC046FFFF0000FEFF000097
:1043B000FCFF0000FAFF0000F4FF000080B582B0AF
:1043C00000200190FDF78CFDFFF7DEFB00F0B6F852
:1043D000FFF714FDFEF772FF01F002FE00F086FA0F
:1043E00003F0CCFAFFE7FEE784B003900291694640
:1043F0000020087001A90870FFE701A800780728CD
:104400001DD8FFE7029801A90978405C411E884148
:1044100003992222895C4A1E9141884209D1FFE713
:1044200001A800780121814000980843694608707E
:10443000FFE7FFE70198401C01A90870DDE7684627
:10444000007804B0704780B586B00590049103925F
:10445000059B0620195E04229B5EC91802910599EE
:10446000085E895E401A01900298FDF709FF0499E1
:1044700008800198FDF704FF0399088006B080BD0D
:1044800080B582B00020019000F01EF80199084626
:1044900000F002F802B080BD80B586B001910246FE
:1044A000019805A90A8004AA0392108000200290B6
:1044B000095E02F059FE02990398415E012002F064
:1044C00053FE06B080BD000080B582B0014601A851
:1044D00001700078C007002806D0FFE701208103A3
:1044E0000548FCF7C1FC05E0012081030248FCF708
:1044F00077FBFFE702B080BD00200A4080B582B0A4
:104500000190FFF7BDFF0120FFF7DEFFFFE7334813
:10451000006869461E2203F092FD012808D1FFE7DA
:1045200000206946085E0222895EFFF7B5FF04E0BD
:1045300000210846FFF7B0FFFFE7E8E710B586B0B7
:104540000020049000900D4A0D4B0120039004219F
:10455000059103F04BFB039A049B014605981F4C01
:1045600021600849029108490191009007480849D3
:10457000120203F08FFE06B010BDC046980D202039
:104580009C0D2020EC112020EC0D2020FD4400008B
:10459000A0A4000080B584B002AA108001A8018008
:1045A0000E480068002804D1FFE703A90020087026
:1045B00010E0029869460880019848800748006822
:1045C0000022022303F0C2FB401E4142484103A9DE
:1045D0000870FFE703A8007804B080BD940D202088
:1045E00080B582B001900198002801D1FFE71CE05E
:1045F00003F0B8FF01280ED1FFE7FFE7019800287C
:1046000008D0FFE77D20C000FDF704FF0198401EA1
:104610000190F3E709E0019A7D20C100084650436C
:10462000FCF731F803F0C0F8FFE702B080BD80B5B9
:1046300082B001900198002805D0FFE703F0ACFF9D
:1046400001990860FFE702B080BD000080B582B02C
:104650005948FCF7C7FC002803D1FFE700F03EF8FB
:10466000FFE75548FCF7BEFC014600200090C04320
:104670000029019001D000980190019802B080BDFE
:1046800010B586B004AC207003A8017002A80270B7
:1046900001930078002804D0FFE70198002804D196
:1046A000FFE70020C043059015E004A8007803A9A7
:1046B000012202F0E9FD002804D0FFE70020C043FA
:1046C000059008E004A80078019902AA127802F087
:1046D000E3FB0590FFE7059806B010BD80B590B0EC
:1046E00035480A90FCF7ACFC0A98FCF723FC102034
:1046F000FCF713FA00220E92009201200B90C304E3
:1047000010461146FCF7E8FA0B98FCF707FB7648D1
:104710000C9002210D91FCF7B1FB0C980D99FCF760
:10472000A3FA0E980FA90870FFE70FA800780828D1
:1047300020D8FFE76C480121FCF760FBC007002888
:1047400001D0FFE716E06848079002210891FCF7C6
:1047500051FA05200990FDF75DFE07980899FCF7CE
:104760008DFB0998FDF756FEFFE70F98401C0FA937
:104770000870DAE700230593019301200690C00436
:10478000039000900321049118461A46FCF7F6FAAC
:10479000039A0499059B0698019300921A46FCF728
:1047A000EDFA0598FCF73CFA0698FCF739FAFDF7A4
:1047B000BBFA10B080BDC04600000F4010B58CB0F1
:1047C0000AAC207009A8017008A80270079300784D
:1047D000002809D0FFE708A80078102804D8FFE7D0
:1047E0000798002804D1FFE70020C0430B9024E085
:1047F000099802A9087001A900200870FFE701A824
:10480000007808A9097888420DDAFFE7079801A91E
:104810000978405C02AA89184870FFE70198401C9B
:1048200001A90870EBE70AA8007808A909784A1CD2
:1048300002A902F029FD0B90FFE70B980CB010BD08
:1048400010B588B007900020069005900490039062
:1048500002900190FFE700200090012002F0F0FCA0
:10486000FFF7D0F8002805D0FFE77D208000FFF794
:10487000B7FEF0E7022002F0E3FCFFE70020012191
:10488000642202F08BFD002804D1FFE7052002F02E
:10489000D7FC1AE001A802F0C7F900280CD0FFE706
:1048A0000098401C00900098052804D3FFE70620DC
:1048B00002F0C6FC09E0E1E700200090194801A9D8
:1048C0001CC91CC01CC91CC0D8E70120FDF7A2FBF5
:1048D00005488021FCF75AF9FFF700FF7D20800092
:1048E000FFF77EFEB7E7C04600000A4080B584B0FF
:1048F0000C48002343610361C3608360436003602D
:10490000094803700948029009480190032000906B
:10491000084809490122520203F0BCFC074908601B
:1049200004B080BD4C12202057002020681A20209F
:104930006812202041480000E1A4000064122020F9
:1049400080B584B002A90870002000900878FE228B
:1049500010400870C4482421405C002803D0FFE7C1
:104960000020039045E0C048807A002804D1FFE78A
:104970000020C04303903CE0BB48017C01AA1170B9
:104980000299827A11400174007C02A90978884258
:1049900004D0FFE70020C043009002E00020009018
:1049A000FFE702A80078002805D1FFE7AE48007DA8
:1049B000002804D0FFE7012002F06CFB03E0002098
:1049C00002F068FBFFE702A8007800280DD0FFE79F
:1049D00000F038FC002807D0FFE70198A2490874CE
:1049E0000020C043039004E0FFE7FFE70098039036
:1049F000FFE7039804B080BD83B001909A48407AE5
:104A0000009003281CD80098810001A040588746D8
:104A1000214A0000294A0000314A0000394A0000BA
:104A20000199022008700FE00199042008700BE042
:104A300001990820087007E001991020087003E030
:104A40000020C04302900CE08748C07C002805D0BD
:104A5000FFE70199087840000870FFE70020029006
:104A6000FFE7029803B0704783B001907E48407A18
:104A7000009003281FD80098810001A04058874665
:104A8000914A00009B4A0000A34A0000AD4A000082
:104A9000019901208003088011E0019910480880E5
:104AA0000DE0019901200003088008E00199012030
:104AB000C002088003E00020C04302900CE0E648FA
:104AC000C07C002805D0FFE70199088840080880CD
:104AD000FFE700200290FFE7029803B07047C0464E
:104AE0009C1F000081B00090DB48007C009908709A
:104AF000002001B07047C04682B00190D648007ACD
:104B0000009003281FD80098810001A040588746D4
:104B1000214B0000294B0000334B00003D4B0000AF
:104B20000199FA20088012E001997D208000088018
:104B30000DE001997D20C000088008E001997D20EA
:104B40000001088003E0019900200880FFE70020B1
:104B500002B0704783B00190BF48007A00900328EC
:104B60001CD80098810001A0405887467D4B00006A
:104B7000854B00008D4B0000954B000001990F48BC
:104B800008600FE001990C4808600BE001990948A2
:104B9000086007E001990648086003E00020C04370
:104BA000029002E000200290FFE7029803B07047F5
:104BB0003333834133330342000083420000034315
:104BC00082B00190EE48C07A009007282DD8009856
:104BD000810001A040588746294C0000F94B000095
:104BE000014C0000094C0000114C0000194C000061
:104BF000214C0000294C00000199BC20088018E0DD
:104C000001996220088014E001992A20088010E0B0
:104C10000199142008800CE001990A20088008E01E
:104C200001990520088004E0FFE701990020088031
:104C3000FFE7002002B0704782B00090D0482421E6
:104C4000405C002804D0FFE70020C043019007E04B
:104C5000CB48C08900990880FFE700200190FFE75A
:104C6000019802B07047C0461400202080B588B07B
:104C700005AB80201870C249486800780968897CB3
:104C80000122FFF79BFD002804D0FFE70020C0436E
:104C90000790DDE06420FFF7A3FC05AB002018704F
:104CA000FB49486800780968897C0122FFF786FD86
:104CB000002804D0FFE70020C0430790C8E0F44973
:104CC000486800780968897D062205ABFFF7D8FCA3
:104CD000002804D0FFE70020C0430790B8E005A9F2
:104CE0004879C007400FCA78D207920F80184978D8
:104CF00001221140411804A801700078002818D042
:104D0000FFE704A80078012804D1FFE7E04901206B
:104D1000C8740DE004A80078022804D1FFE7DC493C
:104D20000020C87403E00020C043079090E0FFE734
:104D30002CE0D749486800780968C978012205AB9A
:104D4000FFF79EFC002804D0FFE70020C043079037
:104D50007EE005A801780F20014004A801700078CA
:104D6000002804D1FFE70020C043079070E004A8AA
:104D70000078042804D1FFE7C5490120C87403E086
:104D8000C3490020C874FFE7FFE7FFE7C04902916D
:104D9000FF2088720A46083208724872C8722F4B88
:104DA000CB810874887401200873907600200390EA
:104DB000D076487508750884C8838883488308833B
:104DC000C88210775077C8847D20000100F0A2FDD2
:104DD000002804D0FFE70020C043079038E00220FD
:104DE00000F0FAFB002804D0FFE70020C043079042
:104DF0002EE02A2000F03EFE002804D0FFE700202D
:104E0000C043079024E0322000F09CFE002804D02C
:104E1000FFE70020C04307901AE00020FFF790FD55
:104E2000002804D0FFE70020C043079010E00020D6
:104E300000F044FC002804D0FFE70020C0430790A6
:104E400006E00020019000F0F3FE01980790FFE7D4
:104E5000079808B080BDC04614002020FFFF000066
:104E600010B58EB00CAC20800B910AA8028009A866
:104E70000380F3482521405C002804D0FFE7002090
:104E8000C0430D9078E00B98002804D1FFE7012083
:104E9000C0430D9070E008A900200880FFE708A833
:104EA00000880CA90988884248DAFFE70CA8008826
:104EB00008A90988401A112803DBFFE71020019098
:104EC00006E00CA8008808A90988401A0190FFE7AD
:104ED000019807A9088008A8008809880B9A121869
:104EE00000F03EFF002804D0FFE70220C0430D90F1
:104EF00042E008A8008807A9098803AA00F04CF935
:104F0000002804D0FFE70320C0430D9034E00B9845
:104F100008A90988401807A90A8803A9FBF746F9D8
:104F2000002804D0FFE70420C0430D9024E0FFE7F1
:104F300007990898401808A90880B0E70AA840789F
:104F400002AB18700A985870BD4948680078096823
:104F5000897E0222FFF732FC002804D0FFE70520FB
:104F6000C0430D9008E0B6492522012088540998D5
:104F7000C88400200D90FFE70D980EB010BDC0460C
:104F80001400202080B586B0014604A80170007886
:104F9000292804DBFFE70020C043059075E004A842
:104FA000007800281DD1FFE70020029000F014FDDA
:104FB000029803AB187007205870A1494868007820
:104FC0000968897C0222FFF7F9FB002804D0FFE77B
:104FD0000020C043059058E09949002008750590CD
:104FE00053E0012000F0F8FC03A92020087004A879
:104FF0000078012807D1FFE703A9002048700520A9
:1050000000F038FD20E004A80078052807DCFFE761
:1050100003A901204870052000F02CFD13E004A82E
:105020000078142807DCFFE703A9022048700A2053
:1050300000F020FD06E003A903204870142000F0D2
:1050400019FDFFE7FFE7FFE703AB58788001C01DBC
:1050500058707B49486800780968897C0222FFF70C
:10506000ADFB002804D0FFE70020C04305900CE012
:10507000FB4A0820907200200190107301211175E5
:10508000FFF75EFC01980590FFE7059806B080BD2C
:105090001400202080B586B004AB188003910292E2
:1050A000EF482421405C002804D1FFE70020C043E2
:1050B00005906EE0EA48807A002804D1FFE70020DE
:1050C000C043059065E0E649486800780968897A38
:1050D000022201ABFFF7D4FA002804D0FFE700203A
:1050E000C043059055E00198000201A94978411894
:1050F00068460180008804A90988884206DAFFE72B
:10510000029900200870C043059042E0684600887C
:10511000D34949684988490888421DDDFFE7D049DD
:10512000486800780968497C012201ABFFF7A8FABA
:10513000002804D0FFE70020C043059029E001A823
:105140000078C006002806D5FFE700F07BF80120B4
:10515000C04305901DE0FFE7C14948680078096831
:10516000C97A04AA1278039BFFF78AFA002804D0B0
:10517000FFE70020C04305900BE06846008804A9C3
:105180000988FBF780FA401E0299087000200590FC
:10519000FFE7059806B080BD80B586B004AB1880E7
:1051A00003A8018002920298002804D1FFE70020A2
:1051B000C043059040E0AA48807A002804D1FFE768
:1051C0000120C043059037E004A8417801A8017090
:1051D00004994170407803A909884018FC4949683E
:1051E0004989884204DDFFE70220C043059023E09F
:1051F000F749486800780968097E022201ABFFF789
:10520000DDFA002804D0FFE70320C043059013E037
:10521000EF49486800780968497D03AA1278029B23
:10522000FFF72EFA002804D0FFE70420C0430590C2
:1052300002E000200590FFE7059806B080BDC0465B
:105240001400202080B582B0E148807A002804D183
:10525000FFE70020C0430190FEE06B46002018707D
:10526000DB49486800780968C97B0122FFF7A6FA84
:10527000002804D0FFE70020C0430190ECE0D449AF
:10528000486800780968497901226B46FFF796FA69
:10529000002804D0FFE70020C0430190DCE0CC49A7
:1052A000486800780968097901226B46FFF786FA99
:1052B000002804D0FFE70020C0430190CCE0FE4866
:1052C0002421405C002861D0FFE76B460C20187059
:1052D000F94948680078096809790122FFF76EFAF0
:1052E000002804D0FFE70020C0430190B4E06946E5
:1052F000C0200870F048807AC007002806D0FFE779
:1053000000982021084369460870FFE7EA49486889
:1053100000780968097901226B46FFF74FFA0028E7
:1053200004D0FFE70020C043019095E0E248407CB4
:10533000002804D0FFE769460220087003E06946B0
:1053400000200870FFE7DC49486800780968C97BDD
:1053500001226B46FFF732FA002804D0FFE7002055
:10536000C043019078E06B4600201870D24948682D
:105370000078096849790122FFF720FA002804D053
:10538000FFE70020C043019066E062E06B46042026
:105390001870C94948680078096809790122FFF73F
:1053A0000DFA002804D0FFE70020C043019053E02D
:1053B000C148807C002806D1FFE7BF48807AC0073B
:1053C000002804D1FFE769464020087003E06946E1
:1053D00060200870FFE7B8494868007809680979D3
:1053E00001226B46FFF7EAF9002804D0FFE700200E
:1053F000C043019030E0B048407C002804D0FFE773
:1054000069460120087003E0694600200870FFE744
:10541000A949486800780968C97B01226B46FFF7F3
:10542000CDF9002804D0FFE70020C043019013E02D
:10543000A14B586800781968497910330122FFF7A9
:10544000BDF9002804D0FFE70020C043019003E02D
:10545000FFE700200190FFE7019802B080BDC04641
:105460001400202080B594B01390129111A902204D
:105470000870F9482421405C002807D0FFE700208D
:1054800000F0ECF969460120087003E0694600204D
:105490000870FFE703A8FFF72FFB06A8FFF7ACFA99
:1054A00001A8FFF78DFB02A8FFF7C6FBEA48807A48
:1054B00004A9087005A8FFF715FB00200890FFE776
:1054C000089801280EDCFFE7139812990022FDF7D7
:1054D0009BFF002801D1FFE704E0FFE70898401C8C
:1054E0000890EDE70898022803D1FFE70020079015
:1054F0003EE000200890FFE7089801280EDCFFE757
:105500000EA80BA90122FDF77FFF002801D1FFE7BC
:1055100004E0FFE70898401C0890EDE7089802288F
:1055200003D1FFE70020079022E012980BA9FCF7B7
:10553000F7FD0AA9087013980EA9FEF7B7F90146FE
:1055400009A80170002107910078002805D1FFE724
:105550000798012108430790FFE70AA80078002870
:1055600005D1FFE70798022108430790FFE7FFE70F
:10557000E749FF2008724872C872164ACA818872C9
:1055800008740120087303A8008800F0C3F906A876
:10559000007800F021F801A8008800F06BFA02A85A
:1055A000008800F0CFFA04A8007800F041FB05A8BD
:1055B0000078FFF7C5F968460078002804D0FFE7B7
:1055C000012000F04BF9FFE7079814B080BDC046FA
:1055D00014002020FFFF000080B584B002A90870ED
:1055E000FC48807A002804D1FFE70020C0430390E4
:1055F0005FE002A80078801E00900E2832D8009844
:10560000810001A0405887464556000065560000BD
:105610004D560000655600006556000065560000B6
:10562000555600006556000065560000655600009E
:10563000655600006556000065560000655600007E
:105640005D56000001A9002008700FE001A90820A4
:1056500008700BE001A91020087007E001A91820CC
:10566000087003E00020C043039022E0D948407A4C
:1056700001A90978C908884203D1FFE700200390F7
:1056800017E0FB49486800780968C979012201AB35
:10569000FFF794F8002804D0FFE70020C0430390F0
:1056A00007E001A80078C008F14948720020039083
:1056B000FFE7039804B080BD1400202080B584B0BB
:1056C00002A90870EA48807C0978884203D1FFE784
:1056D00000200390BDE002A80078002853D0FFE727
:1056E000E3494868007809680979012201ABFEF7AF
:1056F000C7FF002804D0FFE70020C0430390A8E0C4
:1057000001AB1878DF2108401870D9494868007843
:10571000096809790122FFF751F8002804D0FFE752
:105720000020C043039094E00320FEF759FF01A935
:1057300002200870CE482221405C002806D0FFE7F6
:1057400001988021084301A90870FFE7FC48232144
:10575000405C002806D0FFE701983021084301A9EA
:105760000870FFE7F649486800780968097D01225A
:1057700001ABFFF723F8002804D0FFE70020C04367
:10578000039066E05FE0EE494868007809680979AF
:10579000012201ABFEF774FF002804D0FFE70020D0
:1057A000C043039055E0E648807AC007002806D041
:1057B000FFE701982021084301A9087005E001A92D
:1057C0000878DF2210400870FFE7DD49486800785C
:1057D00009680979012201ABFEF7F0FF002804D027
:1057E000FFE70020C043039033E00320FEF7F8FEFC
:1057F000D3482221405C002804D0FFE701A9802083
:10580000087003E001A900200870FFE7CC482321BD
:10581000405C002806D0FFE701983021084301A929
:105820000870FFE7C649486800780968097D0122C9
:1058300001ABFEF7C3FF002804D0FFE70020C04300
:10584000039006E0FFE70298F74988740020039070
:10585000FFE7039804B080BD1400202080B588B015
:1058600006A90870F0482422805C0978884203D198
:10587000FFE70020079047E006A8007800282AD01C
:10588000FFE7E9482521405C002804D1FFE700201C
:10589000C043079038E00020029001F0FBFB029823
:1058A000FFF70CFFE0480390C08C00F04BF9029921
:1058B000039805AB197040680078232101220492F7
:1058C000FEF77CFF039904982422885401F0E2FB40
:1058D000FFF7B8FC15E00020019001F0DBFBD24897
:1058E0000090017C05AB19704068007823210122EB
:1058F000FEF764FF0099019824228854FFF7A2FC68
:10590000FFE700200790FFE7079808B080BDC0467A
:105910001400202080B584B002A90880C248807A93
:10592000002804D1FFE70020C04303904EE002A806
:1059300000880090FA2812D0FFE700987D218900A6
:10594000884210D0FFE700987D21C90088420ED020
:10595000FFE700987D21090188420CD00FE001A9E2
:10596000002008700FE001A9082008700BE001A9D1
:105970001020087007E001A91820087003E000203B
:10598000C043039022E0F548007A01A90978C908CC
:10599000884203D1FFE70020039017E0EF494868F1
:1059A000007809688979012201ABFEF707FF00281A
:1059B00004D0FFE70020C043039007E001A800786F
:1059C000C008E649087200200390FFE7039804B07E
:1059D00080BDC0461400202080B584B002A90870A4
:1059E000DE482322805C0978884203D1FFE700204B
:1059F00003903AE002A80078002804D0FFE701A94C
:105A00003020087003E001A900200870FFE7FE487D
:105A1000807C002806D0FFE701980221084301A9F5
:105A20000870FFE7F8482221405C002806D0FFE715
:105A300001988021084301A90870FFE7F2494868EE
:105A400000780968097D012201ABFEF7B7FE002846
:105A500004D0FFE70020C043039006E00298EA4923
:105A60002322885400200390FFE7039804B080BDF0
:105A70001400202080B584B002A90880E248807A12
:105A8000002804D1FFE70020C043039054E002A89F
:105A90000088BC2804DBFFE701A9012008702BE087
:105AA00002A80088622804DBFFE701A90220087031
:105AB00021E002A800882A2804DBFFE701A90320CF
:105AC000087017E002A80088142804DBFFE701A98A
:105AD000042008700DE002A800880A2804DBFFE714
