:020000040000FA
:10000000A8292020D5000000D9000000DB00000056
:1000100000000000000000000000000000000000E0
:10002000000000000000000000000000251000009B
:100030000000000000000000E10F00003913000084
:10004000E3000000E3000000E3000000E300000024
:10005000E3000000E3000000E3000000E300000014
:1000600000000000E3000000E300000000000000CA
:1000700000000000E3000000E30000006513000042
:10008000E3000000E3000000E3000000E3000000E4
:10009000E3000000E300000000000000000000009A
:1000A000E3000000E300000000000000000000008A
:1000B000E300000000000000E3000000E300000097
:1000C0000348854600F060FB00480047A51F00007C
:1000D000A829202003480047FEE7FEE7FEE7FEE7E9
:1000E000FEE7FEE7C100000003460B439B0703D079
:1000F00009E008C9121F08C0042AFAD203E00B78ED
:100100000370401C491C521EF9D27047D2B201E064
:100110000270401C491EFBD270470022F6E710B562
:1001200013460A4604461946FFF7F0FF204610BD65
:10013000F8B502464A40D40F42004B0052085B0813
:100140009A4202D20246084611464A0023D0C30D05
:100150004A00DDB2120EAD1A202D35DA4902012611
:10016000490AF6058A19002C00D0524220214F1B63
:100170001146B9402A411018C20D9A4221D0002CD4
:1001800017D0012D08DCDA05801AD20F8019D207AA
:10019000DBB200F0FAF8F8BDDA05801A012340005E
:1001A0001B06C01880185A428018CA0F1043490015
:1001B00007E04908C2071143DA05801A8019400890
:1001C000801800F0DAF8F8BD61000122511A001B16
:1001D000F7E70122D2075140AAE70122D207504097
:1001E000A6E7024670B54A40D30FDB0740002DD08A
:1001F0004A002AD0010E140E000212020919400A08
:10020000520A8418E50104465443000A120A2E04D7
:100210005043A4194219200CC543AA18120C0125F9
:10022000AD03521C521912047F39240400D0521C11
:10023000104301D44000491EC2B20C06C009201868
:10024000401C4008802A02D003E0002070BD400816
:100250004000002900DA0020184370BD0122D207B7
:10026000002800DB101A002900DB511A814201D856
:1002700001207047002070470122D207002800DBD0
:10028000101A002900DB511A814201D30120704766
:1002900000207047C217C10F504010B54018CA0760
:1002A0009623002100F071F810BDC20F41004002FA
:1002B0000123400ADB05D207090EC0187F2901DAA5
:1002C00000207047962903DC9623591AC84001E0A4
:1002D00096398840002AF4D04042704770B50446F1
:1002E000002903D000202022012310E0002801D0A3
:1002F0000020C043C046C0460DE02546D5408D4293
:1003000005D30D469540641B1D4695404019154682
:10031000521E002DF1DC214670BDF0B51FB406461B
:10032000002082B005464024019100901BE0019915
:1003300022460F46304600F04FFA049A059B801A79
:10034000994110D310461946224600F035FA361A64
:100350008F410197224601200021009F00F02CFAD6
:1003600038184D4100902046641E0028DFDC019BB8
:1003700000982946324607B0F0BD002904DA401C37
:10038000490001D140084000704770B40024050CBA
:1003900005D11024000402D1002921D01124050E1A
:1003A00001D100020834050F01D10001241D850F81
:1003B00001D18000A41C002801DB4000641C00293E
:1003C00008D020252E1B0D46F540A14000D001216C
:1003D0002943084301061B1B000ADB1D02D5002030
:1003E00070BC7047DB05181880180029F8DA401C2B
:1003F0004900F5D170BC400840007047F0B5074691
:100400000846584087B0C00F049048000E46590077
:1004100040084908BC1A884105D2384631461E4674
:1004200017460B4602465800400810434CD0300D8A
:10043000039040055900400D490D0590401A029067
:10044000402872DA18030121000B090508430190C6
:1004500004980092002805D001995242002088415A
:1004600000920190029840210A1A0199009800F028
:10047000A3F905460C466B4607CB00F0BEF9C01940
:100480007141039A0E0D0023D71756401A467A4041
:10049000164344D0049A002A2DD0029A012A039AC6
:1004A00015DC1205C01A914101263605001C714168
:1004B000D20F059ED2070093019202962A46234648
:1004C00000F0BBF907B0F0BD38463146FAE7160533
:1004D000224A0F46B218C01AB74101210905001C73
:1004E0004F4100187F41114618187941E20F10431F
:1004F0006D19644113E0E2076D0815436408C207F3
:100500001443039A01261205C01A91413605001CB6
:100510007141CE07400830434908C01851412A466E
:10052000234600F07DF9CDE7FFE704980122400063
:10053000C117121A00238B4104983146C417381A88
:10054000A141EEE730B40124E407634030BC55E735
:1005500030B40124E407614030BC4FE70000E0FF05
:10056000F0B51FB488B00B99099800244840099948
:10057000C00F490049080991C0070B990090490034
:1005800049080B9109990898A64608431CD00B9975
:100590000A98084318D0099801244000420D4800E9
:1005A000410D099824050003000B204309900B9886
:1005B0000003000B20430B9050181C4940180022E8
:1005C00001901446104605E0002001460DB0F0BD34
:1005D000032801DA034600E003239C46C11A0AAE51
:1005E0000AE05F0008ADED5B4F00F75B7D4300273D
:1005F000AA187C41491C5B1E6145F2DD410004AB39
:100600005A522104120C0A43240C401C0828DFDB38
:10061000019802900099704601910090059B049A00
:100620000799069800F009F9D0E700000DFCFFFFDC
:10063000F0B50C465C4085B0E40FE40703944C0031
:10064000002664085900944649080246029622434F
:1006500021D062460A431ED06200570D4A000E03A5
:100660002303550D012402462C492405781B1B0B3E
:10067000360B401823432643614600901C46501A0F
:10068000B44103D30098401C009002E092180098F7
:100690005B41002803DA0020014605B0F0BD0020D0
:1006A000012109050746864611E064461D46141BD4
:1006B000B54106D36546521BB341744607430C430C
:1006C000A646CD0740084908284392185B410546D5
:1006D0000D43EAD11046184313D0604619465040E6
:1006E0007140084306D06046101AB34106D2012279
:1006F000002306E000220123DB0702E00122D243AF
:100700005310009874460105381C6141029C039DFA
:100710000019694100F084F8BFE70000FD03000004
:100720004A0009030123090B1B0519430A4B10B5A5
:10073000520D9A4202DA0020014610BD064B3433B6
:100740009A4203DC9A1A00F047F810BD034BD21806
:1007500000F032F810BD0000FF030000CDFBFFFFEA
:1007600010B5002904DB0124E40740428C412146F6
:10077000002B04DB1C460123DB075242A3419942B4
:1007800000D1904210BD00001CB5094800900948F6
:10079000019005460126009C05E0E36807CC334341
:1007A0000C3C98471034AC42F7D3FFF78DFC0000A7
:1007B00084500000A450000010B5202A04DB01463C
:1007C000203A9140002010BD914020239C1A0346FE
:1007D000E3401943904010BD10B5202A04DB0846C1
:1007E000203AD040002110BD0B46D340D0402024F9
:1007F000A21A91400843194610BD10B5202A06DB05
:10080000CB170846203A1041C1170B4306E00B46B0
:100810001341D0402024A21A91400843194610BD2C
:1008200010B5002B08DA0024401C614192185B418E
:100830001A4301D14008400010BDF0B51FB482B08A
:1008400005460C0003D0084603F03CFF02E003F02D
:1008500039FF20300246009021462846FFF7ACFFC2
:10086000049B059A04460F4618431143084314D0CD
:10087000184610431BD0009840210A1A18460599C3
:10088000FFF7AAFF05460E46009A05990498FFF760
:1008900093FF084305D0012004E02046394607B005
:1008A000F0BD0020C11705430E432C433743009988
:1008B0000E986305401A7905E40A00220C43FD0AEC
:1008C0000A3002D500200146E9E701051019694107
:1008D0000C9C0D9D00196941FFF7A2FFDFE7811E07
:1008E000091F00BFFCD2704784B0039002910192AF
:1008F0000398006800900098019988430090009840
:100900000299019A114008430399086004B07047A6
:1009100082B001900091009B0199034A88581843C6
:10092000885002B07047C0464810000082B0019065
:1009300000910098019995225201885002B07047A9
:1009400082B001900091009801999522520188503F
:1009500002B0704782B001900091009801999522F1
:100960005201885002B0704782B001900091009B04
:100970000199034A88581843885002B07047C0460E
:100980002810000082B00190009100980199024A5D
:10099000885002B07047C046D012000081B000906D
:1009A00000990120C2026A48885001B07047C046D1
:1009B00010B584B0069C03900291019200930298B6
:1009C00001990843009908430699084303490843DD
:1009D000039989001F4A885004B010BD81000400AB
:1009E00081B00090009881001A4A8120885001B09F
:1009F0007047C04610B584B0069C039002910192E6
:100A00000093029801990843009908430699084306
:100A100081210843039989000E4A885004B010BD13
:100A200082B0019000910098034908430199890020
:100A3000084A885002B070478000040082B00190DC
:100A4000009100988021084301998900014A88504B
:100A500002B070470480424082B00190009101983A
:100A60002721C90140580099084002B07047000092
:100A700081B000900099BB4ABB48885001B07047D4
:100A800082B00190009100980199074A885002B005
:100A90007047C04682B00190009100980199024AC7
:100AA000885002B07047C0469012000082B001909A
:100AB0000091009B01999D2042018858184388505D
:100AC00002B07047064908680122904308607047E9
:100AD0000349086801221202904308607047C0462B
:100AE00008010B4003490868012212031043086003
:100AF0007047C04604010B4081B001466846017052
:100B000000780249086001B07047C04608030B40F6
:100B100080B582B0014601A8017001780248032225
:100B2000FFF7E2FE02B080BD00010B4081B00090F3
:100B30000099F94A0120885001B0704781B00090B7
:100B400000990120C202D748885001B07047C046C2
:100B50000100002681B0009000980321C90240588E
:100B600001B07047F0B5BC4A82183B4BC3180879F6
:100B70004E793A4D764C002E23D0202804D00526FD
:100B8000F601002803D003E0354E002800D1882666
:100B9000576F2F4037435767976F2F4037439767FB
:100BA000566B26405663966B264096630026566524
:100BB00096658F26F6435F6837405F609F683740D1
:100BC0009F608E79096820280BD0002819D1491E12
:100BD0005160D76E2F4088210F43D7661746703774
:100BE00019E0491E5160D16E29401D4F3943D1662D
:100BF000116F29403943116701214907194D1746E3
:100C000009E049085160D76E2F400521C9010F4303
:100C1000D766174670373C682C400C433C60D16A5D
:100C20004B4C2140D162116B214011630021D164F2
:100C300011658F21C943D46F0C40D4671C680C40E8
:100C40001C600643BD2030401168074B0B40C018A4
:100C5000801C1060F0BDC0468418000024493E008E
:100C600001040000FFFFFFCF4000FFCFB0B54A688E
:100C70006E4BC250784A80180A78222A58D89300BE
:100C800001A4E3589F46C046270D0000310D000027
:100C9000270D0000310D0000310D0000310D000066
:100CA000310D0000310D0000310D0000310D00004C
:100CB000310D0000310D0000310D0000310D00003C
:100CC000310D0000310D0000150D0000310D000048
:100CD000150D0000310D0000310D0000310D000038
:100CE000310D0000310D0000310D0000310D00000C
:100CF000310D0000310D0000310D0000310D0000FC
:100D0000310D0000310D0000150D0000310D000007
:100D1000150D000003231B0704689C4301235B0798
:100D2000E318036004E003231B0704689C4304608A
:100D30000B69C360CB68054C1C40C36A044D1D4061
:100D40002B19C362097A11430160B0BD77770200A5
:100D50008888FDFF81B000900099794A79488850D1
:100D600001B0704704080000030000B182B0019098
:100D700000910098019911221202885002B0704728
:100D800010B507239B04194092008018024A84582A
:100D90009C436118815010BD3018000010B5029CB2
:100DA000A400001911431943014A815010BDC046E7
:100DB0005018000092008018014A81507047C046C8
:100DC0001018000010B50122120383180C789C60E3
:100DD0004B7883508978014A815010BD0C11000076
:100DE00010B586B001930B4601460198059104A900
:100DF0000B8003AB1A8002AA10800598164C0019CC
:100E000009881B88194312881143024AFFF76CFDB9
:100E100006B010BD80FF000082B0019000910098E4
:100E20000199024A885002B07047C0460818000075
:100E300082B001900091009801990322D20288505B
:100E400002B0704781B000900099034A885801238E
:100E50001843885001B070470418000081B000901A
:100E6000009911200202885801231843885001B0CC
:100E70007047000082B001900091009B0199034AE5
:100E800088581843885002B07047C04628100000A8
:100E900081B0009000990120C2020248885001B040
:100EA0007047C0460100002681B000900098812163
:100EB00049014058C0B201B070470000B0B51122DE
:100EC000120283580124A34383500B888C781C435F
:100ED0008B882343094C1C408358094D1D406319DE
:100EE00083508B79CC791C43097A21437E231940A6
:100EF000801842689A4351184160B0BD18670000DD
:100F0000E798FDFF81B00090009803494058012107
:100F1000084001B07047C0460811000081B0009041
:100F2000009802494058C0B201B070472411000037
:100F300081B000900099024A0248885001B0704781
:100F400004080000030000B180B584B00390029152
:100F5000019203980B49401802990B4AFFF7C4FC11
:100F600003980A49401801993F22FFF7BDFC0399F5
:100F7000074A8818895801221140FFF7B5FC04B0D0
:100F800080BDC04610110000FFFF000014110000DA
:100F90000411000010B50122120383180C789C6024
:100FA0004978815010BD80B582B0019000910198C0
:100FB00011210902401800990322D203FFF794FC83
:100FC00002B080BD82B0019068460170007801993E
:100FD00089225201885002B07047000000000000D2
:100FE000EFF309800E4B1A6820381060F0C04446B9
:100FF0004D4656465F46F0C008B572B602F058FB43
:1010000062B60CBC116808681030F0C8A046A9464A
:10101000B246BB4680F309882038F0C81847C0465E
:10102000302120207047000080B58CB00E200821B0
:101030000191FFF703FDBE480A900421FFF7A2FCCF
:1010400001990F20FFF7FAFC01990A98FFF79AFC23
:10105000142002210291FFF7F1FC02991520FFF7FD
:10106000DFFC002104910091012003904204C3049D
:1010700005933020FFF79CFC0398049B0093020427
:1010800031201946FFF7B6FC049A059B00922720F1
:101090001146FFF78DFC1920FFF7A2FC1E20FFF779
:1010A0009FFC2520FFF79CFC2620FFF799FC2220BF
:1010B000FFF796FC2320FFF793FC049A059B009210
:1010C0003A201146FFF774FC049A059B00923620E3
:1010D0001146FFF76DFC049A059B009233201146E0
:1010E000FFF766FC049A059B00922F201146FFF73C
:1010F0005FFC1F20FFF774FC2020FFF771FC2A2003
:10110000FFF76EFC049A059B00922B201146FFF717
:101110004FFC1B204103069184480790FFF706FC13
:1011200006990798FFF72EFC079805218904FFF719
:10113000BDFC0798032149060891FFF7E9FB0798D2
:101140000899FFF711FC0A980B490991FFF7EEFB8C
:1011500009990A98FFF716FC0A980849FFF7A6FCB8
:101160000A98112109050B91FFF7D2FB0A980B99F8
:10117000FFF7FAFB0CB080BD00C243000005010080
:1011800080B584B01E496B480390FFF71BFE03989F
:101190001C49FFF7E7FC03980023019319461A4600
:1011A000FFF71EFE019B0398009319461A46FFF7AE
:1011B000F5FD019A03981146FFF7E2FD019A0398A5
:1011C0001146FFF7F7FD019B039801210291009161
:1011D00019461A46FFF7E2FD0199029A0398FFF7B4
:1011E000CFFD0199029A0398FFF7E4FD0398FFF7FA
:1011F0009DFC03980321FFF7B9FD04B080BDC046F4
:10120000CC4F0000D04F000080B582B0002001908C
:10121000FFF772FC0198FFF77BFCFFF753FCFFF729
:1012200057FCFFF75FFC0199012000F0DDF802B0E8
:1012300080BD000080B582B00649E0480190FFF70C
:10124000C1FD01980449FFF711FD0198FFF76EFCFD
:1012500002B080BDD84F0000DC4F000080B582B0E6
:101260000F494A480190FFF795FE01980D49FFF795
:1012700025FE01980021FFF796FE01981121172203
:10128000FFF762FE019801218902FFF7F3FD0F20AD
:10129000032100F0A9F80198FFF7E0FD02B080BD3E
:1012A000F04F0000F24F000080B500F015F8FFF796
:1012B000BBFEFFF7A9FFFFF763FFFFF7BBFFFFF7D9
:1012C000CDFF0349B822002088540249885480BDCC
:1012D000EC042020A805202080B586B0134801909A
:1012E000FFF7C6FB12480290FFF7C2FB11480390BC
:1012F000FFF730FDB1480490FFF72CFDF54805904D
:10130000FFF716FE0198FFF749FB0298FFF746FB2F
:101310000398FFF713FC0498FFF710FC0598FFF7FC
:10132000B7FD1020FFF7DBFA06B080BD00000A40D1
:1013300000200A400020864080B582B001F0D8FE2F
:10134000019002F041FF002805D0FFE701200007CF
:1013500003490860FFE7019801F07FFF02B080BDFC
:1013600004ED00E010B5DB48FFF79EFD0B280CD123
:10137000FFE7D848FFF7D2FD804980240A59531C63
:101380000B51885400F0E6F8FFE710BD00801040D4
:1013900081B001466846017000214056002809D4FA
:1013A000FFE7684601781F2001400120884002497C
:1013B0000860FFE701B0704780E200E081B00146BD
:1013C0006846017000214056002809D4FFE76846AE
:1013D00001781F2001400120884002490860FFE792
:1013E00001B0704700E100E070B582B0024601A88C
:1013F0000270009100214056002816D4FFE7002417
:1014000001A908570322D3431840174A80580957A7
:101410008C07E50EFF24AC40A043009CA401E4B27D
:10142000AC402043194088501AE001A908780F24E5
:10143000204008380322D34318400A4A8058002528
:1014400049578D07EE0EFF25B540A843009DAD011D
:10145000EDB2B54028432140083919408850FFE7D4
:1014600002B070BD1CED00E000E400E080B584B087
:1014700002900191009202980099FEF7EFFE002879
:1014800003D1FFE7009803900CE002980199FEF762
:10149000F3FE002803D1FFE70198039002E00298D1
:1014A0000390FFE7039804B080BD000082B0009075
:1014B00000981F49884205DBFFE77D20C00001A995
:1014C00008800CE000981B49884204DCFFE701A972
:1014D0001948088003E0009801A90880FFE700216F
:1014E00001A8405E02B0704782B0014668460180A4
:1014F0000021405E0E49884205DBFFE77D20C000E9
:1015000001A908800EE000216846405E0949884232
:1015100004DCFFE701A90848088003E0009801A95E
:101520000880FFE7002101A8405E02B07047C04676
:10153000E903000017FCFFFF18FC000080B582B033
:101540000F200190FFF724FF0198FFF737FF02B04B
:1015500080BD000081B00948802140587F2806DB0B
:10156000FFE70649802200208850009002E0012019
:101570000090FFE7009801B07047C04608002020A7
:1015800080B582B001900198002815D0FFE701993D
:101590000A480090FFF740FC00980199FFF748FCCB
:1015A0000098FFF74FFCFFE70448FFF7D3FA002845
:1015B00001D0FFE7F8E7FFE702B080BD00008640FA
:1015C00080B5002001F006FD80BD80B584B0039099
:1015D0000398002801D1FFE72DE00399002008724D
:1015E00002A90870FFE702A80078072823D8FFE7C0
:1015F00002A80190007801F0EDFC3220FFF7C0FF57
:1016000001F0DEFC0199039A0B78D0540398097815
:10161000405C002809D0FFE702A800780122824040
:101620000399087A10430872FFE7FFE70298401C0D
:1016300002A90870D7E704B080BD000080B586B06D
:101640000590FFF7BDFF02F0B5FD0190FFE702A88E
:101650000090FFF7BAFF01F073FE0099B04809222D
:10166000FEF742FD01F076FE00F078F901A80521B1
:1016700002F068FCEBE7C04680B584B007480290F2
:1016800007480190022000900648074901221202F3
:10169000002302F00DFC04B080BDC0468C04202065
:1016A0008C0020203D1600002450000080B582B040
:1016B00001900091FFE70748FFF724FC002801D0C4
:1016C000FFE7F8E701A801780248FFF77BFC0198E3
:1016D00002B080BD0080104081B0009000980028CA
:1016E00001D1FFE724E000991248086000991248F0
:1016F000486000990020886000991048C8600099EF
:101700000F48086100990F48486100990E488861A8
:101710000099AF204000888300992320C000C8832F
:1017200000990A4808840099222201208854FFE782
:1017300001B0704700002F440AD7A33C00007AC4D0
:1017400000007A44000096C400009644ECFF0000BC
:1017500010B58CB00B900A910B98002801D1FFE7CF
:1017600022E00A98002809D0FFE70A9901A81CC9BD
:101770001CC01CC91CC01CC91CC003E001A8FFF789
:10178000ABFFFFE70B985021FEF7C7FC0B9801A9B0
:101790001CC91CC01CC91CC01CC91CC00B99084614
:1017A000243000F072FDFFE70CB010BD80B582B0B0
:1017B00001900198002801D1FFE708E001994C222F
:1017C000002088520198243000F080FDFFE702B02D
:1017D00080BD000080B5B0B02F902EA90020087009
:1017E0002AA9088029A90880069005901EA80390C0
:1017F000FFF772FF039907A8FFF7AAFFFFE7002092
:10180000C243012101F078FC01F09AFD44480290A6
:10181000017A2BAA11720279417909028A18817919
:101820000B04C1790906C91889182C9102784178EE
:101830000902891882781204C078000680184018BE
:101840002B9001F087FD02F0B5FC04902EA80078E3
:10185000C007002813D0FFE704980599401A06999D
:10186000884208D2FFE700222AA8805E29A9895E63
:1018700000F080FCC3E72EA900200870FFE707A84E
:101880002BA91BAA00F07EF8002809D1FFE728A9A0
:101890000020088027A9088007A8FFF787FF36E007
:1018A0001BA8807A032809D1FFE728A90020088017
:1018B00027A9088007A8FFF779FF27E01BA8019058
:1018C00028A927AA00F0AFFB0198008900281CD0A6
:1018D000FFE71BA802897D20C10008465043FEF7A0
:1018E000FDFC06900698002803D1FFE70120069032
:1018F000FFE70498059028982AA90880279829A925
:1019000008802EA901200870FFE7FFE7FFE700220B
:1019100028A8805E27A9895E00F02CFC6FE7C046EE
:101920006406202080B584B00848029008480190E1
:10193000032000900748084901221202002302F008
:10194000B7FA0F49086004B080BDC046740A202071
:1019500074062020D51700003A50000080B582B0F0
:1019600007480068002809D0FFE705480068002202
:1019700000920223114602F04FFBFFE702B080BD48
:101980007006202080B590B00E900D910C920E98AC
:10199000002808D0FFE70D98002804D0FFE70C9836
:1019A000002804D1FFE70FA900200870ECE20E9890
:1019B0000D9900F009FB014602A801900170017821
:1019C000012211400BAA117001780222114049082E
:1019D0000AAA1170017804221140890809AA11701D
:1019E000017808221140C90808AA11700178102254
:1019F0001140090907AA11700178202211404909F4
:101A000006AA1170017840221140890905AA1170B7
:101A10000178C90904AA117002990C9A11700C9AE4
:101A2000002191720E9A928B0C9BDA800C9A118194
:101A30000E994C22895A03AA11800078002804D1FB
:101A4000FFE70C990320887278E208A80078C007A5
:101A5000002816D0FFE707A80078C007002810D09C
:101A6000FFE70BA80078C00700280AD1FFE704A809
:101A70000078C007002804D1FFE703A900200880F0
:101A80005BE20BA80078C007002806D1FFE70AA890
:101A90000078C00700281BD0FFE708A80078C0071F
:101AA000002806D1FFE707A80078C00700280FD05C
:101AB000FFE703A9FE4808800C99012088720E9860
:101AC000008C0C99C8800C994B208000088133E26F
:101AD00005A80078C007002806D1FFE704A8007811
:101AE000C00700281BD0FFE708A80078C00700281F
:101AF00006D1FFE707A80078C00700280FD0FFE74E
:101B000003A9142008800C99022088720E98008C7A
:101B10000C99C8800C994B20800008810BE20BA81F
:101B20000078C00700282ED1FFE70AA80078C00778
:101B3000002828D1FFE709A80078C007002822D193
:101B4000FFE708A80078C00700281CD0FFE707A817
:101B50000078C007002816D1FFE706A80078C00764
:101B6000002810D1FFE705A80078C00700280AD197
:101B7000FFE704A80078C007002804D1FFE703A905
:101B8000CC480880D6E10BA80078C00700282ED1E9
:101B9000FFE70AA80078C007002828D1FFE709A8B6
:101BA0000078C007002822D0FFE708A80078C00707
:101BB00000281CD0FFE707A80078C007002816D12E
:101BC000FFE706A80078C007002810D1FFE705A8A6
:101BD0000078C00700280AD1FFE704A80078C007F2
:101BE000002804D1FFE703A9EA480880A1E10BA877
:101BF0000078C00700282ED1FFE70AA80078C007A8
:101C0000002828D1FFE709A80078C007002822D0C3
:101C1000FFE708A80078C00700281CD1FFE707A845
:101C20000078C007002816D1FFE706A80078C00793
:101C3000002810D1FFE705A80078C00700280AD1C6
:101C4000FFE704A80078C007002804D1FFE703A934
:101C5000D14808806CE10BA80078C00700282ED17D
:101C6000FFE70AA80078C007002828D0FFE709A8E6
:101C70000078C007002822D1FFE708A80078C00735
:101C800000281CD1FFE707A80078C007002816D15C
:101C9000FFE706A80078C007002810D1FFE705A8D5
:101CA0000078C00700280AD1FFE704A80078C00721
:101CB000002804D1FFE703A9B848088037E10BA842
:101CC0000078C007002832D0FFE70AA80078C007D4
:101CD00000282CD1FFE709A80078C007002826D1EA
:101CE000FFE708A80078C007002820D1FFE707A871
:101CF0000078C00700281AD1FFE706A80078C007BF
:101D0000002814D1FFE705A80078C00700280ED1ED
:101D1000FFE704A80078C007002808D1FFE703A95F
:101D20009F4808800E98C08B0C99C880FEE00BA8D5
:101D30000078C00700282ED1FFE70AA80078C00766
:101D4000002828D1FFE709A80078C007002822D181
:101D5000FFE708A80078C00700281CD1FFE707A804
:101D60000078C007002816D0FFE706A80078C00753
:101D7000002810D0FFE705A80078C00700280AD186
:101D8000FFE704A80078C007002804D1FFE703A9F3
:101D900003200880C9E00BA80078C00700282ED1D6
:101DA000FFE70AA80078C007002828D1FFE709A8A4
:101DB0000078C007002822D1FFE708A80078C007F4
:101DC00000281CD1FFE707A80078C007002816D11B
:101DD000FFE706A80078C007002810D0FFE705A895
:101DE0000078C00700280AD1FFE704A80078C007E0
:101DF000002804D1FFE703A90520088094E00BA880
:101E00000078C00700282ED1FFE70AA80078C00795
:101E1000002828D1FFE709A80078C007002822D1B0
:101E2000FFE708A80078C00700281CD1FFE707A833
:101E30000078C007002816D1FFE706A80078C00781
:101E4000002810D0FFE705A80078C00700280AD0B6
:101E5000FFE704A80078C007002804D1FFE703A922
:101E6000082008805FE00BA80078C007002837D161
:101E7000FFE70AA80078C007002831D1FFE709A8CA
:101E80000078C00700282BD1FFE708A80078C0071A
:101E9000002825D1FFE707A80078C00700281FD138
:101EA000FFE706A80078C007002819D104E0C04663
:101EB000ECFF0000FFFF000005A80078C007002825
:101EC0000ED1FFE704A80078C007002808D0FFE77C
:101ED00003A90C2008800E98C08B0C99C88021E0C3
:101EE00008A80078C00700280AD0FFE707A80078F4
:101EF000C007002804D1FFE703A92548088010E0A7
:101F000008A80078C00700280AD1FFE707A80078D2
:101F1000C007002804D0FFE703A901200880FFE7DD
:101F2000FFE7FFE7FFE7FFE7FFE7FFE7FFE7FFE781
:101F3000FFE7FFE7FFE7FFE7FFE7FFE70C98807A9F
:101F4000032805D0FFE703980E994C228852FFE73B
:101F500003980C9948800E9824300090002103A823
:101F6000405EFEF797F9014600980C9A927AD21ECD
:101F7000531E9A4100F024F9FEF797F90C998880D6
:101F80000FA901200870FFE70FA8007810B080BDEE
:101F9000FFFF0000FEFF0000FCFF0000FAFF000052
:101FA000F4FF000080B582B000200190FFF77CF9BB
:101FB00000F0B4F8FFF7B6FCFFF75EFB00F0DCF9C9
:101FC00001F012FBFFE7FEE784B00390029169463F
:101FD0000020087001A90870FFE701A80078072811
:101FE0001DD8FFE7029801A90978405C411E88418D
:101FF00003992222895C4A1E9141884209D1FFE758
:1020000001A80078012181400098084369460870C2
:10201000FFE7FFE70198401C01A90870DDE768466B
:10202000007804B0704780B586B0059004910392A3
:10203000059B0620195E04229B5EC9180291059932
:10204000085E895E401A01900298FFF72FFA049902
:1020500008800198FFF72AFA0399088006B080BD2E
:1020600080B582B00020019000F01EF8019908466A
:1020700000F002F802B080BD80B586B00191024642
:10208000019805A90A8004AA0392108000200290FA
:10209000095E00F0C1FF02990398415E012000F043
:1020A000BBFF06B080BD000080B582B0014601A82C
:1020B00001700078C007002806D0FFE701208103E7
:1020C0000548FEF7E7FC05E0012081030248FEF722
:1020D00041FCFFE702B080BD00200A4080B582B01D
:1020E0000190FFF7BDFF0120FFF7DEFFFFE7334858
:1020F000006869461E2201F0B0FD012808D1FFE703
:1021000000206946085E0222895EFFF7B5FF04E001
:1021100000210846FFF7B0FFFFE7E8E710B586B0FB
:102120000020049000900D4A0D4B012003900421E3
:10213000059101F069FB039A049B014605981F4C29
:102140002160084902910849019100900748084917
:10215000120201F0ADFE06B010BDC046D80A202024
:10216000DC0A20202C0F20202C0B2020DD2000005A
:102170003050000080B584B002AA108001A8018010
:102180000E480068002804D1FFE703A9002008706A
:1021900010E0029869460880019848800748006866
:1021A0000022022301F0E0FB401E4142484103A906
:1021B0000870FFE703A8007804B080BDD40A20208F
:1021C00080B58CB00A90099108A802700020079091
:1021D0000A98002803D1FFE700200B9052E008A8DE
:1021E0000078C007002811D0FFE709990A980590E8
:1021F000C069FDF79DFF0599C8610A980269C16829
:10220000C069FFF733F90A99C861FFE70A982421EA
:10221000405CC007002807D0FFE709980A99096ABF
:10222000FDF7D7FF0790FFE7099801900A990391FE
:1022300008680090C8694968FDF7D3FF0099024615
:1022400001980292FDF7CDFF0299FDF771FF039906
:10225000049007988968FDF7C4FF0499FDF768FFAB
:1022600006900A98826941690698FFF7FFF8069080
:1022700009980A9908620A9924220120885406982C
:102280000B90FFE70B980CB080BDB0B58AB00990F9
:1022900008910998002804D0FFE70898002801D188
:1022A000FFE711E0089901A800901CC91CC03CC9B7
:1022B0003CC009982821FDF730FF009909981CC9F6
:1022C0001CC03CC93CC0FFE70AB0B0BD81B0009063
:1022D0000098002801D1FFE708E000990020C861BC
:1022E00000990862009924228854FFE701B07047E2
:1022F000F0B58DB00C90FFF721F9FFE701F020F861
:102300001B480690017A09AA079211720279417955
:1023100009028A1881790B04C1790906C91889183C
:102320000A91027841780902891882781204C078EB
:10233000000680184018099001F00CF80798C17940
:102340008279437904790894C47885784678077847
:10235000007A0590089804970396029501940090DE
:10236000044802F09FF97D20800001F0CDF8C5E718
:10237000640620204450000080B584B006480290D6
:102380000648019001220092054806499202002366
:1023900001F08EFD04B080BD8C1F20208C0F20200A
:1023A000F12200006750000080B584B003900291D4
:1023B00023480068009059480068001D00F0FCFEAA
:1023C000002801D1FFE700E0FFE70398401C002848
:1023D0000BD1FFE70298002807D0FFE74F480068BD
:1023E000011D1B4800F08FFF28E00098039940185A
:1023F000019001984949096848600198009988420C
:1024000008D2FFE71148006844490968091D00F037
:1024100044FF12E00B48006840490968091D00F0BC
:102420003CFF019808490968884204D2FFE70198F7
:102430000549086000E0FFE7FFE7FFE704B080BD63
:1024400098272020382120204027202040212020AC
:102450007027202080B582B0019000F071FF6049A4
:102460000868401C08602D48006800280DD1FFE76F
:1024700001982A4908605A480068012803D1FFE7FB
:1024800000F036FA00E0FFE714E025480068002875
:102490000ED1FFE721480068C06A0199C96A8842E5
:1024A00004D8FFE701981D49086000E0FFE700E05D
:1024B000FFE7FFE71B480168491C016000680199BC
:1024C00008640198C06A18490968884205D9FFE77D
:1024D0000198C06A14490860FFE70199C86A14228C
:1024E000424312488018091D00F00DFF00F032FF32
:1024F0000B48006800280DD0FFE708480068C06A54
:102500000199C96A884203D2FFE700F0BBFF00E0EF
:10251000FFE700E0FFE702B080BDC0463021202089
:10252000642720201C222020202220204821202037
:1025300080B584B000F004FF11480068002819D16C
:10254000FFE71048029000F08BFE0F48039000F068
:1025500087FE029903988A4A11600C49086000209E
:1025600000900B4A0B4B14200C2101F04DF904494B
:10257000086000E0FFE700F0EDFE04B080BDC0465B
:102580009C272020E4262020F826202044212020FB
:10259000EC1F2020DC20202080B582B0FFE70F4810
:1025A0000068002818D0FFE700F0CAFEEA48C068BB
:1025B000C06801900198001D00F0FEFD0849086800
:1025C000401E086005490868401E086000F0C2FE11
:1025D000019800F093F8E2E702B080BD14222020B9
:1025E0001022202080B582B0019000910198006CEB
:1025F000002817D0FFE701990A6CC8688018C860E6
:102600000199C8688968884204D3FFE7019908687E
:10261000C86000E0FFE70098019AD168126CFDF7EE
:1026200063FDFFE702B080BD80B586B005900491E0
:102630000392002002900598806B01900598006C31
:10264000002810D1FFE705980068002809D1FFE7AE
:102650000598806801F05AFE029005990020886074
:1026600000E0FFE743E00398002817D1FFE7059A51
:1026700050680499126CFDF737FD05990A6C48689B
:1026800080184860059948688968884204D3FFE744
:1026900005990868486000E0FFE727E0059AD068E0
:1026A0000499126CFDF720FD05990A6CC868801A20
:1026B000C8600599C8680968884206D2FFE705998D
:1026C00088680A6C801AC86000E0FFE70398022857
:1026D0000AD1FFE70198002804D0FFE70198401EC7
:1026E000019000E0FFE700E0FFE7FFE7FFE7019868
:1026F000401C05998863029806B080BD80B582B001
:10270000019001985D21405C002808D1FFE7019805
:10271000006B00F035FE019800F032FE14E00198E5
:102720005D21405C012804D1FFE7019800F028FEFC
:1027300009E001985D21405C022803D0FFE772B6F2
:10274000FFE7FEE7FFE7FFE702B080BD82B0019040
:10275000D4480068006841424841019908600198E6
:102760000068002806D1FFE7CE480068C06800680E
:10277000009002E000200090FFE7009802B0704750
:102780003421202080B582B00190FFE7FFF704FFDD
:10279000FCE710B584B0069C039002910192684654
:1027A00003700298002803D1FFE70698006003E059
:1027B000019806990860FFE703980699C863029894
:1027C000069908640698012101F07EF800980699A0
:1027D0004C22885404B010BD10B588B00D9C0C9CE0
:1027E0000B9C0A9C07900691059204930C98006B31
:1027F00005998900A522FDF789FC0C98016B0598C5
:1028000080004018001F039003980721884303901D
:1028100003A800784007002803D0FFE772B6FFE75F
:10282000FEE70698002820D0FFE700200290FFE78F
:1028300002980B2814D8FFE70698029A805C0C993E
:1028400089183422885406980299405C002801D1E6
:10285000FFE705E0FFE7FFE70298401C0290E7E78B
:102860000C993F220020885404E00C993422002067
:102870008854FFE70A980A2803D3FFE709200A9043
:1028800000E0FFE70A980C99C8620A980C998864DE
:102890000C9900200190C8640C98001D00F0F6FC13
:1028A0000C98183000F0F2FC01980C9909610A9A12
:1028B0000A21891A0C9A91610C9949620C99486510
:1028C00008650C9988650C995C22885403980799CF
:1028D000049A00F04FFB0C9908600B98002804D074
:1028E000FFE70C980B99086000E0FFE708B010BD07
:1028F00080B584B000200390FFE7039809280CD826
:10290000FFE70398142141431748401800F0A8FC42
:10291000FFE70398401C0390EFE70C48019000F09C
:102920009FFC0B48029000F09BFC0A4800F098FCCA
:10293000094800F095FC094800F092FC01990298C2
:10294000074A11600749086004B080BD10272020A5
:102950002427202050272020842720207027202073
:1029600038212020402120204821202083B00290BF
:102970002B480190FFE7019800680299884205D230
:10298000FFE7FFE7019800680190F4E701980090E5
:1029900000980199496840180299884209D1FFE7D7
:1029A000029842680199486880184860019802902E
:1029B00000E0FFE7029800900098029949684018EB
:1029C0000199096888421AD1FFE701980068154902
:1029D000096888420DD0FFE70198006842680299B3
:1029E000486880184860019800680068029908608B
:1029F00004E00C48006802990860FFE704E00198D1
:102A0000006802990860FFE701980299884204D0A3
:102A1000FFE702980199086000E0FFE703B0704704
:102A2000682720203C21202080B586B005900491A5
:102A3000039202930020019004980599486005983C
:102A4000006104980399884213D8FFE7039802991C
:102A5000401A05998969884203D3FFE70120019054
:102A600006E0BA4800680599091D00F016FCFFE76A
:102A700014E003980299884208D2FFE7049802996B
:102A8000884203D3FFE70120019006E0F648006882
:102A90000599091D00F001FCFFE7FFE7019806B06A
:102AA00080BDC0463421202080B582B0019000F066
:102AB00047FC0198806B002803D1FFE701200090BC
:102AC00002E000200090FFE700F044FC009802B014
:102AD00080BD80B582B0019000F032FC0198806B1F
:102AE0000199C96B884203D1FFE70120009002E001
:102AF00000200090FFE700F02DFC009802B080BDA0
:102B000080B586B005900491D7480068C068C06859
:102B100002900298001D00F04FFB02982821405CB3
:102B2000400700281CD5FFE70298059B81695918CA
:102B3000049AFFF779FF002810D0FFE70298059A62
:102B400000230093194601F065FD039003980028C7
:102B500003D1FFE772B6FFE7FEE700E0FFE706E01C
:102B600002992822885CFE2318408854FFE70298C7
:102B7000016A884706B080BD80B58AB0FFE7744817
:102B8000006807A9002201F068F8002800D199E048
:102B90000798002800D594E00998069006984069A7
:102BA000002805D0FFE70698001D00F005FB00E0B7
:102BB000FFE705A800F0E6F80390079802900928BF
:102BC00000D97CE00298810001A040588746C046A9
:102BD000F92B0000F92B0000F92B0000592C000004
:102BE000672C0000992C0000F92B0000F92B000045
:102BF000592C0000672C000006992822885C0123CC
:102C0000184388540698089B81695918039AFFF75E
:102C10000BFF00281ED0FFE70698016A8847069838
:102C20002821405C4007002812D5FFE70698089944
:102C300082698A1800230093194601F0EBFC049086
:102C40000498002803D1FFE772B6FFE7FEE700E033
:102C5000FFE700E0FFE733E006992822885CFE23C7
:102C6000184088542CE006992822885C01231843D8
:102C7000885408980699886106988069002803D1CD
:102C8000FFE772B6FFE7FEE70698039B81695918D4
:102C90001A46FFF7C9FE13E006982821405C80071A
:102CA000002804D4FFE7069800F06AFB06E00699C6
:102CB0002822885CFE2318408854FFE700E0FFE7E5
:102CC000FFE75CE70AB080BD80B584B00390029155
:102CD00000F0E8FC684600F055F8019000980028E4
:102CE0002ED1FFE7029800280CD1FFE70398019945
:102CF000884207D8FFE701F0B7FB03980199FFF777
:102D0000FFFE1CE00298002807D0FFE75748006844
:102D10000068414248410290FFE70D48006803996E
:102D2000019A891A029A00F0B9FB01F09DFB002874
:102D300003D1FFE700F0A6FB00E0FFE7FFE702E0BA
:102D400001F092FBFFE704B080BDC0464421202083
:102D50009C272020094800680068002805D1FFE76B
:102D600007490020C043086006E004480068C068C6
:102D7000006803490860FFE77047C04638212020FB
:102D80004027202080B582B0019001F013FA009016
:102D900000980A490968884206D2FFE700F010F857
:102DA00001990120086003E0019900200860FFE715
:102DB000009802490860009802B080BD2C212020B4
:102DC00080B586B0FFE7284800680068002840D03A
:102DD000FFE725480168C968096805910068C0686F
:102DE000C06802900298001D00F0E6F90298016A9E
:102DF000884702982821405C4007002827D5FFE734
:102E000005980299896940180490049805998842A8
:102E10000CD9FFE7049802994860029800611248B3
:102E200000680299091D00F038FA0FE00298059A2F
:102E300000230093194601F0EDFB01900198002852
:102E400003D1FFE772B6FFE7FEE7FFE700E0FFE729
:102E5000B9E7054A106803900449086810600398B0
:102E6000086006B080BDC0463421202044212020C7
:102E700081B00020009009480068401C002803D061
:102E8000FFE772B6FFE7FEE772B6FFE7009800289B
:102E900001D1FFE7FAE701B07047C04604002020E7
:102EA00080B584B00390FFE701A8FFF74FFC0290C4
:102EB00002980199FFF708FFFFF75EFEF4E780B57F
:102EC00084B0039000F03CFA03984521405C02A9CD
:102ED0000870FFE7002102A84056012817DBFFE732
:102EE0000398406A00280CD0FFE70398243001F0D3
:102EF00069FA002803D0FFE700F03AFB00E0FFE7A3
:102F000000E004E00298401E02A90870E2E703997D
:102F10004522FF20885400F01DFA00F011FA0398B2
:102F20004421405C01A90870FFE7002101A8405638
:102F3000012817DBFFE703980069002810D0FFE79E
:102F40000398103001F03EFA002803D0FFE700F0AC
:102F50000FFB00E0FFE70198401E01A9087000E0A8
:102F600000E0E2E703994422FF20885400F0F2F9E0
:102F700004B080BD83B00290019100920298001FBE
:102F8000029002990120000608600298001F02903A
:102F90000198029908600298001F02900299074860
:102FA000086002981438029000980299086002980C
:102FB00020380290029803B07047C046712E00007E
:102FC00080B5012081041348FDF746FD411E88416C
:102FD00080BDC04680B584B0014603A80170027868
:102FE000012001900240C1030A48029000F0D6FB84
:102FF00001990298039A9207D20F090400F0CEFBC0
:1030000001990298039A5207D20F490400F0C6FBB7
:1030100004B080BD00200A4080B586B0059004A8A9
:103020000180059914224A432449891803910021FB
:103030000091405EFEF758FA0099024602A802800D
:10304000405E01280EDBFFE7039948688968FDF7B9
:1030500021FD0399C8680969FDF77CFC029801A964
:10306000088023E0002102A8405E00280FD5FFE77A
:10307000039948688968FDF76DFC0399C868096978
:10308000FDF708FD0298404201A908800DE0039970
:1030900048688968FDF75EFC0399C8680969FDF70F
:1030A00059FC01A900200880FFE7FFE7039801A968
:1030B000098800F005F806B080BDC046FC4F00004E
:1030C00080B584B0039002A8018001881920C00156
:1030D00048437D21C900FDF701F90190019903984A
:1030E00002780248FDF766FE04B080BD00208640ED
:1030F000EFF3108072B6704780B584B003900291F0
:1031000001920398002803D0FFE772B6FFE7FEE7BD
:1031100000F016F927480068039989004018806D6F
:10312000002814D1FFE723480068039941185C2266
:10313000012088540198002807D0FFE70198012159
:10314000FFF732F900F09EF900E0FFE700E0FFE74B
:1031500000F000F900F0F4F81648006803998900BF
:103160004018806D00900098002816D0FFE7029864
:10317000002808D0FFE70F4800680399890041182C
:103180000020886508E00098401E0A490968039AF3
:10319000920089188865FFE700E0FFE705480068AE
:1031A000039941185C220020885400F0D3F800985D
:1031B00004B080BD3021202082B0019001980069C8
:1031C0000090019988684968886001994868896811
:1031D0004860009840680199884205D1FFE701984E
:1031E00080680099486000E0FFE7019900200861CD
:1031F00000990868401E08600098006802B0704797
:1032000083B00290019100920299054808600199EB
:103210000448086000998020086003B07047C046E9
:10322000242420202422202083B0029001910092A7
:1032300002990548086001990448086000998020B7
:10324000086003B07047C0468426202084242020D4
:1032500082B001900091FFE7FEE780F3108870478D
:1032600081B000900099084608304860009A00201C
:10327000C1439160009A11460831D160009A11460D
:10328000083111610099086001B0704781B0009069
:1032900000990020086101B0704784B0039002914A
:1032A0000298006800900098401C002804D1FFE7B5
:1032B00003980069019010E0039808300190FFE73F
:1032C0000198406800680099884205D8FFE7FFE749
:1032D000019840680190F3E7FFE701984068029980
:1032E0004860029841688860019802998860029855
:1032F0000199486003980299086103990868401C85
:10330000086004B0704783B0029001910298406851
:103310000090009801994860009880680199886041
:10332000019800998968486001980099886002981E
:103330000199086102990868401C086003B0704751
:1033400072B60E490868401C0860BFF34F8FBFF388
:103350006F8F704709480068002803D1FFE772B6F5
:10336000FFE7FEE705480168491E01600068002884
:1033700002D1FFE762B6FFE77047C0460400202095
:1033800080B584B0039003980290039800283FD042
:10339000FFE702980838029002980190019840686F
:1033A0001C490968084203D1FFE772B6FFE7FEE750
:1033B00001980068002803D0FFE772B6FFE7FEE738
:1033C000019840681349096808421FD0FFE7019837
:1033D0000068002818D1FFE70E4802680199486884
:1033E0009043486000F05EF9019842680A49086815
:1033F000801808600198FFF7B9FA08490868401C6E
:10340000086001F031F800E0FFE700E0FFE7FFE7C8
:1034100004B080BD0C2720203827202048272020FA
:10342000054900200860054A1060054A05481060FB
:10343000072008607047C04610E000E018E000E098
:1034400014E000E0FF7C000000000000000000002D
:103450000B4A13681868203080F30988022080F333
:103460001488BFF36F8F3FBCAE4608BC04BC62B685
:103470001847C046C046C046C046C046C046C046C3
:10348000302120200120000703490860BFF34F8F3F
:10349000BFF36F8F7047C04604ED00E080B584B085
:1034A00003900291019203980090FFF749FF009862
:1034B00044214056401C002805D1FFE700994422D2
:1034C00000208854FFE7009845214056401C002802
:1034D00005D1FFE70099452200208854FFE7FFF758
:1034E00039FF0098806B002807D1FFE7009824304F
:1034F0000299019A00F058F800E0FFE70098FFF702
:10350000DEFC04B080BD000080B582B001900020D8
:1035100000900198002812D0FFE79A480068002820
:1035200003D0FFE772B6FFE7FEE700F0BBF80198B3
:103530000021FEF739FF00F097FF009000E0FFE761
:103540000098002803D1FFE7FFF79CFF00E0FFE7AA
:1035500002B080BD81B00090044800680099086006
:103560004E4800680099486001B070474427202009
:10357000854901200860704780B582B001900091B4
:103580000198002803D1FFE772B6FFE7FEE7019834
:103590007E4909681831FFF780FE00980121FEF787
:1035A00003FF02B080BDC04680B584B00390029195
:1035B00001920398002803D1FFE772B6FFE7FEE708
:1035C0000398724909681831FFF79DFE0198002899
:1035D00004D0FFE70020C0430290FFE70298019962
:1035E000FEF7E2FE04B080BD80B588B000200390F5
:1035F0000690059006A805A904AAFFF701FE039B03
:10360000049A059806990291019000931E481F495B
:1036100000F04EFC01461E4801600068002803D0FF
:10362000FFE70120079002E000200790FFE70798DE
:10363000012804D1FFE700F0B1FF079000E0FFE7A9
:103640000798012812D1FFE772B6124A0020C14341
:103650001160114A012111601049086000F0B4F8AE
:10366000002801D0FFE700E0FFE708E00798401CD2
:10367000002803D1FFE772B6FFE7FEE7FFE708483F
:10368000006808B080BDC04685270000715000006A
:103690003C27202040272020642720209827202016
:1036A0008050000037490868401C08607047C046D9
:1036B00080B584B033480068002804D0FFE7324961
:1036C000012008605BE03049002008602F48006856
:1036D000006B03902E49029103980068884212D132
:1036E000FFE7039840682A4988420CD1FFE7039816
:1036F00080682749884206D1FFE70398C0682449BB
:10370000884207D0FFE72149086809683431FFF78C
:103710009FFDFFE71F4800680190FFE70198142113
:1037200041431D48405800280BD1FFE7019800286D
:1037300003D1FFE772B6FFE7FEE70198401E019054
:10374000ECE7019814214143134840180090009978
:10375000486840684860009948680831884205D147
:10376000FFE70099486840684860FFE700984068B4
:10377000C06806490860019806490860FFE704B080
:1037800080BDC04618222020A427202030212020E0
:10379000A5A5A5A5202220204821202080B584B001
:1037A0000390029101A802700078002805D0FFE77D
:1037B00003980299FDF764F904E003980299FDF774
:1037C000BFF8FFE704B080BD80B582B00C4908683F
:1037D000FF221304184308600868120610430860AB
:1037E000FFF71EFE0749002001900860FFF730FE3A
:1037F000FFF75EFFFFF73CFB019802B080BDC046BB
:1038000020ED00E00400202010B58AB004460C989A
:10381000099408910792069305A908700998002851
:1038200003D1FFE772B6FFE7FEE70698002803D151
:10383000FFE772B6FFE7FEE7079900200029029034
:1038400005D0FFE70898414248410290FFE70298FF
:10385000C007002803D0FFE772B6FFE7FEE707992D
:1038600000200029019005D1FFE70898411E8841FA
:103870000190FFE70198C007002803D0FFE772B668
:10388000FFE7FEE7502003900398502803D0FFE79E
:1038900072B6FFE7FEE703980698049004980028A4
:1038A0000ED0FFE704994622012088540998089910
:1038B000079A05AB1B78049C0094FEF76AFF00E0B2
:1038C000FFE704980AB010BD80B584B00390029160
:1038D000039801900198002803D1FFE772B6FFE733
:1038E000FEE7FFF72DFD01990868CB6B0A6C5A4380
:1038F00080188860019900208863019908684860F1
:1039000001990868CA6B531E0A6C5A438018C86034
:1039100001994422FF208854019945228854029835
:10392000002813D1FFE70198006900280CD0FFE7B9
:103930000198103000F046FD002803D0FFE7FFF7A4
:10394000A1FD00E0FFE700E0FFE708E0019810308C
:10395000FFF786FC01982430FFF782FCFFE7FFF7B2
:10396000F9FC012004B080BD80B58EB00C900B91A5
:103970000A920993002008900C980490049800285B
:1039800003D1FFE772B6FFE7FEE70B99002000299D
:10399000039006D1FFE70498006C411E8841039014
:1039A000FFE70398C007002803D0FFE772B6FFE7E0
:1039B000FEE7099900200229029007D1FFE7049849
:1039C000C06B401E411E88410290FFE70298C0076D
:1039D000002803D0FFE772B6FFE7FEE700F0D0FB58
:1039E000014600200029019005D1FFE70A98411EF9
:1039F00088410190FFE70198C007002803D0FFE746
:103A000072B6FFE7FEE7FFE7FFF79AFC0498806BCA
:103A10000499C96B884204D3FFE70998022825D18D
:103A2000FFE704980B99099AFEF7FEFD07900498AA
:103A3000406A00280CD0FFE70498243000F0C2FC54
:103A4000002803D0FFE7FFF71DFD00E0FFE708E0D7
:103A50000798002803D0FFE7FFF714FD00E0FFE719
:103A6000FFE7FFF777FC01200D9063E00A9800283C
:103A700005D1FFE7FFF76EFC00200D905AE0089893
:103A8000002806D1FFE705A8FFF764FD0120089094
:103A900000E0FFE7FFE7FFE7FFF75CFCFFF702FE50
:103AA000FFF74EFC049844214056401C002805D1E5
:103AB000FFE70499442200208854FFE70498452139
:103AC0004056401C002805D1FFE7049945220020FC
:103AD0008854FFE7FFF73EFC05A80AA900F090F91B
:103AE00000281ED1FFE70498FEF7F3FF002811D04D
:103AF000FFE7049810300A99FFF73EFD0498FFF79E
:103B0000DEF900F0B1FC002803D1FFE7FFF7BAFCB3
:103B1000FFE705E00498FFF7D2F900F0A5FCFFE706
:103B200007E00498FFF7CBF900F09EFC00200D9011
:103B300000E069E70D980EB080BD80B58CB00B90A9
:103B40000A91099208930B9805900598002803D1D3
:103B5000FFE772B6FFE7FEE70A990020002902900E
:103B600006D1FFE70598006C411E88410290FFE7EF
:103B70000298C007002803D0FFE772B6FFE7FEE710
:103B8000089900200229019007D1FFE70598C06B32
:103B9000401E411E88410190FFE70198C0070028A0
:103BA00003D0FFE772B6FFE7FEE7FFF7A1FA069042
:103BB0000598806B0599C96B884204D3FFE7089884
:103BC000022841D1FFE705984521405C04A90091F6
:103BD00008700598806B039005980A99089AFEF77B
:103BE00023FD009800214056401C00281AD1FFE711
:103BF0000598406A002813D0FFE70598243000F0AC
:103C0000E1FB00280AD0FFE70998002804D0FFE76D
:103C100009990120086000E0FFE700E0FFE700E00D
:103C2000FFE70EE0002104A840567F2803D1FFE7FC
:103C300072B6FFE7FEE70498401C059945228854B8
:103C4000FFE70120079002E000200790FFE70698B9
:103C5000FFF703FB07980CB080BD80B58CB00A90CD
:103C600009910892002007900A980490049800286F
:103C700003D1FFE772B6FFE7FEE7099900200029AC
:103C8000029006D1FFE70498006C411E8841029023
:103C9000FFE70298C007002803D0FFE772B6FFE7EE
:103CA000FEE700F06DFA014600200029019005D1E1
:103CB000FFE70898411E88410190FFE70198C0077F
:103CC000002803D0FFE772B6FFE7FEE7FFE7FFF744
:103CD00037FB0498806B0390039800281FD0FFE700
:103CE00004980999FEF77EFC0398401E04998863A6
:103CF0000498006900280CD0FFE70498103000F009
:103D000061FB002803D0FFE7FFF7BCFB00E0FFE703
:103D100000E0FFE7FFF71EFB01200B906CE0089826
:103D2000002805D1FFE7FFF715FB00200B9063E0AB
:103D30000798002806D1FFE705A8FFF70BFC012034
:103D4000079000E0FFE7FFE7FFE7FFF703FBFFF760
:103D5000A9FCFFF7F5FA049844214056401C0028BE
:103D600005D1FFE70499442200208854FFE7049816
:103D700045214056401C002805D1FFE70499452203
:103D800000208854FFE7FFF7E5FA05A808A900F02E
:103D900037F800281FD1FFE70498FEF785FE0028BA
:103DA00012D0FFE7049824300899FFF7E5FB049848
:103DB000FFF785F800F058FB002803D1FFE7FFF775
:103DC00061FB00E0FFE705E00498FFF778F800F0FA
:103DD0004BFBFFE70FE00498FFF771F800F044FB9E
:103DE0000498FEF761FE002803D0FFE700200B9047
:103DF00002E0FFE7FFE76AE70B980CB080BD000028
:103E000080B586B0059004910598002803D1FFE79E
:103E100072B6FFE7FEE70498002803D1FFE772B609
:103E2000FFE7FEE7FFF78CFAE64800680290029889
:103E300005994968401A019004980068401C0028C0
:103E400003D1FFE7002003902BE018480068059994
:103E5000096888420CD0FFE70298059949688842B2
:103E600006D3FFE70120039004990020086017E0C3
:103E700001980499096888420BD2FFE7019A0499D6
:103E80000868801A08600598FFF764FB002003901B
:103E900005E004990020086001200390FFE7FFE798
:103EA000FFE7FFF757FA039806B080BD44272020AC
:103EB00070B58CB0129C119C109C0B900A910992C9
:103EC00008931198002803D1FFE772B6FFE7FEE7D9
:103ED0001298002803D1FFE772B6FFE7FEE76020E3
:103EE00005900598602803D0FFE772B6FFE7FEE76C
:103EF0000598129800281FD0FFE7119800281BD0C2
:103F0000FFE71298079011980799086307995D22B7
:103F1000022088540B980A99099A089B109C079DC7
:103F200000260396029506AD01950094FEF754FC19
:103F30000798FEF78FFA02E000200690FFE7069848
:103F40000CB070BD80B586B0059004910020019042
:103F50000598002803D1FFE772B6FFE7FEE7049853
:103F6000002803D1FFE772B6FFE7FEE7E1480068EB
:103F7000002803D0FFE772B6FFE7FEE7FFF792FBEA
:103F8000DD48006800900598006804994018039087
:103F9000009805990968884210D2FFE703980599AF
:103FA0000968884208D2FFE703980099884203D93C
:103FB000FFE70120019000E0FFE70FE0039805997B
:103FC0000968884205D3FFE703980099884203D91E
:103FD000FFE70120019000E0FFE7FFE70398059964
:103FE00008600198002807D0FFE703980099401A5D
:103FF0000021FEF7D9F900E0FFE700F035FA029062
:104000000298002803D1FFE7FFF73CFA00E0FFE742
:10401000019806B080BDC04610B588B00A9C0790D4
:104020000691059204A803700120029006980028CA
:1040300003D0FFE772B6FFE7FEE70798002803D139
:10404000FFE772B6FFE7FEE707980390FFF778F9FE
:104050000A98002808D0FFE70398069989004018BD
:10406000806D0A990860FFE70398069940185C2262
:10407000805C01A9087003980699411802208854B1
:1040800004A800780090042837D80098810001A087
:1040900040588746F9400000A9400000BB4000009E
:1040A000CB400000D9400000059A0398069989008A
:1040B0004118886D1043886528E0039806998900A7
:1040C0004118886D401C886520E005980399069A80
:1040D00092008918886519E001A80078022807D0A5
:1040E000FFE705980399069A92008918886502E00F
:1040F00000200290FFE709E008E07F480068002800
:1041000003D0FFE772B6FFE7FEE7FFE701A80078FC
:1041100001282ED1FFE70398001DFFF74DF8039803
:10412000C06ACE490968884205D9FFE70398C06A8A
:10413000CA490860FFE70399C86A14224243C84885
:104140008018091DFFF7DFF80398806A002803D064
:10415000FFE772B6FFE7FEE70398C06AC149096846
:10416000C96A884203D9FFE7FFF78CF900E0FFE74F
:1041700000E0FFE7FFF7EEF8029808B010BDC04678
:1041800081B00B480068002803D1FFE701200090B0
:104190000BE0B1480068002803D1FFE7022000903F
:1041A00002E000200090FFE7FFE7009801B07047B1
:1041B0006427202081B0504800680090009801B02A
:1041C0007047C0469827202080B586B00020039015
:1041D000EA480068002800D083E047490868401C8E
:1041E0000290029808600298002818D1FFE743481F
:1041F00000680068002803D0FFE772B6FFE7FEE71B
:104200003E4A106801903E490868106001980860B5
:104210003C490868401C0860FEF79CFD00E0FFE791
:10422000029839490968884251D3FFE7FFE73348CC
:1042300000680068002805D1FFE733490020C0432B
:10424000086043E02D480068C068C0680590059884
:104250004068049002980499884204D2FFE70498C9
:104260002949086032E0FFE70598001DFEF7A4FF2A
:104270000598806A002805D0FFE705981830FEF7FA
:104280009BFF00E0FFE70598C06AC14909688842C2
:1042900005D9FFE70598C06ABD490860FFE70599A1
:1042A000C86A14224243BB488018091DFFF72BF847
:1042B0000598C06AB8490968C96A884203D3FFE70C
:1042C0000120039000E0FFE7FFE7B0E7FFE7AF481A
:1042D0000068002803D0FFE70120039000E0FFE71B
:1042E00004E0A9490868401C0860FFE7039806B08D
:1042F00080BDC04618222020982720203821202069
:1043000040212020442720204027202080B584B051
:1043100003900398029000200190039800284DD04C
:10432000FFE702989C490968884203D0FFE772B60C
:10433000FFE7FEE70298C06C002803D1FFE772B6E2
:10434000FFE7FEE70299C86C401EC8640299C86A7C
:10435000896C884230D0FFE70298C06C002829D1D0
:10436000FFE70298001DFEF727FF002801D1FFE7B5
:1043700000E0FFE70299886CC8620299CA6A0A20C5
:10438000801A88610298C06A81490968884205D903
:10439000FFE70298C06A7E490860FFE70299C86A91
:1043A000142242437B488018091DFEF7ACFF012010
:1043B000019000E0FFE700E0FFE700E0FFE7019881
:1043C00004B080BD80B584B003900398C068C06815
:1043D00002900298002803D1FFE772B6FFE7FEE7DC
:1043E00002981830FEF7E8FE6448006800281AD1E9
:1043F000FFE70298001DFEF7DFFE0298C06A6449DD
:104400000968884205D9FFE70298C06A60490860D8
:10441000FFE70299C86A142242435E488018091DCA
:10442000FEF771FF05E0029918315648FEF76BFF61
:10443000FFE70298C06A58490968C96A884205D9E5
:10444000FFE7012001905149086002E0002001903F
:10445000FFE7019804B080BD1822202020222020F0
:10446000482120203021202080B584B000200390F6
:10447000029042480068002803D1FFE772B6FFE7C8
:10448000FEE7FEF75DFF3D480168491E01600068D8
:1044900000286DD1FFE73A480068002867D0FFE7A1
:1044A000FFE73848006800282FD0FFE73548C0688C
:1044B000C068039003981830FEF77EFE0398001D35
:1044C000FEF77AFE0398C06A31490968884205D927
:1044D000FFE70398C06A2E490860FFE70399C86A9E
:1044E000142242432B488018091DFEF70CFF039845
:1044F000C06A29490968C96A884204D3FFE7234989
:104500000120086000E0FFE7CBE70398002803D014
:10451000FFE7FEF71FFCFFE71B48006801900198CA
:10452000002817D0FFE7FFE7FFF74EFE002804D072
:10453000FFE716490120086000E0FFE70198401EF0
:104540000190FFE701980028EED1FFE70E49002017
:10455000086000E0FFE70D480068002805D0FFE78D
:1045600001200290FEF78EFF00E0FFE7FFE700E08A
:10457000FFE7FEF7EFFE029804B080BD182220206E
:1045800010222020502720204C272020A427202044
:1045900020222020482120203021202080B588B0F2
:1045A00000200790FDF7C4FF3D480068002820D098
:1045B000FFE7002003900690059006A805A904AA2D
:1045C000FEF732FE039B049A05980699029101902A
:1045D000052000900C480D49FFF76AFC01460C4885
:1045E00001600068002803D0FFE701200790FFE783
:1045F00000E0FFE70798002803D1FFE772B6FFE766
:10460000FEE7079808B080BDA12E0000765000009C
:10461000A027202010B588B00A9C0790069105922B
:104620000493002003900798002803D1FFE772B697
:10463000FFE7FEE71A48006800282CD0FFE706983D
:10464000009005980190079802900698052818DCBC
:10465000FFE7FFF795FD022809D1FFE71048006842
:104660000A9A69460023FFF77FF9039008E00C4897
:104670000068694600231A46FFF776F90390FFE7C2
:1046800008E007480068049A69460023FFF755FAD6
:104690000390FFE700E0FFE7039808B010BDC046B5
:1046A0009C2720200FB410B503A9044B044A02989C
:1046B00000F0F0F810BC08BC04B01847AD160000BC
:1046C000000020202021020C01D010211046020AF7
:1046D00001D010460839020901D01046091F82088E
:1046E00001D01046891E420801D0881E7047081A62
:1046F000704700000000000002E008C8121F08C157
:10470000002AFAD170470000704700000000000046
:10471000002001E001C1121F002AFBD170470000F8
:10472000F0B51FB486B00998089A030D0021024322
:1047300014D05148514A18185043051411980128B3
:1047400010981AD0281A401C00264D4F4D4900964B
:1047500001910490002812DA444211E011980124DA
:1047600049A3012801D11098C1430698119A846089
:104770000360C26041600BB0F0BD4042E4E7044614
:10478000210500203F4A001C51410391029012E094
:10479000E00707D032463B4601990098FBF7E0FE60
:1047A0000191009032463B4610461946FBF7D8FE71
:1047B00006460F466410002CEAD10498039B00289B
:1047C000029A0999089806DAFBF7CAFE019B009A3B
:1047D000FBF7C6FE05E0FBF72BFF019B009AFBF7FA
:1047E00027FF04460E460022284BFBF7B9FF03D8EB
:1047F0000020C043014607E00022254B20463146F9
:10480000FBF7FCFDFBF78CFF102409E0002C0ADB12
:104810000A220023FBF781FD079B30321A55641EE4
:1048200002460A43F2D11122641C079B121B1C1979
:10483000119B012B03D0012308430ED10AE008434A
:1048400004D0112010900020119077E71098151ACD
:104850006D1E0BE01098824202DD00236D1C03E008
:10486000824201DA00236D1E002BEED006981199CA
:104870008260C16030C07EE701FCFFFF104D000088
:10488000000014400000F03F300000000000F04342
:104890000000E03FFFB597B00646002518E2252846
:1048A00077D100242746FD49049400E00443761C98
:1048B00032780120203A90400842F7D130782A28F7
:1048C0000ED00222307801463039092916D80499D1
:1048D0000A235943303940181443761C0490F1E7F9
:1048E000189802C804911890002904DA01204003A6
:1048F00004434842049002200443761C30782E285A
:1049000014D1042004437078761C2A2809D1189801
:10491000761C80C8189009E00A214F43303FC71920
:10492000761C3078014630390929F5D930786C2861
:1049300010D006DC4C281AD068280ED06A2817D16F
:1049400004E0742813D07A2812D110E00120400529
:1049500004430CE00121090501E0032109050C4392
:104960007178814203D1012000052418761C761C41
:104970003078119066280BD013DC58287DD009DCE4
:1049800000287BD04528F6D04628F4D047281AD1F5
:10499000A5E118E0632835D0642870D0652812D1CD
:1049A0009DE170286CD008DC6728F1D069287BD0A5
:1049B0006E280DD06F2806D1BAE073282ED0752846
:1049C00071D0782859D01A9A199990476D1C7EE1B8
:1049D0006002400F022809D003280DD0042818983F
:1049E00001680DD00D60001D189070E11898EA174D
:1049F00001680D604A60F6E7189801680D80F2E7DB
:104A00000D70F0E718986A4601781172001D189031
:104A10000020507202A80090012005E0189802C8FA
:104A2000189000200091C04361070DD5002101E0DE
:104A30000199491C0191B94212DA8142F8DB009ACE
:104A4000515C0029F4D10BE0002101E00199491CDF
:104A500001918142FADB019A0099895C0029F5D124
:104A6000019904981A9B471A21463846199A00F072
:104A700097FA0199401945180BE04FE02CE113E03B
:104A80004EE0009800990078491C00911A9A1999F3
:104A900090470198401E0190401CF2D121463846B3
:104AA0001A9B199A10E137E00A2000210090019129
:104AB0006002410F022907D0189A01CA1892C21742
:104AC0009446032908D00AE01898C01DC108C900FF
:104AD00005C91891944607E000B2C217944604290C
:104AE00002D140B2C1178C4600226146944506DAD5
:104AF0000A460021404291418C462D2102E02105C9
:104B000004D52B216A461173012103E0E10701D08E
:104B10002021F7E7029155E00A200AE0102008E082
:104B2000102000900021042004430191082703E095
:104B300008200021019100906002410F022907D056
:104B4000189A01CA189200229446032908D008E056
:104B50001898C01DC108C90005C91891944603E002
:104B600080B2042900D1C0B200210291210729D5C9
:104B70001199702906D0009A1021019B4A401A43CE
:104B800005D00EE040216A461173012108E061461C
:104B9000014306D030216A461173119951730221E5
:104BA0000291009A0821019B4A401A430AD16146AA
:104BB000014301D1610705D530216A4611730121F6
:104BC0007F1E02911199582904D035A10E910DA98B
:104BD0000D910DE037A1F9E76146019B009AFBF7C3
:104BE0009CFB0E9B8C469B5C0D9A521E0D92137083
:104BF00061460143F0D10D9805A9081A20300190B3
:104C0000600703D501200004844300E001270198D8
:104C1000874201DD381A00E0002001990090411818
:104C2000029809180498401A0490E00306D421461B
:104C30001A9B199A049800F0B3F94519002706E069
:104C400003A81A9AC05D199990476D1C7F1C0298A1
:104C50008742F5DBE0030CD521461A9B199A04988C
:104C600000F09EF9451904E01A9A302019999047EE
:104C70006D1C0099481E00900029F5DC08E00D9895
:104C80000D990078491C0D911A9A199990476D1C3D
:104C90000199481E01900029F1DC63E10928010017
:104CA00030313233343536373839616263646566A2
:104CB0000000000030313233343536373839414264
:104CC000434445460000000000F05AF94519761C9F
:104CD0003078002800D0E2E528461BB0F0BD600720
:104CE00000D406271898C01DC108C90048680A6882
:104CF0000831C30FDB071891190001D09CA108E00F
:104D0000210501D59BA104E0E10701D09AA100E0B3
:104D10009AA1430011985B08109165280CD006DC1D
:104D2000452809D046281DD0472841D141E06628B2
:104D300018D067283CD13CE00021112F01DB112065
:104D400000E0781C0191009008A911A8FFF7E8FC89
:104D5000139905910021119A15927F1C12980197C1
:104D6000009150E00120C00703900120019008A9A4
:104D7000009711A8FFF7D4FC139A1499059200220A
:104D8000119B009212981593059A0192002901D067
:104D9000104602E0791C40180190381A01D501989C
:104DA00004E04042401E0090781C0190C01B02901D
:104DB00043E0012F00DA01270021112F01DD11202E
:104DC00000E038460191009008A911A8FFF7A8FC5F
:104DD00013990591119A002112981592009101974B
:104DE00021070CD40599B94201DB019900E001913A
:104DF000012904DD159A491E515C302906D0B842BC
:104E000001DA011D05DA0121029115E00199491E1F
:104E1000EDE7002805DC0099411800910199091A75
:104E200003E0019A411C914200DD01910099401A72
:104E3000401C02900120C0070390200706D402996D
:104E40000198814202DB0020C043029000206946A5
:104E5000C87707AF012103980337C907884224D0D8
:104E6000022011902B201290039800280CDA404267
:104E700003902D20129007E00A210398FBF72EFAE9
:104E800030317F1E039039701199481E119000290E
:104E9000F2DC03980028EFD1791E12980870307860
:104EA000202108404530BF1E387006A8C01BC01D19
:104EB000039010980078002800D001200199411833
:104EC0000298C0170918039809180498401A401E40
:104ED0000490E00306D421461A9B199A049800F026
:104EE0005FF8451910980078002803D01A9A19998C
:104EF00090476D1CE00324D521461A9B199A04980B
:104F000000F04EF845191CE00098002807DB0099D6
:104F10000598884203DD1598405C199901E01999BC
:104F200030201A9A904700986D1C401C00900298FF
:104F3000401E0290002804D11A9A2E2019999047F9
:104F40006D1C0199481E01900029DDDC05E03878D0
:104F50001A9A7F1C199990476D1C0399481E03905B
:104F60000029F4DC21461A9B199A0498ACE600004B
:104F70002D0000002B0000002000000000000000B9
:104F8000F8B5044600251E461746880404D405E0FB
:104F900039462020B0476D1C641EF9D52846F8BD5F
:104FA000FFB50446002581B01E46C80301D5302751
:104FB00000E02027880404D505E038460399B0476F
:104FC0006D1C641EF9D5284605B0F0BD0800000030
:104FD000800C00002000010004000300000000001D
:104FE000E7030000000000000000000000000000D7
:104FF0000800000018000000003000000000000061
:1050000000000A400020000000000A4000400000AC
:105010000100000000000A400000010000000A40FA
:1050200000000200456967687449525461736B005F
:105030004D6F746F725461736B004C696E6554727E
:1050400061636B0049523A202575257525752575D4
:10505000257525752575257520206D61736B3D308F
:1050600078253032580A005072696E745461736B3F
:105070000049444C4500546D722053766300000093
:1050800009000000A85000000000202008000000D7
:10509000F8460000B050000008002020A0290000C1
:1050A000104700000000000000000000AAAAAAAA01
:04000005000000C136
:00000001FF
