:020000040000FA
:1000000008332020D5000000D9000000DB000000EC
:1000100000000000000000000000000000000000E0
:1000200000000000000000000000000005180000B3
:100030000000000000000000C1170000B91B000014
:10004000E300000051170000E3000000E30000009F
:10005000E3000000E3000000E3000000E300000014
:1000600000000000E3000000E300000000000000CA
:1000700000000000E3000000E3000000E51B0000BA
:10008000E3000000E3000000E3000000E3000000E4
:10009000E3000000E300000000000000000000009A
:1000A000E3000000E300000000000000000000008A
:1000B000E300000000000000E3000000E300000097
:1000C0000348854600F028FC004800470D37000033
:1000D0000833202003480047FEE7FEE7FEE7FEE77F
:1000E000FEE7FEE7C100000003460B439B0703D079
:1000F00009E008C9121F08C0042AFAD203E00B78ED
:100100000370401C491C521EF9D27047D2B201E064
:100110000270401C491EFBD270470022F6E710B562
:1001200013460A4604461946FFF7F0FF204610BD65
:10013000F8B502464A40D40F42004B0052085B0813
:100140009A4202D20246084611464A0023D0C30D05
:100150004A00DDB2120EAD1A202D35DA4902012611
:10016000490AF6058A19002C00D0524220214F1B63
:100170001146B9402A411018C20D9A4221D0002CD4
:1001800017D0012D08DCDA05801AD20F8019D207AA
:10019000DBB200F069F9F8BDDA05801A01234000EE
:1001A0001B06C01880185A428018CA0F1043490015
:1001B00007E04908C2071143DA05801A8019400890
:1001C000801800F049F9F8BD61000122511A001BA6
:1001D000F7E70122D2075140AAE70122D207504097
:1001E000A6E7024670B54A40D30FDB0740002DD08A
:1001F0004A002AD0010E140E000212020919400A08
:10020000520A8418E50104465443000A120A2E04D7
:100210005043A4194219200CC543AA18120C0125F9
:10022000AD03521C521912047F39240400D0521C11
:10023000104301D44000491EC2B20C06C009201868
:10024000401C4008802A02D003E0002070BD400816
:100250004000002900DA0020184370BD70B5024646
:100260004A40D50F40004A00ED07400852080028D8
:1002700014D0002A12D0C40DD30D41020120C005B4
:100280005202490A520AE41A091812187D3491429E
:1002900001D3641C00E04900002C01DA002070BD8D
:1002A0000023914201D3891A0343400849000028E2
:1002B000F7D100290AD0914202D10121C90705E0F6
:1002C000914201D2012101E00121C943E005C0189A
:1002D000401900F0C1F870BD0122D207002800DBF0
:1002E000101A002900DB511A814201D80120704701
:1002F000002070470122D207002800DB101A0029D5
:1003000000DB511A814201D2012070470020704762
:100310000122D207002800DB101A002900DB511A45
:10032000814201D301207047002070470122D2078B
:10033000002800DB101A002900DB511A814201D984
:1003400001207047002070470122D207002800DBFF
:10035000101A002900DB511A814201D10120704797
:1003600000207047C217C10F504010B54018CA078F
:100370009623002100F078F810BD10B500229623D6
:10038000114600F071F810BDC20F41004002012378
:10039000400ADB05D207090EC0187F2901DA0020C8
:1003A0007047962903DC9623591AC84001E0963914
:1003B0008840002AF4D04042704770B504460029B6
:1003C00003D000202022012310E0002801D00020CB
:1003D000C043C046C0460DE02546D5408D4205D3FA
:1003E0000D469540641B1D46954040191546521E0A
:1003F000002DF1DC214670BDF0B51FB4064600208B
:1004000082B005464024019100901BE001992246EC
:100410000F46304600F0A8FA049A059B801A9941CD
:1004200010D310461946224600F08EFA361A8F4134
:100430000197224601200021009F00F085FA38181C
:100440004D4100902046641E0028DFDC019B00988F
:100450002946324607B0F0BD002904DA401C4900A5
:1004600001D140084000704770B40024050C05D14C
:100470001024000402D1002921D01124050E01D13D
:1004800000020834050F01D10001241D850F01D1A0
:100490008000A41C002801DB4000641C002908D057
:1004A00020252E1B0D46F540A14000D001212943F7
:1004B000084301061B1B000ADB1D02D5002070BC8F
:1004C0007047DB05181880180029F8DA401C49002D
:1004D000F5D170BC400840007047420005D0420092
:1004E000120E52428A4201DB00207047C9050818EB
:1004F000704770B5002801DC002070BD410040024B
:100500000126400AF605090E8019CA0701D14000EC
:10051000491E4D10002211463F353346CB409B18F3
:10052000D418844201D8001B1A464000491C1729E0
:10053000F3DD5100814202D20021C94300E00021D5
:10054000E8058018FFF788FF70BD10B541000DD099
:100550004100090E962909DC7E290ADC07DB4102ED
:1005600005D0C00F7F21C007C905401810BD00206D
:1005700010BD9622541A20210A1B01469140E040EA
:10058000FFF76AFFA04010BDF0B507460846584087
:1005900087B0C00F049048000E4659004008490833
:1005A000BC1A884105D2384631461E4617460B46CE
:1005B00002465800400810434CD0300D03904005CF
:1005C0005900400D490D0590401A0290402872DAFA
:1005D00018030121000B09050843019004980092BB
:1005E000002805D0019952420020884100920190D4
:1005F000029840210A1A0199009800F0A5F90546D1
:100600000C466B4607CB00F0C0F9C0197141039A44
:100610000E0D0023D71756401A467A40164344D091
:10062000049A002A2DD0029A012A039A15DC120599
:10063000C01A914101263605001C7141D20F059E5A
:10064000D2070093019202962A46234600F0BDF994
:1006500007B0F0BD38463146FAE71605224A0F4684
:10066000B218C01AB74101210905001C4F410018FA
:100670007F41114618187941E20F10436D1964410A
:1006800013E0E2076D0815436408C2071443039A98
:1006900001261205C01A91413605001C7141CE0792
:1006A000400830434908C01851412A46234600F00B
:1006B0007FF9CDE7FFE7049801224000C117121A25
:1006C00000238B4104983146C417381AA141EEE744
:1006D00030B40124E407634030BC55E730B4012452
:1006E000E407614030BC4FE70000E0FFF0B51FB405
:1006F00088B00B990998002448400999C00F490017
:1007000049080991C0070B990090490049080B91CD
:1007100009990898A64608431CD00B990A980843E3
:1007200018D0099801244000420D4800410D099855
:1007300024050003000B204309900B980003000BD5
:1007400020430B9050181C49401800220190144679
:10075000104605E0002001460DB0F0BD032801DA87
:10076000034600E003239C46C11A0AAE0AE05F007C
:1007700008ADED5B4F00F75B7D430027AA187C4175
:10078000491C5B1E6145F2DD410004AB5A52210455
:10079000120C0A43240C401C0828DFDB019802904D
:1007A0000099704601910090059B049A079906985C
:1007B00000F00BF9D0E700000DFCFFFFF0B50C4690
:1007C0005C4085B0E40FE40703944C000026640805
:1007D00059009446490802460296224321D06246B7
:1007E0000A431ED06200570D4A000E032303550D25
:1007F000012402462C492405781B1B0B360B40189C
:1008000023432643614600901C46501AB44103D34B
:100810000098401C009002E0921800985B4100286C
:1008200003DA0020014605B0F0BD002001210905D2
:100830000746864611E064461D46141BB54106D3A3
:100840006546521BB341744607430C43A646CD0789
:1008500040084908284392185B4105460D43EAD1F8
:100860001046184313D06046194650407140084363
:1008700006D06046101AB34106D20122002306E0DA
:1008800000220123DB0702E00122D243531000982B
:1008900074460105381C6141029C039D00196941A1
:1008A00000F086F8BFE70000FD0300004A000903DE
:1008B0000123090B1B0519430A4B10B5520D9A422F
:1008C00002DA0020014610BD064B34339A4203DCA5
:1008D0009A1A00F049F810BD034BD21800F034F812
:1008E00010BD0000FF030000CDFBFFFF10B5002985
:1008F00004DB0124E40740428C412146002B04DB49
:100900001C460123DB075242A341994200D1904289
:1009100010BD0000000000001CB509480090094807
:10092000019005460126009C05E0E36807CC3343AF
:100930000C3C98471034AC42F7D3FFF7C5FB0000DE
:10094000408000007080000010B5202A04DB0146C2
:10095000203A9140002010BD914020239C1A03466C
:10096000E3401943904010BD10B5202A04DB08462F
:10097000203AD040002110BD0B46D340D040202467
:10098000A21A91400843194610BD10B5202A06DB73
:10099000CB170846203A1041C1170B4306E00B461F
:1009A0001341D0402024A21A91400843194610BD9B
:1009B00010B5002B08DA0024401C614192185B41FD
:1009C0001A4301D14008400010BDF0B51FB482B0F9
:1009D00005460C0003D0084606F0CAF902E006F00E
:1009E000C7F920300246009021462846FFF7ACFFA9
:1009F000049B059A04460F4618431143084314D03C
:100A0000184610431BD0009840210A1A1846059931
:100A1000FFF7AAFF05460E46009A05990498FFF7CE
:100A200093FF084305D0012004E02046394607B073
:100A3000F0BD0020C11705430E432C4337430099F6
:100A40000E986305401A7905E40A00220C43FD0A5A
:100A50000A3002D500200146E9E701051019694175
:100A60000C9C0D9D00196941FFF7A2FFDFE7811E75
:100A7000091F00BFFCD2704784B00390029101921D
:100A800003980068009000980199884300900098AE
:100A90000299019A114008430399086004B0704715
:100AA00084B003900291019203980068009000982E
:100AB00001998843009000980299019A11400843D7
:100AC0000399086004B0704780B5022313430E4AAF
:100AD00083508218D16106F035F980BD81B0009055
:100AE0000099094A0520885000991120020201202E
:100AF0008850FFE7204800684007002801D5FFE73D
:100B0000F8E701B07047C04604110000F0B585B0A9
:100B100004900120002B2CD00E461946014028D10C
:100B200015461120000204990F180A980190124CE2
:100B30000393052078600120029038602068400708
:100B4000FCD404983146019A00F01AF802987860B3
:100B50000A4878623E622868386368687863049857
:100B600006F0F0F8039B9B1E03D0083608350128D9
:100B7000DED105B0F0BDC046D0E30C40FF0100005F
:100B8000F0B583B002920E460190354C20680527DF
:100B9000276007252840334B1968206022682760AA
:100BA0002A4018682260304B0096B60A89048A0FE2
:100BB000314609D02D490840511CFFF7FEFB014684
:100BC0003046FFF7FAFB284B0198C01801902268C5
:100BD0002760244803682A4022602268276003684F
:100BE0002A40226001229302029898420CD05302BC
:100BF000984210D10098C30B0FD1B2400198016800
:100C00009143016003B0F0BD1F210E40B240019836
:100C1000016C9143016403B0F0BDFF2911D8236832
:100C200027602B400F4D2D682360AB049B0F00D134
:100C30002039C9088A40019841689143416003B056
:100C4000F0BD1302FF339942E5D2FF23DB43C918FD
:100C5000C9088A40019881689143816003B0F0BD62
:100C6000001340401800C441D0110000FF0F0000E5
:100C700082B001900091009B0199CB4A885818439B
:100C8000885002B07047C04682B001900091009B2E
:100C90000199C54A88581843885002B07047C04629
:100CA00082B00190009100980199952252018850DC
:100CB00002B0704782B0019000910098019995228E
:100CC0005201885002B0704782B0019000910098A4
:100CD000019995225201885002B0704782B001906C
:100CE00000910098019995225201885002B07047F6
:100CF00081B0009000988100794A885801235B06F2
:100D00001843885001B0704781B00090009881006E
:100D1000734A885801235B061843885001B0704716
:100D200082B001900091009B0199034A88581843B2
:100D3000885002B07047C0462810000082B0019071
:100D4000009100980199074A885002B07047C04648
:100D500082B00190009100980199024A885002B037
:100D60007047C046D012000081B000900099012069
:100D7000C202A948885001B07047C04682B00190B5
:100D800000910198024940580099084002B070470C
:100D90003810000010B584B0069C039002910192B7
:100DA0000093029801990843009908430699084363
:100DB0000E49084303998900494A885004B010BD80
:100DC00010B584B0069C03900291019200930298A2
:100DD00001990843009908430699084303490843C9
:100DE000039989003E4A885004B010BD8100040078
:100DF00081B0009000988100394A8120885001B06C
:100E00007047C04681B0009000988100344A81202C
:100E1000885001B07047C04610B584B0069C03905E
:100E200002910192009302980199084300990843A6
:100E3000069908438121084303998900284A88506C
:100E400004B010BD82B00190009100981D49084384
:100E500001998900224A885002B0704710B584B0C9
:100E6000079C069C039002910192009302980199BD
:100E70000843009908430699084307990843114914
:100E8000084303998900164A885004B010BDC04633
:100E900010B584B0079C069C0390029101920093C8
:100EA0000298019908430099084306990843079955
:100EB00008430449084303998900094A885004B04B
:100EC00010BDC0468000040082B0019000910098DF
:100ED0008021084301998900014A885002B0704777
:100EE0000480424082B00190009101982721C901FD
:100EF00040580099084002B0704782B001900091BC
:100F000001982721C90140580099084002B0704754
:100F100081B000900099824A8248885001B07047A1
:100F200082B001900091009B0199034A88581843B0
:100F3000885002B07047C0469013000082B0019004
:100F40000091009801990C4A885002B07047C04641
:100F500082B00190009100980199074A885002B030
:100F60007047C04682B00190009100980199024AF2
:100F7000885002B07047C0469012000082B00190C5
:100F80000091009B01999D20420188581843885088
:100F900002B0704782B00190009100980199024A16
:100FA000885002B07047C0464810000081B00090E1
:100FB000009909204202885801231B0218438850D7
:100FC00001B0704781B000900099084A8858012309
:100FD0001843885001B0704781B000900099034ACF
:100FE000885804231843885001B070472812000025
:100FF00081B0009000990120C202B248885001B02F
:101000007047C04681B0009000990120C202AD48EF
:10101000885001B07047C0460100002610B5002A74
:101020000FD091235B01C3180020DC692405240F35
:1010300005D00C5C1C60401C8242F6D1104680B288
:1010400010BD002080B210BD604A83580121C90341
:101050000B438350801842681207FCD102688A4310
:1010600002607047594A835880210B43835080188F
:101070000F221202436813400122D2029342F7D199
:1010800002688A430260704781B00090009802496C
:10109000405801B07047C0461812000082B001905D
:1010A00000910198024940580099084002B07047E9
:1010B0003010000082B0019001980449405802218C
:1010C000084000906846007802B070473412000073
:1010D00081B000900098044940580F2108404142D7
:1010E000484101B07047C0463C12000081B00090FA
:1010F000009802494058C0B201B070471C1200006D
:1011000081B000900099F44AF448885001B07047CB
:1011100081B000900099F04AF048885001B07047C3
:1011200004080000030000B181B000900099404A1B
:101130000020885001B0704780B584B0019101460D
:101140000198039102A9088003980922520280188D
:10115000098803225202FFF78FFC04B080BD70B5EE
:101160000A780C231A400124240305196E689E4353
:10117000B2186A60497807221140035993435918FD
:10118000015170BD80B584B0019101460198039171
:1011900002A9088003980D4A8018098807221202C4
:1011A000FFF76AFC04B080BD80B584B001910146B0
:1011B0000198039102A908700398044A80180978DD
:1011C0000722FFF759FC04B080BDC046381200006A
:1011D00082B001906846017000780199014A8850F8
:1011E00002B070472412000010B586B0019202468A
:1011F00001980592049103AA107002A80380059833
:10120000094940180499490012781143074AFFF729
:1012100047FC05980649401802990904C91D054A6A
:10122000FFF73EFC06B010BD10120000FF070000E3
:10123000141200000700FF0F0649086801229043BE
:101240000860704703490868012212029043086051
:101250007047C04608010B40034908680122120389
:10126000104308607047C04604010B4081B001463E
:101270006846017000780249086001B07047C046B6
:1012800008030B4080B582B0014601A801700178C7
:1012900002480322FFF7F0FB02B080BD00010B40C3
:1012A00081B000900099F94A0120885001B0704740
:1012B00081B0009000990120C202D748885001B047
:1012C0007047C0460100002681B0009000980321BD
:1012D000C902405801B07047F0B5BC4A82183B4B78
:1012E000C31808794E793A4D764C002E23D0202829
:1012F00004D00526F601002803D003E0354E00286F
:1013000000D18826576F2F4037435767976F2F407C
:1013100037439767566B26405663966B2640966315
:101320000026566596658F26F6435F6837405F60F6
:101330009F6837409F608E79096820280BD000286D
:1013400019D1491E5160D76E2F4088210F43D766AF
:101350001746703719E0491E5160D16E29401D4F64
:101360003943D166116F294039431167012149077B
:10137000194D174609E049085160D76E2F400521E5
:10138000C9010F43D766174670373C682C400C43A1
:101390003C60D16A4B4C2140D162116B21401163FA
:1013A0000021D16411658F21C943D46F0C40D467EB
:1013B0001C680C401C600643BD2030401168074B80
:1013C0000B40C018801C1060F0BDC046841800009F
:1013D00024493E0001040000FFFFFFCF4000FFCF83
:1013E000B0B54A686E4BC250784A80180A78222AF3
:1013F00058D8930001A4E3589F46C0469B140000B0
:10140000A51400009B140000A5140000A514000002
:10141000A5140000A5140000A5140000A5140000E8
:10142000A5140000A5140000A5140000A5140000D8
:10143000A5140000A5140000A514000089140000E4
:10144000A514000089140000A5140000A5140000D4
:10145000A5140000A5140000A5140000A5140000A8
:10146000A5140000A5140000A5140000A514000098
:10147000A5140000A5140000A514000089140000A4
:10148000A51400008914000003231B0704689C4373
:1014900001235B07E318036004E003231B070468D0
:1014A0009C4304600B69C360CB68054C1C40C36A55
:1014B000044D1D402B19C362097A11430160B0BD70
:1014C000777702008888FDFF81B000900099794A03
:1014D0007948885001B0704704080000030000B14B
:1014E00082B0019000910098019911221202885057
:1014F00002B0704710B507239B0419409200801872
:10150000024A84589C436118815010BD3018000075
:1015100010B5029CA400001911431943014A8150DF
:1015200010BDC0465018000092008018014A81503A
:101530007047C0461018000010B50122120383182E
:101540000C789C604B7883508978014A815010BD9B
:101550000C11000010B586B001930B4601460198AE
:10156000059104A90B8003AB1A8002AA108005988C
:10157000164C001909881B88194312881143024A26
:10158000FFF77AFA06B010BD80FF000082B001902C
:10159000009100980199024A885002B07047C046F5
:1015A0000818000082B00190009100980199032270
:1015B000D202885002B0704781B000900099034A6F
:1015C000885801231843885001B070470418000060
:1015D00081B000900099112002028858012318431D
:1015E000885001B07047000082B001900091009BCC
:1015F0000199034A88581843885002B07047C04682
:101600002810000081B0009000990120C202024819
:10161000885001B07047C0460100002681B000909C
:101620000098812149014058C0B201B070470000C4
:10163000B0B51122120283580124A34383500B88B2
:101640008C781C438B882343094C1C408358094DDC
:101650001D40631983508B79CC791C43097A21434F
:101660007E231940801842689A4351184160B0BDEA
:1016700018670000E798FDFF81B0009000980349CB
:1016800040580121084001B07047C04608110000D1
:1016900081B00090009802494058C0B201B0704734
:1016A0002411000081B000900099024A024888503D
:1016B00001B0704704080000030000B180B584B099
:1016C00003900291019203980B49401802990B4A2A
:1016D000FFF7D2F903980A49401801993F22FFF712
:1016E000CBF90399074A8818895801221140FFF75E
:1016F000C3F904B080BDC04610110000FFFF000018
:10170000141100000411000010B501221203831807
:101710000C789C604978815010BD80B582B00190F2
:101720000091019811210902401800990322D20367
:10173000FFF7A2F902B080BD82B001906846017047
:101740000078019989225201885002B07047000048
:1017500080B582B08C488021FFF710FB019001A872
:1017600000780006002822D5FFE700200090864878
:101770008021FFF789FA0F490868401C08600E486D
:101780000068002812D0FFE70B48006800216A4675
:1017900004F050F9FFE70098002805D0FFE701208A
:1017A000000706490860FFE7FFE7FFE7FFE702B031
:1017B00080BDC046A00620208810202004ED00E057
:1017C000EFF309800E4B1A6820381060F0C04446D1
:1017D0004D4656465F46F0C008B572B604F052FA60
:1017E00062B60CBC116808681030F0C8A046A94663
:1017F000B246BB4680F309882038F0C81847C04677
:10180000902A20207047000080B58EB00E2008215D
:101810000291FFF759FBE4480D900421FFF78EFA7F
:1018200002990F20FFF750FB02990D98FFF786FAF7
:1018300000230693019301200C90C00407900090B0
:101840000321039118461A46FFF708FB0399069BEC
:10185000079A0C98019300921A46FFF7FFFA069830
:10186000FFF746FA0C98FFF743FA1420022104917F
:10187000FFF72AFB04991520FFF7E4FA0699079B66
:101880000C980091420405923020FFF783FA069BE2
:101890000C980093020431201946FFF7BDFA069A0E
:1018A000079B009227201146FFF774FA1920FFF7D3
:1018B0009FFA1E20FFF79CFA059A0699079B009154
:1018C0000D20FFF767FA2520FFF792FA2620FFF791
:1018D0008FFA2220FFF78CFA2320FFF789FA069A65
:1018E000079B00923A201146FFF754FA069A079B8D
:1018F000009236201146FFF74DFA069A079B009298
:1019000033201146FFF746FA069A079B00922F20D4
:101910001146FFF73FFA1F20FFF76AFA2020FFF772
:1019200067FA2A20FFF764FA069A079B00922B2099
:101930001146FFF72FFA1B2041030891994809909F
:10194000FFF7AEF908990998FFF7F8F909980C998B
:10195000C903FFF7E5FA099880210A91FFF788F992
:1019600009980A99FFF7DCF90D9808490B91FFF7E0
:1019700097F90B990D98FFF7E1F90C990D988902E9
:10198000FFF7FCFA0EB080BD00000A4000C2430021
:1019900080B582B0124987480190FFF7E0FB0198BB
:1019A00003214902FFF7C8FB0198FFF7FFFA0198EE
:1019B000FFF7BAFB01980721FFF70AFC0198002105
:1019C0000091FFF7F1FB00990198FFF7DBFB01980D
:1019D000FFF702FB0198FFF7F5FA02B080BDC046A1
:1019E0007C7F000080B584B01E4970480390FFF7EB
:1019F000A3FD03981C49FFF76FFC03980023019394
:101A000019461A46FFF7A6FD019B03980093194655
:101A10001A46FFF77DFD019A03981146FFF76AFD0C
:101A2000019A03981146FFF77FFD019B039801215E
:101A30000291009119461A46FFF76AFD0199029A30
:101A40000398FFF757FD0199029A0398FFF76CFD81
:101A50000398FFF725FC03980321FFF741FD04B02D
:101A600080BDC0467E7F0000847F000080B582B0CC
:101A700000200190FFF7FAFB0198FFF703FCFFF746
:101A8000DBFBFFF7DFFBFFF7E7FB0120022100F0A4
:101A90002FF902B080BD000080B582B006494448ED
:101AA0000190FFF749FD01980449FFF799FC01985F
:101AB000FFF7F6FB02B080BD8C7F0000907F000036
:101AC00080B582B00F4951480190FFF71DFE019883
:101AD0000D49FFF7ADFD01980021FFF71EFE0198AB
:101AE00011211722FFF7EAFD019801218902FFF772
:101AF0007BFD0F20032100F0FBF80198FFF768FD44
:101B000002B080BDA47F0000A67F000080B500F079
:101B100017F8FFF779FEFFF7A9FFFFF763FFFFF75D
:101B2000BBFFFFF735FFFFF7CBFF0349B8220020CB
:101B300088540249885480BD28052020E4052020CF
:101B400080B586B017480090FFF7E2F9164801907B
:101B5000FFF7DEF915480290FFF7B6FC1448039032
:101B6000FFF7B2FC13480490FFF7CAFA2748059024
:101B7000FFF798FD0098FFF7F7F80198FFF7F4F8E2
:101B80000298FFF795FB0398FFF792FB0498FFF785
:101B90002FFA0598FFF736FD1020FEF768FF06B014
:101BA00080BDC04600000A4000200A400020864058
:101BB0000000864000000F4080B582B003F008FDB1
:101BC000019004F051FE002805D0FFE70120000736
:101BD00003490860FFE7019803F0AFFD02B080BD44
:101BE00004ED00E010B50948FFF718FD0B280CD1F3
:101BF000FFE70648FFF74CFD054980240A59531CAE
:101C00000B51885400F0DEFBFFE710BD0080104050
:101C10004400202081B001466846017000214056F2
:101C2000002809D4FFE7684601781F200140012001
:101C300088400C490860FFE701B0704781B0014659
:101C40006846017000214056002809D4FFE7684625
:101C500001781F2001400120884002490860FFE709
:101C600001B0704780E200E081B001466846017033
:101C70000021405600280DD4FFE7684601781F2058
:101C800001400120884004490860BFF34F8FBFF333
:101C90006F8FFFE701B0704780E100E081B001463F
:101CA0006846017000214056002809D4FFE76846C5
:101CB00001781F200140012088400C490860FFE79F
:101CC00001B0704781B0014668460170002140565E
:101CD000002809D4FFE7684601781F200140012051
:101CE000884002490860FFE701B0704700E100E06A
:101CF00070B582B0024601A80270009100214056E2
:101D0000002816D4FFE7002401A908570322D34373
:101D10001840174A805809578C07E50EFF24AC403D
:101D2000A043009CA401E4B2AC4020431940885079
:101D30001AE001A908780F24204008380322D34371
:101D400018400A4A8058002549578D07EE0EFF2596
:101D5000B540A843009DAD01EDB2B54028432140F8
:101D6000083919408850FFE702B070BD1CED00E053
:101D700000E400E080B588B0079007980390016800
:101D8000019141680846FEF72CFA01990290084635
:101D9000FEF727FA0299FEF7CBF901460398049162
:101DA00081680846FEF71DFA0499FEF7C1F906F0AE
:101DB000BFF8069006980B49FEF79CFA01460020F2
:101DC0000029059008D1FFE706980749FEF784FA35
:101DD000411E88410590FFE705980121084008B0A1
:101DE00080BDC046CDCC4C3F9A99993F80B584B018
:101DF000029001A900200870FFE701A800780228DE
:101E000020D8FFE7029801A90978890040581149B4
:101E1000FEF762FA00280BD1FFE7029801A90978C2
:101E2000890040580C49FEF765FA002804D1FFE705
:101E300003A90020087009E0FFE70198401C01A9F0
:101E40000870DAE703A901200870FFE703A800780B
:101E500004B080BD000048C20000484289B008902C
:101E60000791089806900020C14305910490FFE770
:101E70000498079988422AD2FFE706980499415CA2
:101E800005984840059003A900200870FFE703A8C3
:101E90000078072816D8FFE7059948080090012028
:101EA000014001910C480029029001D10198029053
:101EB0000098029948400590FFE70398401C03A949
:101EC0000870E4E7FFE70498401C0490D0E7059809
:101ED000C04309B07047C0462083B8ED80B584B0D8
:101EE00003900291039802990968401A00900398A0
:101EF000029908600098FEF740FA0C49FEF771F964
:101F0000019001980A49FEF7F5F9002807D1FFE78B
:101F100001980849FEF7E0F9002803D1FFE70648D9
:101F20000190FFE7019804B080BDC0466F12833A6C
:101F30006F12033B0AD7A33C0AD7A33B10B5AEB040
:101F40002C902B9100200B901F901E901D901C90A8
:101F50001B901A90854919911891179184481690F1
:101F60001590149013911291119110900F900E9062
:101F7000022003F05FFA0B980DA90880FFE70DA877
:101F80000088C72800D990E027A820A903F0F0FE18
:101F9000002804D0FFE72DA9FF200870E1E00CA97C
:101FA00000200870FFE70CA80078022877D8FFE728
:101FB00020A8079010300A900CA9099109788C008C
:101FC00001591DA806900059FEF7B2F8069B099921
:101FD000024607981A5109788C0001591AA80890EE
:101FE0000059FEF7A5F8089B099902460A981A516C
:101FF00009788A00805817A98958FEF789F90028BE
:1020000009D1FFE70CA80078820020A88018006999
:1020100017A98850FFE70CA80078820020A8801834
:10202000006914A98958FEF757F9002809D1FFE77C
:102030000CA80078820020A88018006914A9885094
:10204000FFE70CA80078820020A8805811A98958C1
:10205000FEF75EF9002808D1FFE70CA8007882009F
:1020600020A8805811A98850FFE70CA800788200AA
:1020700020A880580EA98958FEF72EF9002808D10B
:10208000FFE70CA80078820020A880580EA988508D
:10209000FFE7FFE70C98401C0CA9087083E7FFE7F7
:1020A0000D98401C0DA9088069E70CA90020087054
:1020B000FFE70CA80078022842D8FFE70CA805909B
:1020C000007884001DA800592A490391FEF7C6F83C
:1020D0000399024605982C9B1A51007882000492BD
:1020E0001AA88058FEF7BAF8049B014605982B9A67
:1020F000D1500078820014A8805817A98958FEF79B
:1021000068F81D49FEF712F900280FD1FFE70CA867
:10211000007882000EA8805811A98958FEF759F856
:102120001649FEF7D9F8002804D1FFE72DA9FD20B4
:10213000087016E0FFE70C98401C0CA90870B8E77F
:102140002B98FFF717FE01460220C04301900020A4
:102150000029029001D10198029002982DA90870DF
:10216000FFE700212DA840562EB010BD00401C46B0
:1021700000401CC6000048430000A040CDCC4C3EAF
:1021800080B584B002900191009202980099FEF708
:10219000A3F8002803D1FFE7009803900CE0029811
:1021A0000199FEF7B5F8002803D1FFE701980390E5
:1021B00002E002980390FFE7039804B080BD00009E
:1021C00082B0009000981F49884205DBFFE77D2020
:1021D000C00001A908800CE000981B49884204DC7B
:1021E000FFE701A91948088003E0009801A90880C9
:1021F000FFE7002101A8405E02B0704782B00146AF
:10220000684601800021405E0E49884205DBFFE7F9
:102210007D20C00001A908800EE000216846405ED4
:102220000949884204DCFFE701A90848088003E067
:10223000009801A90880FFE7002101A8405E02B0D4
:102240007047C046E903000017FCFFFF18FC0000C0
:1022500080B582B0009000987F21C905FEF73CF858
:10226000002804D1FFE77F20C00501900CE0009812
:102270000749FEF74DF8002803D1FFE70448019015
:1022800002E000980190FFE7019802B080BDC046CF
:10229000000080BF80B598B0169000200A90099089
:1022A000089007A90880FFE707A800881F282ED8F4
:1022B000FFE712A80BA903F05BFD002804D0FFE79D
:1022C00017A9FF2008704FE006A900200870FFE75B
:1022D00006A80078022814D8FFE706A80078820034
:1022E00004920BA8815808A805908058FDF720FF9C
:1022F000049A05998850FFE70698401C06A90870C3
:10230000E6E7FFE70798401C07A90880CCE706A985
:1023100000200870FFE706A80078022813D8FFE71E
:1023200006A800788100039108A840582121490699
:10233000FDF794FF039A16998850FFE70698401C12
:1023400006A90870E7E71698FFF714FD014602207A
:10235000C043019000200029029001D10198029011
:10236000029817A90870FFE7002117A8405618B077
:1023700080BD000080B582B00B48FEF785FE0146A7
:10238000012089070029019009D4FFE70920C10134
:102390000548FEF783FE411E88410190FFE7019842
:1023A0000121084002B080BD00000F4080B582B01E
:1023B0000F200190FFF72EFC0198FFF76FFC02B091
:1023C00080BD000081B00948802140587F2806DB8D
:1023D000FFE70649802200208850009002E001209B
:1023E0000090FFE7009801B07047C04644002020ED
:1023F00080B582B001900198002815D0FFE70199BF
:102400000A480090FFF7C2F800980199FFF7CAF850
:102410000098FFF7D1F8FFE70448FEF755FF0028C2
:1024200001D0FFE7F8E7FFE702B080BD000086407B
:1024300080B5002002F070FF80BD80B584B00390AD
:102440000398002801D1FFE72DE0039900200872CE
:1024500002A90870FFE702A80078072823D8FFE741
:1024600002A80190007802F057FF3220FFF7C0FF6A
:1024700002F0B2FE0199039A0B78D05403980978C0
:10248000405C002809D0FFE702A8007801228240C2
:102490000399087A10430872FFE7FFE70298401C8F
:1024A00002A90870D7E704B080BD000080B586B0EF
:1024B0000590FFF7BDFF04F0CDF90190FFE702A8FA
:1024C0000090FFF7BAFF03F0ABF900990648092224
:1024D000FDF70AFE03F0AEF900F042FA01A805216B
:1024E00004F080F8EBE7C046A406202080B584B055
:1024F00007480290074801900220009006480749CB
:1025000001221202002304F023F804B080BDC0466B
:10251000C8042020C8002020AD240000E07F000077
:1025200080B582B001900091FFE70748FFF7A4F85B
:10253000002801D0FFE7F8E701A801780248FFF77B
:10254000FBF8019802B080BD0080104080B503F018
:1025500067F96149086E401C086603F06BF980BD9D
:1025600010B590B0129C0EAC20700D910C920B9394
:102570000120059002F05EFF0598FFF775FB0598B6
:10258000FFF75CFB53488021FEF77EFB01F03CFC2B
:1025900006900698002810D0FFE7FFF7D7FF0698AF
:1025A0000390811C0020C0430029049001D10398AE
:1025B000049004980FA9087086E001F011FF0D98AF
:1025C000FF2189050022019200F06CFE01980EA9FE
:1025D0000978C9070029029005D1FFE70C9801F09E
:1025E000A5F90290FFE702980B99012210400870AC
:1025F0000B9800781299104008700B980078C0076B
:10260000002806D0FFE708A8FFF744FE07A90870D6
:1026100026E00C9808A9FFF791FC014607A8017075
:102620000021405600281AD1FFE70120FFF71CFBCC
:102630000C9801F0C1F91299087012980078C0073F
:10264000002809D1FFE703F0EBF82349886E401C0E
:10265000886603F0EFF8FFE701F0C2FEFFE7FFE74F
:10266000002107A84056002804D0FFE707980FA9CB
:10267000087029E00D980A9B099A089900F056FD08
:10268000002804D1FFE70FA9FD2008701CE003F02B
:10269000C7F80C980068104988640C984068C864B2
:1026A0000C98806808650B980078012210406E2312
:1026B000C8541298007810406F22885403F0BAF87A
:1026C0000FA900200870FFE700210FA8405610B0A6
:1026D00010BDC04600000A40B006202081B0009026
:1026E0000098002801D1FFE724E000991248086013
:1026F00000991248486000990020886000991048AD
:10270000C86000990F48086100990F484861009916
:102710000E4888610099AF204000888300992320EB
:10272000C000C88300990A48088400992222012029
:102730008854FFE701B0704700002F440AD7A33C3C
:1027400000007AC400007A44000096C40000964459
:10275000ECFF000010B58CB00B900A910B9800288C
:1027600001D1FFE722E00A98002809D0FFE70A9983
:1027700001A81CC91CC01CC91CC01CC91CC003E08A
:1027800001A8FFF7ABFFFFE70B985021FDF7C5FC51
:102790000B9801A91CC91CC01CC91CC01CC91CC0A9
:1027A0000B990846243001F0E8FDFFE70CB010BD9E
:1027B00080B582B001900198002801D1FFE708E0C0
:1027C00001994C22002088520198243001F0F6FD36
:1027D000FFE702B080BD000080B5B0B02F902EA9F9
:1027E000002008702AA9088029A908800690059071
:1027F0001EA80390FFF772FF039907A8FFF7AAFF2F
:10280000FFE70020C243012102F0E6FE03F008F8D2
:1028100044480290017A2BAA117202794179090287
:102820008A1881790B04C1790906C91889182C9175
:10283000027841780902891882781204C07800066B
:10284000801840182B9002F0F5FF04F003F8049074
:102850002EA80078C007002813D0FFE70498059938
:10286000401A0699884208D2FFE700222AA8805E13
:1028700029A9895E01F034F8C3E72EA90020087069
:10288000FFE707A82BA91BAA00F07EF8002809D1B2
:10289000FFE728A90020088027A9088007A8FFF7DC
:1028A00087FF36E01BA8807A032809D1FFE728A913
:1028B0000020088027A9088007A8FFF779FF27E0F4
:1028C0001BA8019028A927AA00F063FF019800899E
:1028D00000281CD0FFE71BA802897D20C100084604
:1028E0005043FDF76AFD06900698002803D1FFE7E4
:1028F00001200690FFE70498059028982AA90880EF
:10290000279829A908802EA901200870FFE7FFE772
:10291000FFE7002228A8805E27A9895E00F0E0FF7B
:102920006FE7C046A406202080B584B00848029016
:10293000084801900320009007480849012212022C
:10294000002303F005FE0F49086004B080BDC046B7
:10295000240B202024072020D9270000F67F000028
:1029600080B582B007480068002809D0FFE7054815
:102970000068002200920223114603F09DFEFFE74B
:1029800002B080BD2007202080B590B00E900D9140
:102990000C920E98002808D0FFE70D98002804D06C
:1029A000FFE70C98002804D1FFE70FA9002008706A
:1029B000ECE20E980D9900F0BDFE014602A80190D0
:1029C00001700178012211400BAA117001780222D6
:1029D000114049080AAA117001780422114089089F
:1029E00009AA1170017808221140C90808AA1170BB
:1029F000017810221140090907AA117001782022DC
:102A00001140490906AA1170017840221140890934
:102A100005AA11700178C90904AA117002990C9ACB
:102A200011700C9A002191720E9A928B0C9BDA8095
:102A30000C9A11810E994C22895A03AA11800078B0
:102A4000002804D1FFE70C990320887278E208A8D7
:102A50000078C007002816D0FFE707A80078C00755
:102A6000002810D0FFE70BA80078C00700280AD183
:102A7000FFE704A80078C007002804D1FFE703A9F6
:102A8000002008805BE20BA80078C007002806D170
:102A9000FFE70AA80078C00700281BD0FFE708A8B6
:102AA0000078C007002806D1FFE707A80078C00714
:102AB00000280FD0FFE703A9FE4808800C990120E9
:102AC00088720E98008C0C99C8800C994B2080005D
:102AD000088133E205A80078C007002806D1FFE787
:102AE00004A80078C00700281BD0FFE708A80078DA
:102AF000C007002806D1FFE707A80078C007002814
:102B00000FD0FFE703A9142008800C9902208872D7
:102B10000E98008C0C99C8800C994B20800008817D
:102B20000BE20BA80078C00700282ED1FFE70AA807
:102B30000078C007002828D1FFE709A80078C0075F
:102B4000002822D1FFE708A80078C00700281CD081
:102B5000FFE707A80078C007002816D1FFE706A8FE
:102B60000078C007002810D1FFE705A80078C0074B
:102B700000280AD1FFE704A80078C007002804D184
:102B8000FFE703A9CC480880D6E10BA80078C0076E
:102B900000282ED1FFE70AA80078C007002828D116
:102BA000FFE709A80078C007002822D0FFE708A89F
:102BB0000078C00700281CD0FFE707A80078C007EE
:102BC000002816D1FFE706A80078C007002810D11A
:102BD000FFE705A80078C00700280AD1FFE704A88E
:102BE0000078C007002804D1FFE703A9EA4808805D
:102BF000A1E10BA80078C00700282ED1FFE70AA8A2
:102C00000078C007002828D1FFE709A80078C0078E
:102C1000002822D0FFE708A80078C00700281CD1B0
:102C2000FFE707A80078C007002816D1FFE706A82D
:102C30000078C007002810D1FFE705A80078C0077A
:102C400000280AD1FFE704A80078C007002804D1B3
:102C5000FFE703A9D14808806CE10BA80078C00702
:102C600000282ED1FFE70AA80078C007002828D046
:102C7000FFE709A80078C007002822D1FFE708A8CD
:102C80000078C00700281CD1FFE707A80078C0071C
:102C9000002816D1FFE706A80078C007002810D149
:102CA000FFE705A80078C00700280AD1FFE704A8BD
:102CB0000078C007002804D1FFE703A9B8480880BE
:102CC00037E10BA80078C007002832D0FFE70AA838
:102CD0000078C00700282CD1FFE709A80078C007BA
:102CE000002826D1FFE708A80078C007002820D1D7
:102CF000FFE707A80078C00700281AD1FFE706A859
:102D00000078C007002814D1FFE705A80078C007A5
:102D100000280ED1FFE704A80078C007002808D1DA
:102D2000FFE703A99F4808800E98C08B0C99C880C4
:102D3000FEE00BA80078C00700282ED1FFE70AA804
:102D40000078C007002828D1FFE709A80078C0074D
:102D5000002822D1FFE708A80078C00700281CD16E
:102D6000FFE707A80078C007002816D0FFE706A8ED
:102D70000078C007002810D0FFE705A80078C0073A
:102D800000280AD1FFE704A80078C007002804D172
:102D9000FFE703A903200880C9E00BA80078C0075B
:102DA00000282ED1FFE70AA80078C007002828D104
:102DB000FFE709A80078C007002822D1FFE708A88C
:102DC0000078C00700281CD1FFE707A80078C007DB
:102DD000002816D1FFE706A80078C007002810D009
:102DE000FFE705A80078C00700280AD1FFE704A87C
:102DF0000078C007002804D1FFE703A90520088058
:102E000094E00BA80078C00700282ED1FFE70AA89D
:102E10000078C007002828D1FFE709A80078C0077C
:102E2000002822D1FFE708A80078C00700281CD19D
:102E3000FFE707A80078C007002816D1FFE706A81B
:102E40000078C007002810D0FFE705A80078C00769
:102E500000280AD0FFE704A80078C007002804D1A2
:102E6000FFE703A9082008805FE00BA80078C007EF
:102E7000002837D1FFE70AA80078C007002831D121
:102E8000FFE709A80078C00700282BD1FFE708A8B2
:102E90000078C007002825D1FFE707A80078C00701
:102EA00000281FD1FFE706A80078C007002819D125
:102EB00004E0C046ECFF0000FFFF000005A800781A
:102EC000C00700280ED1FFE704A80078C00700283B
:102ED00008D0FFE703A90C2008800E98C08B0C993E
:102EE000C88021E008A80078C00700280AD0FFE7C2
:102EF00007A80078C007002804D1FFE703A92548E8
:102F0000088010E008A80078C00700280AD1FFE771
:102F100007A80078C007002804D0FFE703A9012014
:102F20000880FFE7FFE7FFE7FFE7FFE7FFE7FFE7CF
:102F3000FFE7FFE7FFE7FFE7FFE7FFE7FFE7FFE761
:102F40000C98807A032805D0FFE703980E994C224D
:102F50008852FFE703980C9948800E98243000901F
:102F6000002103A8405EFDF7FDF9014600980C9A88
:102F7000927AD21E531E9A4101F09AF9FDF704FA93
:102F80000C9988800FA901200870FFE70FA800782E
:102F900010B080BDFFFF0000FEFF0000FCFF00003E
:102FA000FAFF0000F4FF000080B59CB01B901A915E
:102FB000199218931B98002801D1FFE7B2E01B99E2
:102FC000086802904868019088680490C968069172
:102FD000FDF707F90199024602980092FDF701F901
:102FE0000099FDF7A5F801460846FDF7A1F80199FB
:102FF00008900846FDF7F5F8029903900846FDF79A
:10300000F0F80399FDF7E5F8049905900846FDF7F7
:10301000E8F801460598FDF7DCF8069907900846A0
:10302000FDF7DFF80799FDF783F80146089804F0EB
:10303000B3FC17901B9908680A9088680990C868C3
:103040004968FDF7CEF8099902460A980B92FDF7F8
:10305000C8F80B99FDF7BDF801460846FDF768F87A
:10306000FFF7F6F804F00CFC16901B9908680E9018
:10307000C868129048680D9089681091FDF7B1F802
:10308000129902460E980C92FDF7ABF80C99FDF7D9
:103090004FF801460846FDF74BF80D991490084685
:1030A000FDF79FF80E990F900846FDF79AF80F99D3
:1030B000FDF73EF8109911900846FDF792F8014689
:1030C0001198FDF786F8129913900846FDF789F8D4
:1030D00001461398FDF77DF80146149804F05CFC56
:1030E00015901A98002807D0FFE717980E49FDF7AA
:1030F00078F81A990860FFE71998002807D0FFE7C9
:1031000016980949FDF76DF819990860FFE71898B6
:10311000002807D0FFE715980349FDF762F81899D2
:103120000860FFE71CB080BDE12E654210B598B085
:1031300016901591149213931698002804D1FFE766
:1031400017A900200870A5E0159806901499084664
:10315000FDF747F8069907900846FDF742F80799EA
:10316000FCF7E6FF089013990846FDF73AF808992E
:10317000FCF7DEFF129012984849FDF7BBF80028D3
:1031800007D1FFE712984649FDF7A6F8002804D1B9
:10319000FFE717A9002008707CE0129804F0C8FE31
:1031A00001467F20C005FDF759F811901199159837
:1031B000FDF717F8159011991498FDF712F814906F
:1031C00011991398FDF70DF813901399149804F0C2
:1031D000E3FB1090159802901498009013990846FC
:1031E000FCF7FFFF009901900846FCF7FAFF0199F0
:1031F000FCF79EFF04F09CFE014602980122059216
:10320000D2070492504004F0C7FB0F9010983F2162
:1032100009060391FCF7E5FF03990E900F98FCF760
:10322000E0FF0D900E9804F005FD0C900E9804F050
:10323000BDFD0B900D9804F0FDFC0A900D9804F074
:10324000B5FD09900C980A99FCF7CBFF1699086018
:103250000B980A99FCF7C5FF169948600C980999D4
:10326000FCF7BFFF0499169A90600B9848400999A3
:10327000FCF7B7FF1699C8601699002008611699E7
:10328000486116998861169800F0A8FF059817A95B
:103290000870FFE717A8007818B010BD47E1FA3EA4
:1032A000EA51D83F83B00290019100920298002821
:1032B00001D1FFE717E002997F20C005086002995D
:1032C00000204860029988600299C86002990861EC
:1032D000029948610299886101980299C861009831
:1032E00002990862FFE703B07047000010B5CAB04A
:1032F0004F9C4E9C4D9C4C9C4990489147924693C4
:103300004998002807D0FFE74F980021FDF70EF8F5
:10331000002801D1FFE7F1E14C9836904D9908461D
:10332000FCF75FFF369937900846FCF75AFF37994C
:10333000FCF7FEFE38904E990846FCF752FF38998C
:10334000FCF7F6FE45904598ED49FCF7D3FF0028C1
:1033500000D01FE14598EB49FCF7E8FF002800D0BA
:1033600018E14598E849FCF7B7FF002800D011E1C3
:10337000459804F0DDFD01467F20C005FCF76EFF97
:10338000449044994C98FCF72CFF4C9044994D98EC
:10339000FCF727FF4D9044994E98FCF722FF4E9082
:1033A000499948682390C868229008688968FCF7A2
:1033B00018FF2299024623982492FCF712FF2499C1
:1033C000FCF707FF01460846FCF7B2FE4390499917
:1033D00008682690486825908868C968FCF701FF4E
:1033E0002599024626982792FCF7FBFE2799FCF7C1
:1033F0009FFE01460846FCF79BFE429049982B90A1
:103400000168289141680846FCF7EBFE289929904D
:103410000846FCF7E6FE2999FCF7DBFE01462B98EF
:103420002A9181680846FCF7DCFE01462A98FCF7E1
:10343000D0FE01462B982C91C1680846FCF7D1FEBE
:103440002C99FCF775FE41904D982E9041982D9047
:103450004E984299FCF7C5FE2D9902462E982F9260
:10346000FCF7BFFE2F99FCF7B4FE40904E983190C8
:10347000439830904C984199FCF7B3FE309902463E
:1034800031983292FCF7ADFE3299FCF7A2FE3F90E4
:103490004C983490429833904D984399FCF7A1FE94
:1034A0003399024634983592FCF79BFE3599FCF728
:1034B00090FE3E904998006A0021FCF70DFF00281D
:1034C00046D1FFE749981D90006A4099FCF789FEB4
:1034D0001D9A4F9912691C92FCF783FE1C99FCF708
:1034E00027FE1D99086149981F90006A3F99FCF7D3
:1034F00078FE1F9A4F9952691E92FCF772FE1E9930
:10350000FCF716FE1F99486149982190006A3E9980
:10351000FCF767FE219A4F9992692092FCF761FEB1
:103520002099FCF705FE219988614998016948981E
:10353000FCF7FEFD4890499841694798FCF7F8FD73
:103540004790499881694698FCF7F2FD4690FFE75D
:103550004998C0694099489A1992FCF742FE199916
:10356000FCF7E6FD48904998C0693F99479A1A923E
:10357000FCF737FE1A99FCF7DBFD47904998C069C4
:103580003E99469A1B92FCF72CFE1B99FCF7D0FD46
:103590004690FFE7499800683D90499840683C9004
:1035A000499880683B904998C0683A904F983F216D
:1035B0000906FCF716FE39903C980121C9074840DE
:1035C0000290489801903B984799FCF70AFE0199B0
:1035D000024602980392FCF704FE0399FCF7F9FDFA
:1035E00004903A984699FCF7FCFD01460498FCF7D4
:1035F000F0FD3999499A069212680592FCF7F1FD9F
:1036000001460598FCF794FD069908603D980890DE
:10361000489807903B984699FCF7E3FD07990246C6
:1036200008980992FCF7DDFD0999FCF781FD0A90E5
:103630003A984799FCF7D5FD01460A98FCF7C9FD71
:103640003999499A0C9252680B92FCF7CAFD0146CF
:103650000B98FCF76DFD0C9948603D980E904798CB
:103660000D903C984699FCF7BCFD0D9902460E98CA
:103670000F92FCF7B6FD0F99FCF7ABFD10903A984E
:103680004899FCF7AEFD1099FCF752FD3999499A1B
:10369000129292681192FCF7A4FD01461198FCF772
:1036A00047FD129988603D981490469813903C9875
:1036B0004799FCF796FD1399024614981592FCF76A
:1036C00090FD1599FCF734FD16903B984899FCF74E
:1036D00088FD01461698FCF77CFD3999499A1892A5
:1036E000D2681792FCF77DFD01461798FCF720FD84
:1036F0001899C860499800F071FDFFE74AB010BD05
:1037000047E1FA3EEA51D83FBD37863580B582B0F1
:1037100000200190FEF7FAF900F0B6F8FFF704F97F
:10372000FEF7E4FE00F024FD00F0C2FE02F046FACF
:10373000FFE7FEE784B0039002916946002008701D
:1037400001A90870FFE701A8007807281DD8FFE746
:10375000029801A90978405C411E88410399222200
:10376000895C4A1E9141884209D1FFE701A800788F
:10377000012181400098084369460870FFE7FFE790
:103780000198401C01A90870DDE76846007804B084
:10379000704780B586B0059004910392059B062082
:1037A000195E04229B5EC91802910599085E895E24
:1037B000401A01900298FEF703FD049908800198D1
:1037C000FEF7FEFC0399088006B080BD80B582B08C
:1037D0000020019000F01EF80199084600F002F860
:1037E00002B080BD80B586B001910246019805A95E
:1037F0000A8004AA0392108000200290095E01F062
:10380000ADFD02990398415E012001F0A7FD06B0CD
:1038100080BD000080B582B0014601A8017000782B
:10382000C007002806D0FFE7012081030548FDF707
:103830008FFB05E0012081030248FDF745FAFFE711
:1038400002B080BD00200A4080B582B00190FFF731
:10385000BDFF0120FFF7DEFFFFE733480068694640
:103860001E2202F04AFD012808D1FFE70020694628
:10387000085E0222895EFFF7B5FF04E000210846DA
:10388000FFF7B0FFFFE7E8E710B586B0002004902F
:1038900000900D4A0D4B012003900421059102F088
:1038A00003FB039A049B014605981F4C21600849BD
:1038B000029108490191009007480849120202F05C
:1038C00047FE06B010BDC046880B20208C0B202080
:1038D000DC0F2020DC0B202049380000EC7F0000AA
:1038E00080B584B002AA108001A801800E4800684B
:1038F000002804D1FFE703A90020087010E0029817
:103900006946088001984880074800680022022321
:1039100002F07AFB401E4142484103A90870FFE7CC
:1039200003A8007804B080BD840B202080B58CB043
:103930000A900A98002804D1FFE70BA9002008701C
:1039400036E07F20810202A800902022FCF7CCFB09
:1039500000981C21FEF782FA01900298674988427C
:1039600015D1FFE70398012811D1FFE708986449B2
:1039700088420CD1FFE709980199884207D1FFE7F7
:1039800002A80830FEF732FA002804D1FFE70BA99D
:10399000002008700CE004980A99086005980A99BC
:1039A000486006980A9988600BA901200870FFE713
:1039B0000BA800780CB080BD80B59CB0179017980C
:1039C000002806D0FFE71798FEF710FA002804D168
:1039D000FFE718A9002008708BE048480E900120EE
:1039E00006900F90179800681090179840681190F3
:1039F00017988068129000201390414814900EA8E8
:103A00001C21FEF72BFA1590EFF3108019901998EE
:103A10000990EFF3108072B61A903A480790FDF7BC
:103A20005DF8069A07987F21890208915202FDF7F6
:103A3000A7F8079808994022FDF746F801460AA81A
:103A400001700078032818D1FFE72E480490FDF795
:103A500045F804987F2189020591012252020392C0
:103A6000FDF78EF8039A0498059900920EAA082390
:103A7000FDF74CF80AA90870FFE709981B901B98FE
:103A800080F310880AA80078032804D0FFE718A95B
:103A9000002008702DE00BA8FFF748FF014600202A
:103AA000002902901FD0FFE70B9817990968FCF7CF
:103AB0004BFC014600200029029014D0FFE70C982F
:103AC00017994968FCF740FC014600200029029044
:103AD00009D0FFE70D9817998968FCF735FC411E5E
:103AE00088410290FFE702980121084018A9087058
:103AF000FFE718A800781CB080BDC0464255504D65
:103B00005341494200D00C4080B582B001900198E9
:103B1000002801D1FFE71CE002F082FE01280ED14F
:103B2000FFE7FFE70198002808D0FFE77D20C000ED
:103B3000FEF75EFC0198401E0190F3E709E0019A50
:103B40007D20C10008465043FCF737FC01F04CFFD4
:103B5000FFE702B080BD000080B582B05948FDF794
:103B6000A9FA002803D1FFE700F03EF8FFE7554827
:103B7000FDF7A0FA014600200090C0430029019003
:103B800001D000980190019802B080BD10B586B0B8
:103B900004AC207003A8017002A8027001930078A1
:103BA000002804D0FFE70198002804D1FFE7002097
:103BB000C043059015E004A8007803A9012201F094
:103BC00081FC002804D0FFE70020C043059008E0F6
:103BD00004A80078019902AA127801F007FB059069
:103BE000FFE7059806B010BD80B590B035480A9043
:103BF000FDF78EFA0A98FDF705FA1020FCF737FF5B
:103C000000220E92009201200B90C3041046114630
:103C1000FDF7D6F80B98FDF7F5F82B480C9002212C
:103C20000D91FDF79FF90C980D99FDF791F80E98FD
:103C30000FA90870FFE70FA80078082820D8FFE731
:103C400021480121FDF759F9C007002801D0FFE7FD
:103C500016E01D48079002210891FDF73FF8052066
:103C60000990FEF7C5FB07980899FDF77BF90998BD
:103C7000FEF7BEFBFFE70F98401C0FA90870DAE7BC
:103C800000230593019301200690C0040390009047
:103C90000321049118461A46FDF7FAF8039A04998D
:103CA000059B0698019300921A46FDF7F1F80598D6
:103CB000FDF72AF80698FDF727F8FDF769FE10B022
:103CC00080BDC04600000F4000000A4010B58CB017
:103CD0000AAC207009A8017008A802700793007848
:103CE000002809D0FFE708A80078102804D8FFE7CB
:103CF0000798002804D1FFE70020C0430B9024E080
:103D0000099802A9087001A900200870FFE701A81E
:103D1000007808A9097888420DDAFFE7079801A919
:103D20000978405C02AA89184870FFE70198401C96
:103D300001A90870EBE70AA8007808A909784A1CCD
:103D400002A901F0BFFB0B90FFE70B980CB010BD70
:103D500080B586B0059004910598002804D0FFE74F
:103D60000498002801D1FFE73FE003A90020087074
:103D7000FFE703A80078022829D8FFE7059803A9E0
:103D80000191097800914900405EFCF7EBFA23218C
:103D90004906FCF763FA009B0199049A9B00D050F6
:103DA000059809780291490040180821405EFCF707
:103DB000D9FA1149FCF752FA029A0499920089182B
:103DC0000861FFE70398401C03A90870D1E7059834
:103DD0000621405EFCF7C6FA0549FCF73FFA0549A3
:103DE000FCF7A6F90499C860FFE706B080BDC0469D
:103DF0000000AA43B81E12423333034280B5382074
:103E0000002102F00DF880BD80B582B0FFF7A4FE5E
:103E1000002804D0FFE70020C04301907AE06B2027
:103E2000802101F0FDFF002804D0FFE70020C043FF
:103E300001906FE06420FFF767FE6B20012101F025
:103E4000EFFF002807D1FFE76C20002101F0E8FF19
:103E5000002804D0FFE70020C04301905AE00A2068
:103E6000FFF752FE6820752101226B46FFF78EFE98
:103E7000002805D1FFE768460078682804D0FFE7EE
:103E80000120C043019045E03820002101F0C8FF27
:103E9000002838D1FFE72320002101F0C1FF0028CE
:103EA00031D1FFE76A20002101F0BAFF00282AD1B2
:103EB000FFE71A20032101F0B3FF002823D1FFE719
:103EC0001920042101F0ACFF00281CD1FFE71B20C2
:103ED000102101F0A5FF002815D1FFE71C200821C3
:103EE00001F09EFF00280ED1FFE73720902101F05E
:103EF00097FF002807D1FFE73820012101F090FF4C
:103F0000002804D0FFE70020C043019002E0002019
:103F10000190FFE7019802B080BD80B588B006909F
:103F20000698002804D1FFE70020C043079043E033
:103F300068203B210E2202ABFFF728FE002804D0A8
:103F4000FFE70020C043079036E002A8019001F08F
:103F500039F9014601984942069A1180801C01F006
:103F600031F9014601984942069A5180001D01F03D
:103F700029F901460198069A9180801D01F022F9E5
:103F800001460198069AD180083001F01BF90146DC
:103F900001984942069A11810A3001F013F901464D
:103FA00001984942069A51810C3001F00BF90699AB
:103FB000888100200790FFE7079808B080BD0000C7
:103FC00070B5B0B02F9000201A901990189012A9D7
:103FD0000870FFE700200B900E9012A80A9002785C
:103FE00001210A400FAB1A70007813AA0092084012
:103FF00026A918AA14ABFEF7B3FA0A9A0B9903463E
:1040000010A803701170405600282ED0FFE70FA8AB
:104010000078C007002804D0FFE712A9012008702B
:10402000FFE7002110A84056801C002804D1FFE7BC
:10403000042001F0FFF90FE0002110A84056C01C39
:10404000002804D1FFE7072001F0F4F903E006207F
:1040500001F0F0F9FFE7FFE701F00CFAFFF7C4FD0C
:104060007D208000FFF750FDB4E75549002008701F
:1040700002F0F0FB0D90032001F0DCF9FFE750485F
:104080000078C007002804D0FFE712A901200870BB
:104090005BE022A81BA901F06BFE00280CD0FFE713
:1040A0000E98401C0E900E98052804D3FFE70520BB
:1040B00001F0C0F949E0E2E700200E9011A9087074
:1040C000FFE711A80078022814D8FFE711A80078AC
:1040D000820009921BA88018006918A98958FCF76A
:1040E00078F8099A15A98850FFE71198401C11A982
:1040F0000870E6E702F0AEFB0DA9FDF7EFFE0C90AD
:1041000015981A490591FCF76CF8059906901698D0
:10411000FCF767F8059907901798FCF762F806997D
:10412000079A03461B981C9C1D9D0C9E03960295A6
:104130000194009026A80890FFF7D8F8089B22A8C1
:104140001BA915AA00F0B2FF99E701F093F912A894
:104150000078C007002807D1FFE7FFF745FD7D2065
:104160008000FFF7D1FCFFE734E7C04635FA8E3C0C
:1041700080B584B00F484821FBF7CFFF0E4870216F
:10418000FBF7CBFF0D48002303600D4803700D487B
:1041900003700D4802900D480190062000900C48D5
:1041A0000C490122520202F0D3F90B49086004B015
:1041B00080BDC0463C102020B0062020A006202054
:1041C00040002020841020208C1820208C102020DB
:1041D000C13F0000D87F00008810202080B58CB03F
:1041E0000B900B9807900168049141680846FBF713
:1041F000F8FF049905900846FBF7F3FF0599FBF7D4
:1042000097FF01460798069181680846FBF7E9FF8A
:104210000699FBF78DFF014607980891C16808468B
:10422000FBF7DFFF0899FBF783FF0A900A981F4905
:10423000FCF76EF800280CD1FFE70B997F20C00532
:1042400008600B99002048600B9988600B99C86042
:1042500029E00A9803F06CFE01467F20C005FBF7B9
:10426000FDFF099009990B9800900068FBF7B9FFD2
:104270000099086009990B9801904068FBF7B1FF1D
:104280000199486009990B9802908068FBF7A9FF93
:104290000299886009990B980390C068FBF7A1FF09
:1042A0000399C860FFE70CB080BDC046CCBC8C2B26
:1042B00080B58CB00A90099108A802700020079080
:1042C0000A98002803D1FFE700200B9052E008A8CD
:1042D0000078C007002811D0FFE709990A980590D7
:1042E000C069FBF725FF0599C8610A980269C16892
:1042F000C069FDF745FF0A99C861FFE70A982421C4
:10430000405CC007002807D0FFE709980A99096AAE
:10431000FBF75FFF0790FFE7099801900A99039167
:1043200008680090C8694968FBF75BFF009902467E
:1043300001980292FBF755FF0299FBF7F9FE0399EA
:10434000049007988968FBF74CFF0499FBF7F0FE8F
:1043500006900A98826941690698FDF711FF069058
:1043600009980A9908620A9924220120885406981B
:104370000B90FFE70B980CB080BDB0B58AB00990E8
:1043800008910998002804D0FFE70898002801D177
:10439000FFE711E0089901A800901CC91CC03CC9A6
:1043A0003CC009982821FBF7B8FE009909981CC960
:1043B0001CC03CC93CC0FFE70AB0B0BD81B0009052
:1043C0000098002801D1FFE708E000990020C861AB
:1043D00000990862009924228854FFE701B07047D1
:1043E00080B582B001200190FDF73EFC0198FDF7F9
:1043F00025FC07488021FCF747FC01990022104664
:1044000001F0EAF80198FDF75DFC02B080BDC046FE
:1044100000000A4080B502480249FCF7BBFD80BDA0
:1044200000000F4083040000F0B58DB00C90FDF744
:10443000BDFFFFE701F0F4F91B480690017A09AAD5
:10444000079211720279417909028A1881790B0465
:10445000C1790906C91889180A91027841780902B8
:10446000891882781204C0780006801840180990D4
:1044700001F0E0F90798C1798279437904790894C9
:10448000C478857846780778007A0590089804976C
:104490000396029501940090044802F059FC7D2097
:1044A000800001F0A1FAC5E7A406202000800000EA
:1044B00080B584B00648029006480190012200921F
:1044C000054806499202002302F042F804B080BD7C
:1044D000EC282020EC182020294400002380000034
:1044E00080B584B003900291234800680090594839
:1044F0000068001D01F0D0F8002801D1FFE700E0BE
:10450000FFE70398401C00280BD1FFE70298002822
:1045100007D0FFE74F480068011D1B4801F063F911
:1045200028E00098039940180190019849490968CA
:10453000486001980099884208D2FFE71148006856
:1045400044490968091D01F018F912E00B48006898
:1045500040490968091D01F010F9019808490968E6
:10456000884204D2FFE701980549086000E0FFE7B0
:10457000FFE7FFE704B080BDF8302020982A202014
:10458000A0302020A02A2020D030202080B582B06A
:10459000019001F045F960490868401C08602D4809
:1045A000006800280DD1FFE701982A4908605A48A1
:1045B0000068012803D1FFE700F036FA00E0FFE7CA
:1045C00014E02548006800280ED1FFE72148006864
:1045D000C06A0199C96A884204D8FFE701981D4959
:1045E000086000E0FFE700E0FFE7FFE71B48016825
:1045F000491C01600068019908640198C06A184963
:104600000968884205D9FFE70198C06A1449086023
:10461000FFE70199C86A1422424312488018091D15
:1046200001F0E1F801F006F90B48006800280DD010
:10463000FFE708480068C06A0199C96A884203D246
:10464000FFE701F08FF900E0FFE700E0FFE702B0CD
:1046500080BDC046902A2020C43020207C2B202002
:10466000802B2020A82A202080B584B001F0D8F823
:1046700011480068002819D1FFE71048029001F0A6
:104680005FF80F48039001F05BF8029903988A4A9B
:1046900011600C490860002000900B4A0B4B14205D
:1046A0000C2101F001FC0449086000E0FFE701F083
:1046B000C1F804B080BDC046FC302020443020202A
:1046C00058302020A42A20204C2920203C2A2020B9
:1046D00080B582B0FFE70F480068002818D0FFE7D8
:1046E00001F09EF8EA48C068C06801900198001D7A
:1046F00000F0D2FF08490868401E086005490868B4
:10470000401E086001F096F8019800F093F8E2E787
:1047100002B080BD742B2020702B202080B582B089
:10472000019000910198006C002817D0FFE70199D3
:104730000A6CC8688018C8600199C868896888428E
:1047400004D3FFE701990868C86000E0FFE700981C
:10475000019AD168126CFBF7C7FCFFE702B080BD7D
:1047600080B586B0059004910392002002900598D0
:10477000806B01900598006C002810D1FFE7059828
:104780000068002809D1FFE70598806802F00EF95B
:10479000029005990020886000E0FFE743E003985D
:1047A000002817D1FFE7059A50680499126CFBF7AF
:1047B0009BFC05990A6C4868801848600599486810
:1047C0008968884204D3FFE705990868486000E0DB
:1047D000FFE727E0059AD0680499126CFBF784FC88
:1047E00005990A6CC868801AC8600599C868096884
:1047F000884206D2FFE7059988680A6C801AC8606B
:1048000000E0FFE7039802280AD1FFE7019800289B
:1048100004D0FFE70198401E019000E0FFE700E0B0
:10482000FFE7FFE7FFE70198401C059988630298BE
:1048300006B080BD80B582B0019001985D21405CDA
:10484000002808D1FFE70198006B01F009F80198F2
:1048500001F006F814E001985D21405C012804D1C4
:10486000FFE7019800F0FCFF09E001985D21405C42
:10487000022803D0FFE772B6FFE7FEE7FFE7FFE796
:1048800002B080BD82B00190D44800680068414207
:1048900048410199086001980068002806D1FFE7A7
:1048A000CE480068C0680068009002E000200090D8
:1048B000FFE7009802B07047942A202080B582B0AC
:1048C0000190FFE7FFF704FFFCE710B584B0069CFA
:1048D000039002910192684603700298002803D168
:1048E000FFE70698006003E0019806990860FFE77B
:1048F00003980699C86302980699086406980121EE
:1049000001F032FB009806994C22885404B010BD87
:1049100010B588B00D9C0C9C0B9C0A9C07900691CE
:10492000059204930C98006B05998900A522FBF76A
:10493000EDFB0C98016B059880004018001F039058
:10494000039807218843039003A8007840070028B4
:1049500003D0FFE772B6FFE7FEE70698002820D0F5
:10496000FFE700200290FFE702980B2814D8FFE72A
:104970000698029A805C0C9989183422885406980B
:104980000299405C002801D1FFE705E0FFE7FFE75F
:104990000298401C0290E7E70C993F2200208854BF
:1049A00004E00C99342200208854FFE70A980A2872
:1049B00003D3FFE709200A9000E0FFE70A980C996B
:1049C000C8620A980C9988640C9900200190C86408
:1049D0000C98001D00F0CAFE0C98183000F0C6FEBE
:1049E00001980C9909610A9A0A21891A0C9A916115
:1049F0000C9949620C99486508650C9988650C9971
:104A00005C22885403980799049A00F0B5FB0C992E
:104A100008600B98002804D0FFE70C980B990860F9
:104A200000E0FFE708B010BD80B584B0002003901F
:104A3000FFE7039809280CD8FFE7039814214143A6
:104A40001748401800F07CFEFFE70398401C0390D5
:104A5000EFE70C48019000F073FE0B48029000F065
:104A60006FFE0A4800F06CFE094800F069FE094834
:104A700000F066FE01990298074A11600749086034
:104A800004B080BD7030202084302020B030202041
:104A9000E4302020D0302020982A2020A02A202076
:104AA000A82A202083B002902B480190FFE70198AC
:104AB00000680299884205D2FFE7FFE70198006885
:104AC0000190F4E701980090009801994968401816
:104AD0000299884209D1FFE7029842680199486823
:104AE000801848600198029000E0FFE7029800906B
:104AF00000980299496840180199096888421AD1BA
:104B0000FFE7019800681549096888420DD0FFE762
:104B100001980068426802994868801848600198C6
:104B2000006800680299086004E00C480068029977
:104B30000860FFE704E00198006802990860FFE759
:104B400001980299884204D0FFE702980199086011
:104B500000E0FFE703B07047C83020209C2A2020E7
:104B600080B586B0059004910392029300200190D5
:104B70000498059948600598006104980399884253
:104B800013D8FFE703980299401A0599896988426A
:104B900003D3FFE70120019006E0BA4800680599B9
:104BA000091D00F0EAFDFFE714E00398029988422E
:104BB00008D2FFE704980299884203D3FFE7012057
:104BC000019006E0F64800680599091D00F0D5FD42
:104BD000FFE7FFE7019806B080BDC046942A202079
:104BE00080B582B0019000F01BFE0198806B002818
:104BF00003D1FFE70120009002E000200090FFE7D2
:104C000000F018FE009802B080BD80B582B001901F
:104C100000F006FE0198806B0199C96B884203D1B0
:104C2000FFE70120009002E000200090FFE700F085
:104C300001FE009802B080BD80B586B00590049159
:104C4000D7480068C068C06802900298001D00F054
:104C500023FD02982821405C400700281CD5FFE76F
:104C60000298059B81695918049AFFF779FF00287B
:104C700010D0FFE70298059A00230093194602F02E
:104C800019F803900398002803D1FFE772B6FFE7F5
:104C9000FEE700E0FFE706E002992822885CFE2399
:104CA00018408854FFE70298016A884706B080BD23
:104CB00080B58AB0FFE77448006807A9002201F0B8
:104CC0001CFB002800D199E00798002800D594E04B
:104CD0000998069006984069002805D0FFE70698D5
:104CE000001D00F0D9FC00E0FFE705A800F0E6F8A1
:104CF000039007980290092800D97CE0029881006F
:104D000001A040588746C046314D0000314D00009B
:104D1000314D0000914D00009F4D0000D14D00002D
:104D2000314D0000314D0000914D00009F4D0000BD
:104D300006992822885C0123184388540698089B0A
:104D400081695918039AFFF70BFF00281ED0FFE76F
:104D50000698016A884706982821405C4007002889
:104D600012D5FFE70698089982698A1800230093F4
:104D7000194601F09FFF04900498002803D1FFE733
:104D800072B6FFE7FEE700E0FFE700E0FFE733E091
:104D900006992822885CFE23184088542CE0069946
:104DA0002822885C01231843885408980699886152
:104DB00006988069002803D1FFE772B6FFE7FEE797
:104DC0000698039B816959181A46FFF7C9FE13E03C
:104DD00006982821405C8007002804D4FFE7069845
:104DE00000F03EFD06E006992822885CFE2318406C
:104DF0008854FFE700E0FFE7FFE75CE70AB080BD0B
:104E000080B584B00390029100F036FF684600F050
:104E100055F80190009800282ED1FFE7029800284D
:104E20000CD1FFE703980199884207D8FFE701F00A
:104E30006BFE03980199FFF7FFFE1CE00298002823
:104E400007D0FFE757480068006841424841029098
:104E5000FFE70D4800680399019A891A029A00F049
:104E60008DFD01F051FE002803D1FFE700F07AFD2F
:104E700000E0FFE7FFE702E001F046FEFFE704B0D5
:104E800080BDC046A42A2020FC30202009480068AC
:104E90000068002805D1FFE707490020C0430860EB
:104EA00006E004480068C068006803490860FFE73E
:104EB0007047C046982A2020A030202080B582B0BC
:104EC000019001F0C7FC009000980A4909688842E7
:104ED00006D2FFE700F010F801990120086003E016
:104EE000019900200860FFE70098024908600098D7
:104EF00002B080BD8C2A202080B586B0FFE728480C
:104F000000680068002840D0FFE725480168C968AC
:104F1000096805910068C068C06802900298001D89
:104F200000F0BAFB0298016A884702982821405C89
:104F30004007002827D5FFE705980299896940189E
:104F400004900498059988420CD9FFE704980299C7
:104F5000486002980061124800680299091D00F03B
:104F60000CFC0FE00298059A00230093194601F00B
:104F7000A1FE01900198002803D1FFE772B6FFE778
:104F8000FEE7FFE700E0FFE7B9E7054A1068039096
:104F90000449086810600398086006B080BDC046E8
:104FA000942A2020A42A202081B0002000900948C3
:104FB0000068401C002803D0FFE772B6FFE7FEE759
:104FC00072B6FFE70098002801D1FFE7FAE701B0C9
:104FD0007047C0463C00202080B584B00390FFE7B6
:104FE00001A8FFF74FFC029002980199FFF708FF14
:104FF000FFF75EFEF4E780B584B0039000F010FC8C
:1050000003984521405C02A90870FFE7002102A82F
:105010004056012817DBFFE70398406A00280CD0B0
:10502000FFE70398243001F01DFD002803D0FFE7BF
:1050300000F088FD00E0FFE700E004E00298401E79
:1050400002A90870E2E703994522FF20885400F086
:10505000F1FB00F0E5FB03984421405C01A90870D6
:10506000FFE7002101A84056012817DBFFE703985E
:105070000069002810D0FFE70398103001F0F2FC1F
:10508000002803D0FFE700F05DFD00E0FFE7019896
:10509000401E01A9087000E000E0E2E70399442205
:1050A000FF20885400F0C6FB04B080BD80B59AB0E4
:1050B00019901891179216931998818904AB01934E
:1050C0009981028941890904891806918288C188D9
:1050D000090489180591018840880004401804904B
:1050E0001898006808901898406809901898806887
:1050F0000A90179800680B90179840680C901798C2
:1051000080680D901898C0680E90169800680F90EF
:105110001698406810901698806811901698C0688C
:105120001290169819463C311A4640324433FDF726
:105130003BFF00F075FB01990D4848220292FAF7F7
:10514000D3FF0199029ACA480390FAF7CDFF01F004
:1051500081FB03994865886D401C88650548006897
:10516000C8656D220120885400F064FB1AB080BD30
:105170003C102020A006202083B0029001910092D4
:105180000298001F02900299012000060860029810
:10519000001F02900198029908600298001F029077
:1051A0000299074808600298143802900098029902
:1051B0000860029820380290029803B07047C046F9
:1051C000A94F000081B0009000990878000249784A
:1051D000401800B201B0704780B5012081045E48DC
:1051E000FBF780FE411E884180BDC04680B58AB075
:1051F00008AB1870079106A8028004A90020088057
:105200000798002805D0FFE706A80088002804D1E9
:10521000FFE70020C04309907BE000F0D9FD0028A3
:1052200006D1FFE7FEF7E0FC0020C043099070E0E4
:10523000E6480390FBF708FFFFF7ECF8039808A98E
:10524000097806AA13880122FBF7CEFF01F002FBC2
:105250000590FFE704A8008806A90988884255DA66
:10526000FFE7FFE7D948FBF733FF0146002000299D
:1052700002900FD1FFE704A8018806A80288012048
:10528000002300939142019001DB00980190019866
:105290000290FFE70298C00700280BD0FFE7CB4839
:1052A000FBF724FF079A04A90B88D0540498401CEC
:1052B0000880D7E7FDF75EF8002806D1FFE70598DC
:1052C00000F0ECF8002806D0FFE7FEF78DFC002088
:1052D000C04309901DE0BD480121FBF7DFFE002817
:1052E00013D0FFE704A8008806A9098888420CDAD1
:1052F000FFE7B648FBF7ECFE002806D0FFE7FEF715
:1053000073FC0020C043099003E0A3E7002009904C
:10531000FFE709980AB080BD80B584B0014603A8B4
:1053200001700278012001900240C1030A480290F6
:1053300000F084FD01990298039A9207D20F0904A4
:1053400000F07CFD01990298039A5207D20F49049C
:1053500000F074FD04B080BD00200A4080B586B026
:10536000059004A80180059914224A43244989180C
:10537000039100210091405EFCF740FF0099024636
:1053800002A80280405E01280EDBFFE7039948680F
:105390008968FBF7DDFD0399C8680969FBF794FC90
:1053A000029801A9088023E0002102A8405E00289D
:1053B0000FD5FFE7039948688968FBF785FC0399D7
:1053C000C8680969FBF7C4FD0298404201A908803A
:1053D0000DE0039948688968FBF776FC0399C86873
:1053E0000969FBF771FC01A900200880FFE7FFE7CE
:1053F000039801A9098800F005F806B080BDC046F1
:10540000B07F000080B584B0039002A801800188BD
:105410001920C00148437D21C900FAF7CEFF019051
:105420000199039802780248FCF77EF804B080BD29
:105430000020864080B582B001A90091087000F07C
:10544000EFF900980199094A11700199084A6C23F3
:10545000D1540078032805D0FFE705496D220020CC
:105460008854FFE700F0E6F902B080BD84102020E8
:10547000B006202080B582B001200190FCF7F4FB3B
:105480000198FCF7DBFB04488021FBF7FDFBFEF7EE
:10549000B5FC02B080BDC04600000A4080B584B0B3
:1054A00003900A20029001F0D5F90399411A0120D6
:1054B000002200920929019001D8009801900198DA
:1054C00004B080BD80B58AB008AB1870079106A8FB
:1054D00002800798002805D0FFE706A8008800286A
:1054E00004D1FFE70020C04309906CE000F070FC9D
:1054F000002806D1FFE7FEF777FB0020C0430990A4
:1055000061E032480390FBF7ADFDFEF783FF03989F
:10551000079906AA02921288FBF780FD029A0146BB
:10552000039804AB198008A9097813880022FBF7B7
:105530005BFE01F08FF90590FFE724480221FBF79D
:10554000ADFD00282AD1FFE7FCF714FF002806D1A3
:10555000FFE70598FFF7A2FF002806D0FFE7FEF758
:1055600043FB0020C04309902DE004A8008806A951
:105570000988884211DAFFE7079804A901910A888F
:1055800081180698801A82B21048FBF747FD0199EE
:105590000246049880180880FFE7CEE7FCF7EAFE91
:1055A000002807D1FFE704A8008806A909888842D7
:1055B00006D0FFE7FEF718FB0020C043099002E089
:1055C00000200990FFE709980AB080BD00000F4055
:1055D000EFF3108072B6704780B584B003900291EB
:1055E00001920398002803D0FFE772B6FFE7FEE7B9
:1055F00000F016F927480068039989004018806D6B
:10560000002814D1FFE723480068039941185C2261
:10561000012088540198002807D0FFE70198012154
:10562000FEF75EFF00F09EF900E0FFE700E0FFE715
:1056300000F000F900F0F4F81648006803998900BA
:105640004018806D00900098002816D0FFE702985F
:10565000002808D0FFE70F48006803998900411827
:105660000020886508E00098401E0A490968039AEE
:10567000920089188865FFE700E0FFE705480068A9
:10568000039941185C220020885400F0D3F8009858
:1056900004B080BD902A202082B00190019800695A
:1056A000009001998868496888600199486889680C
:1056B0004860009840680199884205D1FFE7019849
:1056C00080680099486000E0FFE7019900200861C8
:1056D00000990868401E08600098006802B0704792
:1056E00083B00290019100920299054808600199E7
:1056F0000448086000998020086003B07047C046E5
:10570000842D2020842B202083B0029001910092D0
:1057100002990548086001990448086000998020B2
:10572000086003B07047C046E42F2020E42D2020FD
:1057300082B001900091FFE7FEE780F31088704788
:1057400081B000900099084608304860009A002017
:10575000C1439160009A11460831D160009A114608
:10576000083111610099086001B0704781B0009064
:1057700000990020086101B0704784B00390029145
:105780000298006800900098401C002804D1FFE7B0
:1057900003980069019010E0039808300190FFE73A
:1057A0000198406800680099884205D8FFE7FFE744
:1057B000019840680190F3E7FFE70198406802997B
:1057C0004860029841688860019802998860029850
:1057D0000199486003980299086103990868401C80
:1057E000086004B0704783B002900191029840684D
:1057F000009000980199486000988068019988603D
:105800000198009989684860019800998860029819
:105810000199086102990868401C086003B070474C
:1058200072B60E490868401C0860BFF34F8FBFF383
:105830006F8F704709480068002803D1FFE772B6F0
:10584000FFE7FEE705480168491E0160006800287F
:1058500002D1FFE762B6FFE77047C0463C00202058
:1058600080B584B0039003980290039800283FD03D
:10587000FFE702980838029002980190019840686A
:105880001C490968084203D1FFE772B6FFE7FEE74B
:1058900001980068002803D0FFE772B6FFE7FEE733
:1058A000019840681349096808421FD0FFE7019832
:1058B0000068002818D1FFE70E480268019948687F
:1058C0009043486000F0D8F9019842680A49086896
:1058D000801808600198FFF7E5F808490868401C3F
:1058E000086001F011F900E0FFE700E0FFE7FFE7E3
:1058F00004B080BD6C30202098302020A8302020BB
:10590000054900200860054A1060054A05481060F6
:10591000072008607047C04610E000E018E000E093
:1059200014E000E0FF7C0000000000000000000028
:105930000B4A13681868203080F30988022080F32E
:105940001488BFF36F8F3FBCAE4608BC04BC62B680
:105950001847C046C046C046C046C046C046C046BE
:10596000902A20200120000703490860BFF34F8FD1
:10597000BFF36F8F7047C04604ED00E080B584B080
:1059800003900291019203980090FFF749FF00985D
:1059900044214056401C002805D1FFE700994422CD
:1059A00000208854FFE7009845214056401C0028FD
:1059B00005D1FFE70099452200208854FFE7FFF753
:1059C00039FF0098806B002807D1FFE7009824304A
:1059D0000299019A00F0D2F800E0FFE70098FFF783
:1059E0000AFB04B080BD000080B582B001900020A9
:1059F00000900198002812D0FFE7D74800680028DF
:105A000003D0FFE772B6FFE7FEE700F035F9019833
:105A10000021FEF765FD01F077F8009000E0FFE758
:105A20000098002803D1FFE7FFF79CFF00E0FFE7A5
:105A300002B080BD80B586B00590049103920598B0
:105A4000002803D1FFE772B6FFE7FEE704980028BD
:105A500003D0FFE772B6FFE7FEE705980290FFF775
:105A6000B7FD00900298049940185C23C15C01A81E
:105A700001700299049A8A180221D1540299049A59
:105A800092008A18916D491C91650078012843D1D4
:105A9000FFE70298806A002803D0FFE772B6FFE7AD
:105AA000FEE7AD48006800281AD1FFE70298001D04
:105AB000FFF7F2FD0298C06AAB490968884205D930
:105AC000FFE70298C06AA8490860FFE70299C86A20
:105AD00014224243A5488018091DFFF784FE05E003
